:100000000C9422010C944C010C944C010C944C0166
:100010000C944C010C944C010C944C010C944C012C
:100020000C944C010C944C010C944C010C944C011C
:100030000C944C010C944C010C944C010C944C010C
:100040000C944C010C9439100C944C010C944C0100
:100050000C944C010C944C010C944C010C94321EE9
:100060000C944C010C9444210C944C010C944C01C4
:100070000C944C010C944C010C944C010C944C01CC
:100080000C944C010C944C010C944C010C944C01BC
:100090000C9485210C944C010C944C010C944C0153
:1000A0000C944C010C944C010C944C010C944C019C
:1000B0000C944C010C944C010C944C010C944C018C
:1000C0000C944C010C944C010C944C010C94C621E2
:1000D0000C944C010C944C010C9407220C944C0190
:1000E0000C944C0100002100240027002A002D0060
:1000F0003000330001010000040107010A01000083
:100100002200250028002B002E00310034000201BF
:100110000000050108010B0100002000230026005B
:1001200029002C002F00320000010000030106010D
:10013000090105050505070508080808020202026D
:100140000A0A080804040404010101010101010173
:100150000303030303030303040707070C0C0C0C3E
:100160000C0C0C0C02020202060606060606060627
:100170000B0B0B0B0B0B0B0B0102102020080810B4
:100180002040102040800201020108040201010207
:1001900004081020408080402010080402018004E0
:1001A000020180402010080402010804020101023B
:1001B0000408102040800102040810204080000044
:1001C000090A02080B0C0D070603040100000000D9
:1001D000000000000000000000000000000000001F
:1001E00000000000000000000000100F0E000000E2
:1001F00000000000000000000000000000000000FF
:1002000000000000494E46494E4954594E414ECDDA
:10021000CCCC3D0AD7233C17B7D13877CC2B3295BD
:1002200095E6241FB14F0A000020410000C842009B
:10023000401C4620BCBE4CCA1B0E5AAEC59D740065
:10024000D30B9C2311241FBECFEFD1E2DEBFCDBF65
:1002500014E0A0E0B2E0E8E2F2E500E00BBF02C08B
:1002600007900D92AA33B107D9F71AE0AAE3B4E0D8
:1002700001C01D92A737B107E1F712E0C4E4D2E054
:1002800004C02297FE010E94CC28C034D107C9F7D0
:100290000E942B1E0C9412290C940000A0E0B0E0E8
:1002A000E4E5F1E00C94E128EC015B0161157105D6
:1002B00019F0FB0191838083F9908F2D90E00E94CB
:1002C000D028892BC9F7FDE2FF1621F4F990EE241E
:1002D000E39405C02BE2F21609F4F990EE248E01A6
:1002E00001501040C80164E072E043E050E00E9419
:1002F000DD03892B01F58E010E5F1F4FC80167E0FA
:1003000072E045E050E00E94DD03892B19F48E0174
:10031000095F1F4FA114B10419F0F5011183008387
:10032000E0FC04C070E090E080E814C070E090E071
:1003300080E86FEF08C1C8016CE072E043E050E074
:100340000E94DD03892B69F4A114B10429F470E043
:1003500090E080EC6FE7F7C02296F501D183C0836F
:10036000F6CF8824992440E050E060E070E0EF2D63
:10037000E053EA30A0F5F2E0EF2A8E2D90E09C01E8
:1003800028703070E2FE06C0232B79F50894811C9A
:10039000911C2BC0232B19F0089481089108DB01D4
:1003A000CA0112E0880F991FAA1FBB1F1A95D1F727
:1003B000480F591F6A1F7B1F440F551F661F771F69
:1003C0004E0F511D611D711D483929E9520729E958
:1003D000620729E1720748F084E0E82A06C0EE3F90
:1003E00031F4E3FC39C098E0E92AF990C0CFE53355
:1003F00011F0E53189F529912D3219F4E0E1EE2A69
:1004000005C02B3219F081E090E003C0299182E011
:1004100090E0E22FE053EA3018F0C81BD90B1CC063
:1004200020E030E0FCE020383F075CF4C901880F91
:10043000991F880F991F280F391F220F331F2E0F66
:10044000311DE991E053EA3068F3E4FE03C03095D2
:1004500021953F4F820E931ECE2CDD24E1FE07C076
:10046000A114B10421F02197F501D183C083CB0100
:10047000BA010E94C9267B018C01F3E0CF22DD2462
:1004800023E0C216D10421F417FB109517F910953B
:1004900057016801C801B70120E030E040E050E0BA
:1004A0000E942C26882309F44AC097FE0DC023E23F
:1004B000E22E22E0F22E9094819491089394C0E26F
:1004C000D0E000E010E012C09BE3E92E92E0F92EAC
:1004D000F6CFF7012591359145915491C601B501AB
:1004E0000E947F275B016C018C1A9D0A8C169D0669
:1004F00084F7D595C7950F5F1F4F0630110529F07A
:100500008CEF9FEFE80EF91EF1CFC501D6017C01FB
:100510008D018C2D880F8D2D881F8F3F51F0C601C6
:10052000B50120E030E040E050E00E942C26882316
:1005300031F482E290E09093760A8093750A7E2DE2
:100540009F2D802F612F272F392F482F562FB9012C
:10055000CA01CDB7DEB7ECE00C94FD282F923F9294
:100560005F926F927F928F929F92AF92BF92CF9243
:10057000DF92EF92FF920F931F93CF93DF938C0143
:100580001B01EA016115710519F0FB01918380835C
:10059000209749F0CE010297839728F020E030E0C1
:1005A00040E050E0F6C0F801A1908F018A2D90E064
:1005B0000E94D028892BB9F7FDE2AF1631F4F8017B
:1005C000A1908F015524539407C0FBE2AF1619F494
:1005D000F801A1908F015524209719F0C031D10561
:1005E000C1F4F0E3AF1679F4F8018081883711F097
:1005F000883549F4F801A1800E5F1F4FF2E05F2AB1
:10060000C0E1D0E006C0209721F480E3A816E9F409
:1006100027C0C830D10531F1C930D10524F4C2302A
:10062000D10531F50CC0CA30D10589F0C031D105F2
:10063000F9F4C12CD12CE12CB8E0FB2E28C0C12C40
:10064000D12CE12CA0E4FA2E22C0CAE0D0E0FCECD0
:10065000CF2EFCECDF2EFCECEF2EFCE0FF2E17C0C3
:10066000C8E0D0E0C12CD12CE12CE0E1FE2E0FC07F
:100670009E01442737FD4095542F60E070E080E0F4
:1006800090E80E947928C901DA016C017D0120E01F
:1006900030E040E050E060E03E01882477FC809448
:1006A000982C70EDB72EBA0CE9E0EB1570F48A2D9A
:1006B00081548A3118F499ECB92E06C08A2D8156DE
:1006C0008A3150F589EAB82EBA0C8B2D90E08C1740
:1006D0009D0714F56F3FE1F0C216D306E406F50658
:1006E000B0F0CA01B901A40193010E9447289B01FF
:1006F000AC012B0D311D411D511D2130F0E03F0794
:10070000F0E04F07F0E85F0710F461E001C06FEF21
:10071000F801A1908F01C5CF2114310481F0662327
:1007200031F001501040F1011183008308C051FEE7
:100730001AC002501040F1011183008314C067FFFA
:1007400012C050FC05C02FEF3FEF4FEF5FE704C032
:1007500020E030E040E050E882E290E09093760ABA
:100760008093750A16C050FE08C05095409530958C
:1007700021953F4F4F4F5F4F0CC057FF0AC082E299
:1007800090E09093760A8093750A2FEF3FEF4FEF3A
:100790005FE7B901CA01DF91CF911F910F91FF90DF
:1007A000EF90DF90CF90BF90AF909F908F907F9011
:1007B0006F905F903F902F900895FB01DC014150B6
:1007C000504088F08D9181341CF08B350CF4805EA4
:1007D000659161341CF06B350CF4605E861B611111
:1007E00071F3990B0895881BFCCFFA01CF93FF9307
:1007F000EF93223044F1253234F5C22FE894CA3009
:1008000049F497FB3EF490958095709561957F4FE4
:100810008F4F9F4F2C2F332744275527FF93EF935C
:100820000E947928EF91FF91605D6A330CF0695D59
:100830006193B901CA01605070408040904051F707
:1008400016F4CDE2C19310828F919F91CF910C94B9
:100850002904DC01FC01672F71917723E1F73297BE
:1008600004C07C916D9370836291AE17BF07C8F38B
:1008700008952F923F924F925F926F927F928F9244
:100880009F92AF92BF92CF92DF92EF92FF920F931F
:100890001F93DF93CF93CDB7DEB72E970FB6F894A3
:1008A000DEBF0FBECDBF9E878D878B017A01FB0116
:1008B0006081718182819381FA012081318142813D
:1008C00053810E947F275B016C01F801648175816F
:1008D00086819781F70124813581468157810E9465
:1008E0007F273B014C01F8016085718582859385E6
:1008F000F70120853185428553850E947F271B01A2
:100900002C01F8016485758586859785F701248516
:100910003585468557850E947F2769877A878B872B
:100920009C87F8016089718982899389F701208900
:100930003189428953890E947F277B018C01C6013E
:10094000B50120E030E040E050E00E947B278823A2
:100950004CF0C601B50120E030E040E05FE30E94CA
:10096000C82508C0C601B50120E030E040E05FE3E3
:100970000E94C7250E94982669837A838B839C8373
:10098000C401B30120E030E040E050E00E947B274A
:1009900088234CF0C401B30120E030E040E05FE385
:1009A0000E94C82508C0C401B30120E030E040E047
:1009B0005FE30E94C7250E9498266D837E838F8304
:1009C0009887C201B10120E030E040E050E00E9491
:1009D0007B2788234CF0C201B10120E030E040E0E9
:1009E0005FE30E94C82508C0C201B10120E030E0E9
:1009F00040E05FE30E94C7250E9498263B014C011E
:100A000069857A858B859C8520E030E040E050E068
:100A10000E947B2788235CF069857A858B859C857D
:100A200020E030E040E05FE30E94C8250AC069850D
:100A30007A858B859C8520E030E040E05FE30E9472
:100A4000C7250E9498265B016C01C801B70120E010
:100A500030E040E050E00E947B2788234CF0C80142
:100A6000B70120E030E040E05FE30E94C82508C005
:100A7000C801B70120E030E040E05FE30E94C725F5
:100A80000E94982629813A814B815C81ED85FE8503
:100A900020833183428353832D813E814F8158854A
:100AA0002483358346835783608671868286938646
:100AB000A486B586C686D786608B718B828B938B16
:100AC000CF012E960FB6F894DEBF0FBECDBFCF91EB
:100AD000DF911F910F91FF90EF90DF90CF90BF902B
:100AE000AF909F908F907F906F905F904F903F90CE
:100AF0002F900895882321F4809181008B7F29C055
:100B0000813049F4809181008B7F809381008091B6
:100B10008100826015C0823049F4809181008B7F12
:100B20008093810080918100826018C0833071F4CD
:100B300080918100846080938100809181008D7F0D
:100B400080938100809181008E7F0DC08091810013
:100B5000846080938100809181008D7F80938100EB
:100B6000809181008160809381000895E0E8F0E049
:100B70001082A1E8B0E01C921092820010926F00E7
:100B80008C918F7E8C938C9188608C9380818D7FEB
:100B9000808380818E7F808380818F778083808136
:100BA0008F7B808380818F7D808380818F7E808317
:100BB00084E00E947A058FEF9FEF909389008093E5
:100BC00088000895FC0180819181A281B3818030E9
:100BD00020E0920721E0A20720E0B2070CF441C018
:100BE000893F2FEF920727E0A20720E0B20744F4E5
:100BF00053E0B595A795979587955A95D1F731C04C
:100C0000813C2FEF92072FE3A20720E0B20744F4C4
:100C100046E0B595A795979587954A95D1F721C058
:100C200081302FEF92072FEFA20720E0B2073CF4AC
:100C3000892F9A2FAB2FBB27A7FDBA9512C0813001
:100C40002CEF92072FEFA20723E0B2071CF0EFEF83
:100C5000FFEF08C02AE0B595A795979587952A9547
:100C6000D1F7FC01CF010895EF92FF920F931F93EC
:100C7000DF93CF9300D000D0CDB7DEB77B018C01DE
:100C800064E0EE0CFF1C001F111F6A95D1F7E9828A
:100C9000FA820B831C83CE0101960E94E205909399
:100CA00089008093880080E0E81680E0F80681E003
:100CB000080780E0180714F480E022C089EFE816E6
:100CC0008FEFF80687E0080780E0180714F481E04A
:100CD00017C081ECE8168FEFF8068FE3080780E075
:100CE000180714F482E00CC081E0E8168FEFF806D4
:100CF0008FEF080780E0180714F084E001C083E05C
:100D00000E947A050F900F900F900F90CF91DF9176
:100D10001F910F91FF90EF900895DF93CF93CDB780
:100D2000DEB7C456D0400FB6F894DEBF0FBECDBFBD
:100D3000DE011196E0E0F2E088E001900D92815032
:100D4000E1F7FE0139968CE5DF011D928A95E9F7FE
:100D500060914E0570914F0580915005909151051D
:100D60006F5F7F4F8F4F9F4FAE01485F5F4F2AE00D
:100D700030E00E94F50389E29AE00E947D2389E237
:100D80009AE0BE016F5F7F4F0E94C224CC59DF4FB3
:100D90000FB6F894DEBF0FBECDBFCF91DF9108959F
:100DA000AF92BF92CF92DF92EF92FF920F931F9379
:100DB000DF93CF9300D0CDB7DEB78C017B016A0102
:100DC0005901BE016F5F7F4F4AE050E00E94AE02C2
:100DD00029813A81201B310B121613066CF4F7019E
:100DE0006083718382839383F601808191818A2954
:100DF0009B299183808305C0F701108211821282A2
:100E00001382C9010F900F90CF91DF911F910F9125
:100E1000FF90EF90DF90CF90BF90AF900895AF928A
:100E2000BF92CF92DF92EF92FF920F931F93DF93C7
:100E3000CF9300D0CDB7DEB78C017B016A01590199
:100E4000BE016F5F7F4F4AE050E00E94AE022981F1
:100E50003A81201B310B121613065CF4F7017183E3
:100E60006083F601808191818A299B299183808307
:100E700003C0F70111821082C9010F900F90CF912A
:100E8000DF911F910F91FF90EF90DF90CF90BF9077
:100E9000AF900895AF92BF92CF92DF92EF92FF9200
:100EA0000F931F93DF93CF9300D0CDB7DEB78C01A4
:100EB0007B016A015901BE016F5F7F4F0E944E01A5
:100EC00029813A81201B310B121613066CF4F701AD
:100ED0006083718382839383F601808191818A2963
:100EE0009B299183808309C080E090E0A0E0B0E07E
:100EF000F70180839183A283B383C9010F900F9080
:100F0000CF91DF911F910F91FF90EF90DF90CF90E5
:100F1000BF90AF9008952F923F924F925F926F9241
:100F20007F928F929F92AF92BF92CF92DF92EF9279
:100F3000FF920F931F93DF93CF93CDB7DEB76697E2
:100F40000FB6F894DEBF0FBECDBF8B015C8B4B8B11
:100F5000FC01119211926F017C019C012C5F3F4FAB
:100F60003A8B298BFC013696F88BEF879C01285D24
:100F70003F4F3E872D87FC013896FC87EB879C010D
:100F8000245F3F4F3A872987FC017096F887EF83EB
:100F90009C012C5E3F4F3E832D83FC017C96FC839D
:100FA000EB839C012C5D3F4F3A832983BCE22B2EBF
:100FB000312C280E391EA0E34A2E512C480E591E02
:100FC000F8E16F2E712C680E791EE6E38E2E912CBF
:100FD000880E991E74E3A72EB12CA80EB91E1E8A86
:100FE0001D8ADCC0ED89FE89E00FF11FE081E0354C
:100FF00009F457C0E135ACF4E73459F1E8344CF466
:10100000E53409F4A1C0E6340CF082C0EA32F1F410
:10101000B3C0ED3441F1EE3409F4A2C0E934B1F4C7
:101020006CC0E43559F1E5354CF4E23509F47BC088
:101030008D899E890196E33564F57FC0E93509F411
:1010400046C0EA3509F44EC0E835B1F180E090E0E1
:101050009EC08D899E890196800F911FB601A701C0
:1010600021E030E092C08D899E890196800F911F0A
:1010700069897A89A70122E030E087C08D899E893D
:101080000196800F911F6F857889A70120E030E4D9
:101090007CC0800F911F6D857E85A70120E034E024
:1010A0005CC08D899E890196800F911F6B857C8520
:1010B000A70124E030E051C08D899E890196800F00
:1010C000911F69857A85A70128E030E046C08D89A7
:1010D0009E890196800F911F6F817885A70120E17D
:1010E00030E03BC08D899E890196800F911F6D81F4
:1010F0007E81A70120E230E030C08D899E89019673
:10110000800F911F6B817C81A70120E430E025C016
:101110008D899E890196800F911F69817A81A7012F
:1011200020E032E01AC08D899E890196800F911FC0
:10113000B101A70120E030E110C0800F911FB20182
:10114000A70120E038E009C08D899E890196800FB3
:10115000911FB301A70120E030E20E944A0717C0A7
:101160008D899E890196800F911FB401A70120E807
:1011700030E00E94D0060BC08D899E890196800FB9
:10118000911FB501A70120E031E00E940F070196F1
:10119000ED89FE89E80FF91FFE8BED8B2D893E89C5
:1011A0008B899C89281739070CF41CCF66960FB6DB
:1011B000F894DEBF0FBECDBFCF91DF911F910F918D
:1011C000FF90EF90DF90CF90BF90AF909F908F9067
:1011D0007F906F905F904F903F902F9008958FEF8A
:1011E00061E00E942D208FEF61E00E942D208AE2B5
:1011F00061E00E942D200895FC01E855FF4F108208
:1012000032971082E65AF040CF010E94EF0808950D
:10121000CF93DF93EC01C859DF4F88819981AA8170
:10122000BB81C856D0400097A105B10521F08FEFD2
:1012300060E00E942D20C459DF4F88819981AA81E6
:10124000BB81CC56D0400097A105B10521F08FEFAE
:1012500060E00E942D20C059DF4F88819981AA81CA
:10126000BB81C057D0400097A105B10521F08AE2AB
:1012700060E00E942D20CC58DF4F88819981AA819F
:10128000BB810097A105B10589F0E0913C04F0E035
:10129000EE0FFF1FE65CFB4F0190F081E02D808D8B
:1012A000918D97FD03C060E00E942D20DF91CF91CA
:1012B0000895CF93DF93EC01CA55DF4F8881C65A5A
:1012C000D0408823E1F5CC56DF4F8CE169910E9434
:1012D0002D2088E269910E942D208EE269910E9462
:1012E0002D208881C759D040E0913C04882361F0CB
:1012F000F0E0EE0FFF1FE65CFB4F0190F081E02D68
:101300001586878560E00CC0F0E0EE0FFF1FE65CFD
:10131000FB4F0190F081E02D81E08587878561E0BA
:101320000E942D20CE010E94080968EE73E080E043
:1013300090E00E943406C855DF4F81E08883DF913A
:10134000CF910895EF92FF920F931F937C01FC01C0
:1013500083890E94211F8C01F70183890E94211F2C
:10136000080F191FF70183890E94211F800F911F09
:1013700063E070E00E946628CB011F910F91FF90FF
:10138000EF900895CF93DF930E94A209AC01E9E3A7
:10139000F3E0C1E0D0E060817181461757075CF54A
:1013A000FE013197EE0FFF1FEE0FFF1FDF01AB5C59
:1013B000BC4F2D913C91E95CFC4F0190F081E02DF8
:1013C000421B530BCC0FDD1FCC0FDD1FC95CDC4F64
:1013D000888199818E1B9F0B621B730B9C01429F1E
:1013E000C001439F900D529F900D11240E946628CA
:1013F0006E0F7F1F10C09E012F5F21963496CD3354
:10140000D10549F62D3319F060E070E00BC0609112
:1014100027047091280432E0603073071CF06FEFEE
:1014200071E004C077FF02C060E070E0CB01DF91A3
:10143000CF910895CF93DF93EC010E94C2099C01E4
:101440000097D9F089819A812817390714F46F8998
:1014500006C08217930714F060E001C06E898B818B
:101460009C81281739070CF060E08D81861729F0E0
:101470006D83898970E00E94511FDF91CF9108959B
:1014800080913A0490913B040E941A0A0895CF93E8
:10149000DF93EC0118860E94C2099A8789871DC0D4
:1014A0000E94400A88858F5F8887853180F0CE0151
:1014B0000E94C2099C019C878B8789859A85821727
:1014C000930714F081E014C03A872987188668EEE4
:1014D00073E080E090E00E94881ECE010E94C20965
:1014E00029813A812550304082179307CCF280E061
:1014F000DF91CF910895CF93DF93EC010E94470ACB
:10150000882371F089E29AE064E672E00E94A324E5
:10151000CE010E94C209BC0189E29AE00E9497258F
:10152000DF91CF910895BF92CF92DF92EF92FF9219
:101530000F931F938C01B62E6A010E947B0AF8015B
:10154000B68684896B2D0E942D20F801858961E083
:101550000E942D20EE24D7FCE094FE2CC701B6019A
:101560000E94881EF801858960E00E942D201F914D
:101570000F91FF90EF90DF90CF90BF9008956F9202
:101580007F928F929F92AF92CF92EF920F93DF93C1
:10159000CF93CDB7DEB73C01862FF3016787408B31
:1015A000218B028BE38AC48AA58A918E808E9D85C9
:1015B000968B9E85978B61E00E940D20F3018089B8
:1015C00061E00E940D20F301818961E00E940D20FD
:1015D000F301838960E00E940D20F301848961E0BA
:1015E0000E940D20F301858961E00E940D20F30126
:1015F000878560E00E942D20F301818960E070E022
:101600000E94511FF301808960E070E00E94511F29
:10161000F301848960E00E942D20F301858960E058
:101620000E942D20F301808D918D97FD0CC061E00B
:101630000E940D20F301808D918D97FD0FC061E018
:101640000E942D200BC0F301828961E00E940D20D1
:10165000F301828960E070E00E94511FF301108263
:10166000158216861586128211828AE090E0948394
:101670008383CF91DF910F91EF90CF90AF909F90A8
:101680008F907F906F9008950F931F938C01085552
:101690001F4FF801108202501040F80110820251D1
:1016A000104081E0F80181938193819381938F01B0
:1016B00080830859104080E090E0A0E0B0E0F8019D
:1016C000848B958BA68BB78B808F918FA28FB38FD6
:1016D000848F958FA68FB78F80A391A3A2A3B3A366
:1016E00080E090E0AAEFB4E484A395A3A6A3B7A3F7
:1016F0008AE161E00E940D208CE161E00E940D20F2
:1017000086E261E00E940D2088E261E00E940D20E7
:101710008CE261E00E940D208EE261E00E940D20CB
:101720008FEF61E00E940D208FEF61E00E940D209D
:101730008AE261E00E940D20C8010E94EF0883E068
:1017400060E00E940D2080E160E00E940D2082E1B7
:1017500060E00E940D2080E090E0A0E2B2E4F80199
:1017600080839183A283B38384839583A683B78385
:1017700080E090E0A0EAB4E480879187A287B387F5
:1017800081E991E7A1E0B1E484879587A687B787CF
:1017900080E090E0A0E8BFE3808B918BA28BB38BBD
:1017A0001F910F9108958F929F92AF92CF92EF92D7
:1017B0000F9300D082E8EDB7FEB781838FEF82836D
:1017C00082E595E062E240E228E00FEF32E0E32EAE
:1017D000CC24CA94AA24AA9488248A94982C0E947F
:1017E000BF0A0F900F908CE695E00E94440B85E1B4
:1017F00096E00E94440B8EEB96E00E94440B87E635
:1018000097E00E94440B0F91EF90CF90AF909F9084
:101810008F900895AF92BF92CF92DF92EF92FF9296
:101820000F931F93B62EC016D106E206F30611F4ED
:1018300020E00EC0AA2059F4862F0E94B820892BE0
:1018400031F08B2D0E94B82020E0892B09F421E093
:10185000822F1F910F91FF90EF90DF90CF90BF905C
:10186000AF9008952F923F924F925F926F927F9226
:101870008F929F92AF92BF92CF92DF92EF92FF92A0
:101880000F931F93DF93CF93CDB7DEB7AC970FB60F
:10189000F894DEBF0FBECDBF88559F4FDC018C9101
:1018A000A85AB040BCA7ABA7882309F4C9C3A05C61
:1018B000BF4FBA83A983EBA5FCA5EC5AFF4FFC836D
:1018C000EB832BA53CA52C563F4F3E832D838BA548
:1018D0009CA587569F4F98878F83ABA5BCA5AC5B13
:1018E000BF4FBA87A987EBA5FCA5E85AFF4FFC8735
:1018F000EB872BA53CA52B563F4F3E872D878BA50D
:101900009CA586569F4F988B8F87ABA5BCA5A85BDF
:10191000BF4FBA8BA98BEBA5FCA5E45AFF4FFC8BFC
:10192000EB8B2BA53CA52A563F4F3E8B2D8B8BA5D1
:101930009CA585569F4F988F8F8BFCE42F2E312CC2
:10194000ABA5BCA52A0E3B1EA05ABF4FBA8FA98FCC
:10195000EBA5FCA5E956FF4FFC8FEB8F2BA53CA513
:1019600024563F4F3E8F2D8FE0E56E2E712C8BA5B8
:101970009CA5680E791E8C599F4F98A38F8FABA59D
:10198000BCA5A856BF4FBAA3A9A3EBA5FCA5E356D7
:10199000FF4FFCA3EBA377EA872E912C2BA53CA548
:1019A000820E931E28593F4F3EA32DA38BA59CA5C5
:1019B00084589F4F98A78FA36EE9462E512CABA554
:1019C000BCA54A0E5B1EA459BF4FBAA7A9A7E981BF
:1019D000FA810081118122813381AB81BC81CD905C
:1019E000DD90ED90FC908BA59CA563E042E0ED813D
:1019F000FE81A0800E940A0CAF81B8858C93E98596
:101A0000FA850081118122813381AB85BC85CD901F
:101A1000DD90ED90FC908BA59CA560E141E1ED850A
:101A2000FE85A0800E940A0CAF85B8898C93E98955
:101A3000FA890081118122813381AB89BC89CD90E3
:101A4000DD90ED90FC908BA59CA562E143E1ED89D2
:101A5000FE89A0800E940A0CAF89B88D8C93F10199
:101A60000081118122813381A98DBA8DCD90DD90C5
:101A7000ED90FC908BA59CA56FEF4FEFEB8DFC8D4F
:101A8000A0800E940A0CAD8DBE8D8C93F301008165
:101A9000118122813381AF8DB8A1CD90DD90ED9081
:101AA000FC908BA59CA56FEF4FEFE9A1FAA1A08058
:101AB0000E940A0CABA1BCA18C93F4011082AF81EF
:101AC000B8858C91882309F45CC0EDA1FEA18081CA
:101AD0009181A281B381EFA1F8A52081318142815A
:101AE0005381820F931FA41FB51F80839183A2830C
:101AF000B383181619061A061B060CF042C08AE1B9
:101B000061E00E942D2085E090E00E94B21E8AE1F3
:101B100060E00E942D2081E0D4018C93EFA1F8A514
:101B200080819181A281B381F20120813181428142
:101B30005381821B930BA40BB50BEFA1F8A58083F7
:101B40009183A283B383AD81BE818C91E981FA81B7
:101B50002081318142815381882349F02F5F3F4F9B
:101B60004F4F5F4F20833183428353830AC02150FC
:101B7000304040405040E981FA81208331834283E4
:101B80005383AF85B8898C91882309F45AC00BA57B
:101B90001CA500581F4FE9A5FAA580819181A2815B
:101BA000B381F8012081318142815381820F931FDB
:101BB000A41FB51F80839183A283B38318161906CF
:101BC0001A061B06F4F586E261E00E942D2085E0EE
:101BD00090E00E94B21E86E260E00E942D2081E02B
:101BE000D4018C93F80180819181A281B381F201AB
:101BF0002081318142815381821B930BA40BB50B51
:101C0000F80180839183A283B383AD85BE858C91D7
:101C1000882351F0E985FA8580819181A281B38181
:101C20000196A11DB11D09C0E985FA8580819181C8
:101C3000A281B3810197A109B10980839183A28315
:101C4000B383AF89B88D8C91882309F460C00BA54C
:101C50001CA50C571F4FEBA5FCA5E059FF4F808139
:101C60009181A281B381E057F040FCA7EBA7F80176
:101C70002081318142815381820F931FA41FB51FA0
:101C800080839183A283B383181619061A061B0654
:101C9000F4F58CE261E00E942D2085E090E00E9446
:101CA000B21E8CE260E00E942D2081E0D4018C9372
:101CB000F80180819181A281B381F201208131817B
:101CC00042815381821B930BA40BB50BF8018083D7
:101CD0009183A283B383AD89BE898C91882351F00F
:101CE000E989FA8980819181A281B3810196A11D40
:101CF000B11D09C0E989FA8980819181A281B381EE
:101D00000197A109B10980839183A283B383AD8D2B
:101D1000BE8D8C91882309F46CC058E8E52EF12C17
:101D2000EBA5FCA5EE0EFF1EEC58FF4F80819181C4
:101D3000A281B381E457F040FCA7EBA7F701208113
:101D4000318142815381820F931FA41FB51F80836D
:101D50009183A283B383181619061A061B060CF08A
:101D600048C0E0913C04F0E0EE0FFF1FE65CFB4F43
:101D700000811181D80150968C9161E00E942D2044
:101D800085E090E00E94B21EF801808960E00E9428
:101D90002D2081E0D4018C93F70180819181A28173
:101DA000B381F2012081318142815381821B930BE7
:101DB000A40BB50BF70180839183A283B383AB8D12
:101DC000BC8D8C91882349F0F10180819181A281A1
:101DD000B3810196A11DB11D08C0F10180819181DF
:101DE000A281B3810197A109B10980839183A28364
:101DF000B383ABA1BCA18C91882309F44AC0EBA5A5
:101E0000FCA5E457FF4F2BA53CA528583F4FD9010F
:101E10002D913D914D915C911397A857B040BCA76F
:101E2000ABA780819181A281B381280F391F4A1FFE
:101E30005B1F2083318342835383121613061406DB
:101E400015063CF5D201ED90FD900D911C912E19D7
:101E50003F09400B510B2083318342835383E9A117
:101E6000FAA18081882349F0F30180819181A281C8
:101E7000B3810196A11DB11D08C0F301808191813C
:101E8000A281B3810197A109B10980839183A283C3
:101E9000B383D4018C91882309F487C0EBA5FCA5FA
:101EA000E057FF4F2081318142815381E059F0405A
:101EB000FCA7EBA78F010E551F4F223031054105BE
:101EC00051056CF0D3016D917D918D919C910E9493
:101ED0004728F80160837183828393830AC0F301EA
:101EE00080819181A281B381F80180839183A28353
:101EF000B383ABA5BCA5DC966D917D918D919C9132
:101F0000DF9720EC31EE44E65CE40E947F275B0122
:101F10006C01EBA5FCA5EE55FF4F608171818281BC
:101F200093810E94CB267B018C01F201608171813B
:101F3000828193810E94CB269B01AC01C801B7012D
:101F40000E947F279B01AC01C601B5010E9430268B
:101F50007B018C0120E030E040E050E00E947B27D4
:101F600088234CF0C801B70120E030E040E05FE397
:101F70000E94C82508C0C801B70120E030E040E059
:101F80005FE30E94C7250E9498262BA53CA52E55ED
:101F90003F4FD9016D937D938D939C931397A25AD4
:101FA000B040BCA7ABA70E943406F401808188230F
:101FB00031F4ABA1BCA18C91882309F008CDEBA52D
:101FC000FCA5E756FF4F8081E959F040FCA7EBA73D
:101FD000882319F5E656FF4F8081EA59F040FCA7A7
:101FE000EBA78823D1F4E556FF4F8081EB59F040F1
:101FF000FCA7EBA7882389F4E456FF4F8081EC59B6
:10200000F040FCA7EBA7882341F4E356FF4F808103
:10201000ED59F040FCA7EBA701C081E0EBA5FCA5C2
:10202000E855FF4F80838081882351F48BA59CA5C0
:102030000E94EF0868EE73E080E090E00E943406B2
:10204000AC960FB6F894DEBF0FBECDBFCF91DF9137
:102050001F910F91FF90EF90DF90CF90BF90AF90C6
:102060009F908F907F906F905F904F903F902F90B8
:1020700008951F920F920FB60F920BB60F92112474
:102080001F932F933F934F935F936F937F938F9300
:102090009F93AF93BF93EF93FF9380916F008D7FDA
:1020A00080936F00E0915004F0E0EE0FFF1FE95BBA
:1020B000FB4F0190F081E02DE855FF4F8081882390
:1020C00061F0E0915004F0E0EE0FFF1FE95BFB4F81
:1020D000808191810E94320C22C0909150048091A5
:1020E0004F049817A9F5E0915004F0E0EE0FFF1FA0
:1020F000E95BFB4F0190F081E02DE855FF4F8081B7
:10210000882331F50CC0E12FF0E0EE0FFF1FE95BF3
:10211000FB4F808191810E94590910935004809156
:102120006F00826080936F00FF91EF91BF91AF913C
:102130009F918F917F916F915F914F913F912F91DF
:102140001F910F900BBE0F900FBE0F901F90189510
:10215000109150041F5F1430B0F210E0D4CF2F92D2
:102160003F924F925F926F927F928F929F92AF9227
:10217000BF92CF92DF92EF92FF920F931F93DF9364
:10218000CF93CDB7DEB7A4970FB6F894DEBF0FBEDE
:10219000CDBF2C01362E272EDC015496862F972F8B
:1021A0009C01F90184E101900D928150E1F726EA4A
:1021B00030E0420E531ED2011C92EAE5FFEF4E0EB4
:1021C0005F1ED20154966D917D918D919C91579790
:1021D0002091510430915204409153045091540481
:1021E0000E94C7255B016C01E894D7F8F201608D6D
:1021F000718D828D938D20915504309156044091BC
:102200005704509158040E94C7257B018C01E89423
:1022100017F9D2015C966D917D918D919C915F979C
:102220002091590430915A0440915B0450915C0410
:102230000E94C7253B014C01E89497F8F20160A188
:1022400071A182A193A120915D0430915E0440911F
:102250005F04509160040E94C7259B01AC015F7729
:102260002D8F3E8F4F8F58A3D20194966D917D9103
:102270008D919C91979720916104309162044091D7
:102280006304509164040E94C7259B01AC015F77F1
:1022900029A33AA34BA35CA3D201D8962D933D93D7
:1022A0004D935C93DB972D8D3E8D4F8D58A1D49629
:1022B0002D933D934D935C93D797F20160AA71AA39
:1022C00082AA93AA9C96ED92FD920D931C939F97E0
:1022D000A0A6B1A6C2A6D3A6C601B501A6019501C6
:1022E0000E947F275B016C01C801B701A80197011B
:1022F0000E947F279B01AC01C601B5010E94C82541
:102300007B018C01C401B301A40193010E947F27CA
:102310009B01AC01C801B7010E94C825D201DC961F
:102320006D937D938D939C93DF9720E030E040E0A8
:1023300050E00E942C2618166CF06D8D7E8D8F8DCE
:1023400098A19B01AC010E947F27F20164AF75AF99
:1023500086AF97AFD201DC966D917D918D919C9166
:10236000DF9720E030E040E050E00E942C26181675
:102370006CF069A17AA18BA19CA19B01AC010E9488
:102380007F27F20164AF75AF86AF97AFD201DC96BD
:102390006D917D918D919C91DF970E94E627F201CE
:1023A00064AF75AF86AF97AFF42CE52C8E010F5F4D
:1023B0001F4FC801B20141E554E00E943904D20127
:1023C000A05CBF4FF80184E101900D928150E1F7CC
:1023D00024E130E0420E531E8E010F5F1F4FC801F3
:1023E0006F2D7E2DA2010E94390440E450E0440E7E
:1023F000551ED2016CEA7FEF460E571EF80184E1AC
:1024000001900D928150E1F7F201EC5AFF4F80E408
:1024100090E0480E591E20813181428153812D8BDD
:102420003E8B4F8B588FF20180819181A281B381C5
:1024300020EC3FEF420E531E4D895E896F89788DE7
:10244000481B590B6A0B7B0B4D8B5E8B6F8B788F08
:1024500077FF0BC070956095509541955F4F6F4F1A
:102460007F4F4D8B5E8B6F8B788FF201E85AFF4F59
:1024700064E470E0460E571EE080F1800281138113
:10248000F20180819181A281B3812CEB3FEF420E5A
:10249000531EE81AF90A0A0B1B0B17FF08C0109508
:1024A0000095F094E094E11CF11C011D111DF20156
:1024B000E45AFF4F48E450E0440E551E608171819C
:1024C00082819381698F7A8F8B8F9C8FF2018081BB
:1024D0009181A281B38128EB3FEF420E531E498DBB
:1024E0005A8D6B8D7C8D481B590B6A0B7B0B498F6A
:1024F0005A8F6B8F7C8F77FF0BC0709560955095CE
:1025000041955F4F6F4F7F4F498F5A8F6B8F7C8FF5
:10251000F201E05AFF4F6CE470E0460E571E8080D7
:102520009180A280B380F20180819181A281B381E8
:1025300024EB3FEF420E531E881A990AAA0ABB0ADF
:10254000B7FE08C0B094A09490948094811C911C14
:10255000A11CB11CB20168587F4FF201EC59FF4F2A
:1025600040E550E0440E551E208131814281538167
:10257000F20180819181A281B381E0EBFFEF4E0EE9
:102580005F1E281B390B4A0B5B0B57FF07C050958A
:102590004095309521953F4F4F4F5F4FDB012D9375
:1025A0003D934D935C931397E4E7F0E04E0E5F1E6E
:1025B000D2018D929D92AD92BC921397298D3A8D46
:1025C0004B8D5C8D5E934E933E932E93FD01129343
:1025D0000293F292E292DF012D893E894F89588D54
:1025E0005E934E933E932E932D01E8E9FFEF4E0E3E
:1025F0005F1EDA01C9012E153F054007510714F48B
:10260000D801C7012EE930E0420E531EF20180834B
:102610009183A283B38322ED3FEF420E531EF2015A
:10262000208131814281538160E97FEF460E571E40
:1026300082179307A407B50714F4DA01C901EEE97C
:10264000F0E04E0E5F1EF20180839183A283B3837C
:1026500026ED3FEF420E531EF2012081318142816F
:1026600053816CE87FEF460E571E82179307A4072D
:10267000B50714F4DA01C901EEE9F0E04E0E5F1E71
:10268000F20180839183A283B38322E63FEF420E5F
:10269000531E0097A105B10599F446EA50E0440E97
:1026A000551E81E0D2018C93A1E5B4E0232D322D9B
:1026B000C901FC0184E101900D928150E1F7C8C18C
:1026C000F20184A095A0A6A0B7A0C501B40120E0A6
:1026D00030E040E050E00E947B2788234CF0C501A9
:1026E000B40120E030E040E05FE30E94C82508C06C
:1026F000C501B40120E030E040E05FE30E94C7255F
:102700000E94982620E530E0420E531ED2016D93C0
:102710007D938D939C931397E0EBFFEF4E0E5F1E1E
:10272000F201E858FF4F24E630E0420E531ED2017A
:102730002D913D914D915C91ACE9BFEF4A0E5B1E2E
:10274000261B370B480B590B57FF07C05095409578
:10275000309521953F4F4F4F5F4F20833183428308
:10276000538320E9C22ED12CC40CD51C21E030E0CB
:1027700040E050E0D6012D933D934D935C93139729
:10278000E8E7F0E04E0E5F1ED201ED90FD900D9156
:102790001C91E8E8FFEF4E0E5F1E9EE9692E712C3A
:1027A000640C751CD3012D913D914D915C912E15BA
:1027B0003F05400751070CF075C0C801B7010E94E2
:1027C0009B2849015A01F60180829182A282B3823C
:1027D000F3E08F169104A104B1040CF454C08201FB
:1027E0000C591F4FD8016D917D918D919C91A50140
:1027F00094010E949B2869017A01F80120833183AA
:10280000428353838201005B1F4FD8016D917D91FC
:102810008D919C91A50194010E949B28C901DA0128
:10282000F80180839183A283B383A7019601281BBB
:10283000390B4A0B5B0B57FF07C0509540953095FD
:1028400021953F4F4F4F5F4F68E770E0460E571E90
:10285000D2012D933D934D935C931397E8E8FFEFDE
:102860004E0E5F1EF201E256FF4F80819181A281E0
:10287000B38182179307A407B507A4F4208331839B
:10288000428353830FC021E030E040E050E0D601A6
:102890002D933D934D935C931397F301E082F18266
:1028A0000283138382010C561F4FFF24D2015496DA
:1028B0006D917D918D919C9157972091510430910C
:1028C000520440915304509154040E947B27882362
:1028D00014F0FF24F394F801F08282010B561F4F8D
:1028E000FF24D20158966D917D918D919C915B97BB
:1028F000209155043091560440915704509158044A
:102900000E947B27882314F0FF24F394F801F082BF
:1029100082010A561F4FFF24D2015C966D917D9172
:102920008D919C915F972091590430915A04409168
:102930005B0450915C040E947B27882314F0FF24E1
:10294000F394F801F082820109561F4FFF24D2014F
:1029500090966D917D918D919C91939720915D04BE
:1029600030915E0440915F04509160040E947B2787
:10297000882314F0FF24F394F801F08282010856B2
:102980001F4FFF24D20194966D917D918D919C9162
:1029900097972091610430916204409163045091B3
:1029A00064040E947B27882314F0FF24F394F80129
:1029B000F0822EE930E0420E531ED2016D917D91DE
:1029C0008D919C91E2E6FFEF4E0E5F1E22E030E01B
:1029D00040E050E00E949B2850954095309521950D
:1029E0003F4F4F4F5F4FD201A458BF4F2C931196CA
:1029F0003C93119712964C93129713965C931397EE
:102A0000F201E058FF4F208331834283538324E84F
:102A100030E0420E531E8D919D910D90BC91A02DE2
:102A2000F20181939193A193B19381939193A19397
:102A3000B19380839183A283B383A1E5B4E0232D76
:102A4000322DC901FC0184E101900D928150E1F722
:102A5000A4960FB6F894DEBF0FBECDBFCF91DF9125
:102A60001F910F91FF90EF90DF90CF90BF90AF90AC
:102A70009F908F907F906F905F904F903F902F909E
:102A800008951F93CF93DF93EC0106C061E070E0DF
:102A900080E090E00E94881E80915004882329F4F1
:102AA00080914F04833059F4F1CF20914F048091ED
:102AB000500430E090E001972817390739F310915E
:102AC0004F041F5F143008F010E0E12FF0E0EE0F2C
:102AD000FF1FE95BFB4F80819181BE010E94AF1017
:102AE00010934F04DF91CF911F910895CF93DF93FF
:102AF000EC019B01A0E0B5E0E1E5F4E084E10190A8
:102B00000D928150E1F788819981AA81BB818093E0
:102B1000000590930105A0930205B0930305F90108
:102B200080819181A281B3818093100590931105DA
:102B3000A0931205B093130580E095E00E94411523
:102B4000DF91CF910895CF93DF93EC019B01A0E03B
:102B5000B5E0E1E5F4E084E101900D928150E1F708
:102B600088819981AA81BB81809304059093050592
:102B7000A0930605B0930705F90180819181A28198
:102B8000B3818093100590931105A0931205B09323
:102B9000130580E095E00E944115DF91CF910895E3
:102BA000CF93DF93EC019B01A0E0B5E0E1E5F4E019
:102BB00084E101900D928150E1F788819981AA8189
:102BC000BB818093080590930905A0930A05B093F3
:102BD0000B05F90180819181A281B3818093100559
:102BE00090931105A0931205B093130580E095E032
:102BF0000E944115DF91CF9108954F925F926F929D
:102C00007F928F929F92AF92BF92CF92DF92EF927C
:102C1000FF920F931F93DF93CF93CDB7DEB7C056CC
:102C2000D0400FB6F894DEBF0FBECDBF7C01AB0124
:102C3000DC018C918F3209F494C680E090E0A0E032
:102C4000B0E08093EC049093ED04A093EE04B09375
:102C5000EF048093F0049093F104A093F204B093F6
:102C6000F3048093F4049093F504A093F604B093D6
:102C7000F7048093F8049093F904A093FA04B093B6
:102C8000FB048093FC049093FD04A093FE04B09396
:102C9000FF0484E195E0B7010E948B0700911405C1
:102CA00010911505C801880F892F881F990B9195E0
:102CB0008170912F917010FD03C0882309F4AFC07B
:102CC000981759F080912A0482FF96C089E29AE011
:102CD00068E672E00E94C2248FC0992309F49FC065
:102CE00060E080E002C06E278F5FF701E80FF11D02
:102CF000E081EA32C1F7E62EFF24809148059091E9
:102D000049058E159F0521F180912A0482FF06C096
:102D100089E29AE06FEB72E00E94C22489E29AE0B5
:102D20006FED72E00E94A32489E29AE0B7010E944D
:102D3000972589E29AE066EE72E00E94A3246091F2
:102D400048057091490589E29AE00E94972554C090
:102D500001FF08C080911805909119058E369105E4
:102D600009F44DC080914E0590914F05A0915005FA
:102D7000B09151050196A11DB11D20914A053091D8
:102D80004B0540914C0550914D05281739074A07CE
:102D90005B07A9F180912A0482FF06C089E29AE0CC
:102DA0006CEE72E00E94C22489E29AE06FED72E05C
:102DB0000E94A32440914E0550914F05609150050B
:102DC000709151054F5F5F4F6F4F7F4F89E29AE0DF
:102DD0000E948C2589E29AE066EE72E00E94A324AC
:102DE00040914A0550914B0560914C0570914D05FD
:102DF00089E29AE00E948C250E948D06B2C58091DE
:102E00004A0590914B05A0914C05B0914D058093DA
:102E10004E0590934F05A0935005B0935105C801FE
:102E200083709074892B91F40115110579F08091CC
:102E30002B0490912C0497FD09C090931705809363
:102E400016050160109315050093140500911405F3
:102E50001091150500FF01C480911605909117058A
:102E600090932C0480932B04ACEEB4E0E1E5F4E005
:102E700084E101900D928150E1F780912D04980139
:102E800028703070882309F449C0232B81F0809189
:102E9000200590912105A0912205B09123058093F2
:102EA000EC049093ED04A093EE04B093EF0404FFC0
:102EB00010C08091240590912505A0912605B09120
:102EC00027058093F0049093F104A093F204B0934B
:102ED000F30405FF10C08091280590912905A09169
:102EE0002A05B0912B058093F4049093F504A093E8
:102EF000F604B093F70415FF81C080912C059091E2
:102F00002D05A0912E05B0912F058093F804909384
:102F1000F904A093FA04B093FB0470C0232BD1F002
:102F20006091EC047091ED048091EE049091EF04B7
:102F300020912005309121054091220550912305D3
:102F40000E94C8256093EC047093ED048093EE0416
:102F50009093EF0404FF1AC06091F0047091F104A3
:102F60008091F2049091F30420912405309125057D
:102F700040912605509127050E94C8256093F004D2
:102F80007093F1048093F2049093F30405FF1AC048
:102F90006091F4047091F5048091F6049091F70427
:102FA000209128053091290540912A0550912B0543
:102FB0000E94C8256093F4047093F5048093F6048E
:102FC0009093F70415FF1AC06091F8047091F9040A
:102FD0008091FA049091FB0420912C0530912D05ED
:102FE00040912E0550912F050E94C8256093F8044A
:102FF0007093F9048093FA049093FB0411FF10C0BE
:103000008091380590913905A0913A05B0913B0522
:103010008093FC049093FD04A093FE04B093FF04FE
:1030200080911605909117058130910539F18C3109
:103030009105A1F1892B09F026C2E090FC04F090E3
:10304000FD040091FE041091FF0480E090E4ACE9DF
:10305000B5E48093FC049093FD04A093FE04B09328
:10306000FF048CEE94E00E944115E092FC04F09283
:10307000FD040093FE041093FF0456C4E0913C0449
:10308000F0E0EE0FFF1FE65CFB4F808191810E9414
:103090001A0A8CEE94E00E94411546C40F2EF0E00F
:1030A0006F2EF0E07F2EFAEF8F2EF4E49F2EF02D9E
:1030B000609261047092620480926304909264044E
:1030C0006091510470915204809153049091540482
:1030D00020E030E040EA50E40E94C72569837A830B
:1030E0008B839C830F2EF0E0EF2EF0E4FF2EFCE9A3
:1030F0000F2FF5E41F2FF02DED82FE820F8318872E
:10310000CE010196BE016B5F7F4F0E9476156091E4
:10311000510470915204809153049091540420E022
:1031200030E04AE753E40E94C72569877A878B8796
:103130009C87ED86FE860F87188BCE010996BE010F
:10314000635F7F4F0E94761520E030E040E050E062
:1031500020935104309352044093530450935404E9
:10316000609261047092620480926304909264049D
:1031700080E090E0A0E8BFE3898B9A8BAB8BBC8B9F
:103180006D8A7E8A8F8A988ECE014196BE016B5ED3
:103190007F4F0E9476156091510470915204809186
:1031A00053049091540420E030E040E251E40E9446
:1031B000C725698F7A8F8B8F9C8F6D8E7E8E8F8EB9
:1031C00098A2CE014996BE01635E7F4F0E9476159C
:1031D00020E030E040E050E020935104309352046E
:1031E00040935304509354046091550470915604D5
:1031F000809157049091580420E030E040EA50E478
:103200000E94C72569A37AA38BA39CA3EDA2FEA26B
:103210000FA318A7CE018196BE016B5D7F4F0E9460
:10322000A3156091550470915604809157049091B4
:10323000580420E030E04AE753E40E94C72569A71C
:103240007AA78BA79CA7EDA6FEA60FA718ABCE0169
:103250008996BE01635D7F4F0E94A31580E090E0D8
:10326000A0E0B0E08093550490935604A0935704D7
:10327000B093580460926104709262048092630477
:103280009092640420E030E040E85FE329AB3AAB81
:103290004BAB5CAB6DAA7EAA8FAA98AECE01C1964D
:1032A000BE016B5C7F4F0E94A31560915504709125
:1032B0005604809157049091580420E030E040E299
:1032C00051E40E94C72569AF7AAF8BAF9CAFFE0176
:1032D000FD966082718282829382CE01C996BF017F
:1032E0000E94A31580E090E0A0E0B0E08093550438
:1032F00090935604A0935704B09358040F2EF0E017
:10330000AF2EF0E0BF2EF8E4CF2EF2E4DF2EF02D4A
:10331000A0926104B0926204C0926304D0926404EB
:1033200021E4422E512C4C0E5D1E60915904709187
:103330005A0480915B0490915C0420E030E040E00E
:103340005FE30E94C725D2016D937D938D939C937B
:103350001397FE01EB5BFF4F0F2EF0E0EF2EF0E036
:10336000FF2EF0E20F2FF3E41F2FF02DE082F18209
:1033700002831383C201BF010E94D01599E4492E34
:10338000512C4C0E5D1E6091590470915A0480912D
:103390005B0490915C0420E030E04AE753E40E9433
:1033A000C725F2016083718382839383FE01E35B0F
:1033B000FF4FE082F18202831383C201BF010E94AA
:1033C000D01520E030E040E050E0209359043093E5
:1033D0005A0440935B0450935C04A0926104B09241
:1033E0006204C0926304D0926404DE01AF5ABF4FFE
:1033F00020E030E040E85FE32D933D934D935C93F4
:103400001397FE01EB5AFF4FA082B182C282D38292
:10341000CD01BF010E94D0158E01075A1F4F609148
:10342000590470915A0480915B0490915C0420E0EF
:1034300030E040E050E40E94C725D8016D937D93B1
:103440008D939C931397FE01E35AFF4FA082B182A4
:10345000C282D382C801BF010E94D01520E030E0B3
:1034600040E050E02093590430935A0440935B04A9
:1034700050935C04609261047092620480926304D1
:103480009092640451C29091500480914F04981717
:1034900009F080C2E0915004F0E0EE0FFF1FE95BFD
:1034A000FB4F0190F081E02DE855FF4F808188238C
:1034B00009F070C28091160590911705853191052C
:1034C00009F467C0863191053CF48430910589F098
:1034D000449709F0A8C024C08B35910509F496C023
:1034E0008C35910509F495C08A35910509F09BC08A
:1034F00089C060911C0570911D0580911E059091F9
:103500001F0520E030E040E05FE30E94C8250E94F4
:103510009826882777FD8095982F0E94881E9DC049
:10352000A7E4B4E020E030E04EE754E40F2EF0E0F2
:10353000AF2EF0E0BF2EFEEFCF2EF6E4DF2EF02D03
:103540000F2EF3EEEF2EFDE7FF2EFDE40F2FF3E439
:103550001F2FF02D60E070E080E89FE3ED91FD917A
:103560002083318342835383248335834683578367
:10357000A086B186C286D386E486F586068717873D
:10358000608B718B828B938BE4E0AF34BE0731F795
:1035900064C0A7E4B4E020E030E040E252E40F2E43
:1035A000F0E0AF2EF0E0BF2EF0EACF2EF4E4DF2EF5
:1035B000F02D0F2EF1E9EF2EF1E7FF2EF1E00F2FA6
:1035C000F1E41F2FF02D60E070E080E89FE3ED91C3
:1035D000FD91208331834283538324833583468343
:1035E0005783A086B186C286D386E486F586068791
:1035F0001787608B718B828B938BF4E0AF34BF079E
:1036000031F72BC081E080932D0427C010922D0448
:1036100024C0A1E5B4E0ECEEF4E084E101900D9269
:103620008150E1F71AC080912A0482FF16C089E216
:103630009AE06AE173E00E94A3244091160550913C
:103640001705662757FD6095762F89E29AE02AE0F4
:1036500030E00E94BC250E948D068091140581FFF8
:103660005DC19091500480914F04981709F099C161
:10367000E0915004F0E0EE0FFF1FE95BFB4F01907B
:10368000F081E02DE855FF4F8081882309F089C142
:1036900080911805909119058C36910509F43EC169
:1036A0008D3691059CF4893691053CF4853691055B
:1036B00054F5892B09F432C117C18A36910509F4F2
:1036C0005FC08B3691050CF06DC043C08F369105FD
:1036D00009F4ADC0803791054CF48D36910509F49D
:1036E00075C08E36910509F0FFC08CC08E379105EC
:1036F00009F4BBC08F37910509F4D5C08037910517
:1037000009F0F2C0A1C0809114059091150592FFB7
:1037100005C1E0913C04F0E0EE0FFF1FE65CFB4FBB
:103720000081118160913C0570913D0580913E05BD
:1037300090913F050E9498269B01D80112967C9398
:103740006E931197265F3F4F14963C932E931397D9
:10375000E5C089E29AE061E273E00E94A324E0916F
:103760003C04F0E0EE0FFF1FE65CFB4F808191818F
:103770000E94C209BC0189E29AE00E949725F1C02B
:10378000E0913C04F0E0EE0FFF1FE65CFB4F019080
:10379000F081E02D808D918D97FFC0C082896FEF01
:1037A00070E011C0E0913C04F0E0EE0FFF1FE65C1A
:1037B000FB4F0190F081E02D808D918D97FFAEC081
:1037C000828960E070E00E94511FA8C080911405BA
:1037D0009091150592FFA2C010E060913C05709198
:1037E0003D0580913E0590913F0520E030E040E0AE
:1037F00050E00E942C26811111E08FEF612F0E9472
:103800002D208CC08091140587FF88C080914A05C7
:1038100090914B05A0914C05B0914D0580934E05BC
:1038200090934F05A0935005B093510577C06091D8
:103830003C0570913D0580913E0590913F050E94A9
:103840009D2660932A046AC080914F04809350049F
:1038500007E414E0F801819191918F010E94FC0826
:10386000F4E00F341F07B1F759C0E0913C04F0E0D9
:10387000EE0FFF1FE65CFB4F0081118160911C057C
:1038800070911D0580911E0590911F0520E030E08C
:1038900040E05FE30E94C8250E9498269B01AC018E
:1038A000C80161E01DC0E0913C04F0E0EE0FFF1F95
:1038B000E65CFB4F0081118160911C0570911D0534
:1038C00080911E0590911F0520E030E040E05FE30D
:1038D0000E94C8250E9498269B01AC01C80160E0A7
:1038E000A9010E94930A1AC080912A0482FF16C07F
:1038F00089E29AE064E273E00E94A32440911805F3
:1039000050911905662757FD6095762F89E29AE058
:103910002AE030E00E94BC250E948D0680911405AB
:103920009091150596FD02C081E01CC09091500455
:1039300080914F049817E1F5E0915004F0E0EE0F0C
:10394000FF1FE95BFB4F0190F081E02DE855FF4F31
:103950008081882369F580913C04882311F01092BE
:103960003C0480E0C05ADF4F0FB6F894DEBF0FBEB4
:10397000CDBFCF91DF911F910F91FF90EF90DF901E
:10398000CF90BF90AF909F908F907F906F905F90FF
:103990004F90089561E070E080E090E00E94881E02
:1039A00072CD61E070E080E090E00E94881E59CE08
:1039B00061E070E080E090E00E94881EB7CF1F9326
:1039C00089E29AE00E944123882311F189E29AE07A
:1039D0000E945523809329048D3019F48AE0809346
:1039E00029049091290490329CF09B3319F481E0D2
:1039F0008093EB048091EB04882351F48091EA04D6
:103A0000E82FF0E0E659FB4F90838F5F8093EA0444
:103A10008091EA0487FF04C01092EA041092EB043C
:103A20006091EA046623C9F0809129048A30A9F4E0
:103A300070E0FB01E659FB4F10828AE694E00E9499
:103A4000FD15182F1092EA041092EB0489E29AE017
:103A50006BE273E00E94C22401C010E0812F1F912D
:103A60000895EF92FF920F931F930E94400A0E94C5
:103A7000DF1C90913403882389F0992309F462C0F4
:103A80008FEF61E00E940D208FEF60E00E942D20FB
:103A90001092340381E08093650454C0992309F0A7
:103AA00051C09091500480914F04981709F04AC07A
:103AB000E0915004F0E0EE0FFF1FE95BFB4F019037
:103AC000F081E02DE855FF4F80818823D9F5E09102
:103AD0003C04F0E0EE0FFF1FE65CFB4F0190F0812D
:103AE000E02D818192811816190664F18091650498
:103AF000882389F00E947A1E605F784D8F4F9F4F18
:103B000060936604709367048093680490936904DB
:103B10001092650417C0E0906604F090670400916D
:103B20006804109169040E947A1EE61AF70A080BCD
:103B3000190B17FF07C08FEF60E00E940D2081E096
:103B4000809334031F910F91FF90EF900895EF92AF
:103B5000FF920F931F937FE6E72EF12CF7018081F0
:103B60008D7F80830E94B60510923D0482E595E02A
:103B700090933B0480933A0410923C0410924F04BB
:103B8000109250048CE695E090934804809347048B
:103B900085E196E090934A04809349048EEB96E089
:103BA00090934C0480934B0487E697E090934E04E7
:103BB00080934D041092EA041092EB0480E090E0B0
:103BC000A0E0B0E08093510490935204A09353047A
:103BD000B09354048093550490935604A0935704D3
:103BE000B09358048093590490935A04A0935B04B3
:103BF000B0935C0480935D0490935E04A0935F0493
:103C0000B093600480E090E0AAEFB4E48093610494
:103C100090936204A0936304B093640409E21AE0F1
:103C2000C80140E05BE460E070E00E944822C80107
:103C30006EE273E00E94C22468EE73E080E090E0E0
:103C40000E943406F7018081826080831F910F916A
:103C5000FF90EF9008950E94C01E0E94A71D0E9431
:103C6000311DFDCF1F920F920FB60F9211242F938B
:103C70003F938F939F93AF93BF938091140890913C
:103C80001508A0911608B0911708309118080196F0
:103C9000A11DB11D232F2D5F2D3720F02D5701962B
:103CA000A11DB11D20931808809314089093150846
:103CB000A0931608B09317088091100890911108EE
:103CC000A0911208B09113080196A11DB11D809317
:103CD000100890931108A0931208B0931308BF9195
:103CE000AF919F918F913F912F910F900FBE0F90A9
:103CF0001F9018958FB7F8942091140830911508EB
:103D000040911608509117088FBFB901CA01089554
:103D1000EF92FF920F931F937B018C018FB7F89462
:103D20004091140850911508609116087091170879
:103D30008FBF2FB7F8948091140890911508A09127
:103D40001608B09117082FBF841B950BA60BB70B55
:103D5000E816F9060A071B0760F71F910F91FF90FD
:103D6000EF900895019759F0FC01EE0FFF1FEE0F41
:103D7000FF1F32978FB7F8943197F1F78FBF0895EF
:103D8000789484B5826084BD84B5816084BD85B536
:103D9000826085BD85B5816085BDEEE6F0E08081FD
:103DA00081608083E1E8F0E08081826080838081AF
:103DB00081608083E0E8F0E0808181608083E1EBD6
:103DC000F0E0808184608083E0EBF0E080818160BE
:103DD0008083E1E9F0E0808182608083808181607E
:103DE0008083E1EAF0E0808182608083808181606D
:103DF0008083E1E2F1E08081826080838081816064
:103E00008083E0E9F0E0808181608083E0EAF0E097
:103E1000808181608083E0E2F1E080818160808345
:103E2000EAE7F0E080818460808380818260808323
:103E30008081816080838081806880831092C1004E
:103E40000895382F3F7020912E042295220F220FC3
:103E5000207C232B20937C0020917B0086958695E7
:103E6000869590E08170907033E0880F991F3A95A5
:103E7000E1F7277F282B20937B0080917A008064D4
:103E800080937A0080917A0086FDFCCF20917800A3
:103E900040917900942F80E030E0282B392BC90124
:103EA00008951F93CF93DF93182FEB0161E00E94D9
:103EB0000D20E12FF0E0E254FE4F8491833051F465
:103EC00080918000806880938000D0938900C093A7
:103ED00088009FC0843051F480918000806280937C
:103EE0008000D0938B00C0938A0093C0813041F44E
:103EF000209709F487C084B5806884BDC7BD89C098
:103F0000823041F4209709F47DC084B5806284BD7D
:103F1000C8BD7FC0863041F48091B0008068809336
:103F2000B000C093B30075C0873041F48091B000F9
:103F300080628093B000C093B4006BC0883051F4AD
:103F400080919000806880939000D0939900C093F6
:103F500098005FC0893051F4809190008062809316
:103F60009000D0939B00C0939A0053C08A3051F4C4
:103F700080919000886080939000D0939D00C093C2
:103F80009C0047C08B3051F48091A00080688093E2
:103F9000A000D093A900C093A8003BC084918C30AE
:103FA00051F48091A00080628093A000D093AB0078
:103FB000C093AA002EC08D3051F48091A00088607B
:103FC0008093A000D093AD00C093AC0022C08E308F
:103FD00051F480912001806880932001D0932901C1
:103FE000C093280116C08F3051F480912001806267
:103FF00080932001D0932B01C0932A010AC0C038BE
:10400000D1051CF4812F60E002C0812F61E00E9485
:104010002D20DF91CF911F910895282F30E0C90105
:1040200088589E4FFC0194912E5C3E4FF90184917B
:10403000882391F0E82FF0E0EE0FFF1FEC51FF4FC7
:10404000A591B491662329F48C91909589238C9342
:1040500008958C91892B8C930895482F50E0CA01C4
:1040600082549E4FFC012491CA0188589E4FFC0146
:1040700094914E5C5E4FFA013491332309F477C07A
:10408000222309F462C0233021F4809180008F77CD
:1040900005C0243031F4809180008F7D80938000B2
:1040A00054C0213019F484B58F7704C0223021F434
:1040B00084B58F7D84BD49C0263021F48091B00045
:1040C0008F7705C0273031F48091B0008F7D8093C9
:1040D000B0003BC0283021F4809190008F7705C05C
:1040E000293031F4809190008F7D809390002DC015
:1040F0002A3021F480919000877FF7CF2B3021F474
:104100008091A0008F770BC02C3021F48091A0000B
:104110008F7D05C02D3031F48091A000877F809382
:10412000A00013C02E3021F4809120018F770BC0A6
:104130002F3021F4809120018F7D05C0203129F49A
:1041400080912001877F80932001E32FF0E0EE0F24
:10415000FF1FE250FF4FA591B491662329F48C9183
:10416000909589238C9308958C91892B8C93089535
:10417000682F70E0CB0182549E4FFC012491CB014B
:1041800088589E4FFC0144916E5C7E4FFB019491D8
:10419000992319F420E030E075C0222309F462C0AD
:1041A000233021F4809180008F7705C0243031F4D2
:1041B000809180008F7D8093800054C0213019F45D
:1041C00084B58F7704C0223021F484B58F7D84BDFF
:1041D00049C0263021F48091B0008F7705C0273088
:1041E00031F48091B0008F7D8093B0003BC02830C7
:1041F00021F4809190008F7705C0293031F48091AF
:1042000090008F7D809390002DC02A3021F4809102
:104210009000877FF7CF2B3021F48091A0008F771B
:104220000BC02C3021F48091A0008F7D05C02D3073
:1042300031F48091A000877F8093A00013C02E30BE
:1042400021F4809120018F770BC02F3021F48091D1
:1042500020018F7D05C0203129F480912001877FC6
:1042600080932001892F90E0880F991F885E9E4FD0
:10427000FC01A591B4918C9120E030E0842311F0F1
:1042800021E030E0C90108951F920F920FB60F92FE
:104290000BB60F9211242F933F934F935F936F931D
:1042A0007F938F939F93AF93BF93EF93FF9340912F
:1042B000C600E0919908F0919A08CF01019660E854
:1042C00070E00E9466289C0180919B0890919C0858
:1042D0002817390739F0E75EF74F408330939A0883
:1042E00020939908FF91EF91BF91AF919F918F918A
:1042F0007F916F915F914F913F912F910F900BBEE6
:104300000F900FBE0F901F9018951F920F920FB62F
:104310000F920BB60F9211242F933F934F935F93FD
:104320006F937F938F939F93AF93BF93EF93FF937D
:104330004091CE00E0911D09F0911E09CF01019638
:1043400060E870E00E9466289C0180911F099091AE
:1043500020092817390739F0E356F74F4083309387
:104360001E0920931D09FF91EF91BF91AF919F917D
:104370008F917F916F915F914F913F912F910F900E
:104380000BBE0F900FBE0F901F9018951F920F92AB
:104390000FB60F920BB60F9211242F933F934F93AA
:1043A0005F936F937F938F939F93AF93BF93EF939D
:1043B000FF934091D600E091A109F091A209CF01AD
:1043C000019660E870E00E9466289C018091A30934
:1043D0009091A4092817390739F0EF5DF64F408313
:1043E0003093A2092093A109FF91EF91BF91AF9162
:1043F0009F918F917F916F915F914F913F912F91FD
:104400000F900BBE0F900FBE0F901F9018951F922C
:104410000F920FB60F920BB60F9211242F933F936A
:104420004F935F936F937F938F939F93AF93BF93BC
:10443000EF93FF9340913601E091250AF091260A0F
:10444000CF01019660E870E00E9466289C0180918F
:10445000270A9091280A2817390739F0EB55F64FAB
:1044600040833093260A2093250AFF91EF91BF9154
:10447000AF919F918F917F916F915F914F913F91FC
:104480002F910F900BBE0F900FBE0F901F9018959D
:104490005F926F927F928F929F92AF92BF92CF92D4
:1044A000DF92EF92FF920F931F93CF93DF93EC0174
:1044B0003A014B01413482E458078FE0680780E0FD
:1044C00078070CF07FC060E874E88EE190E0A4010A
:1044D00093010E949B282150304040405040CA0127
:1044E000B90122E030E040E050E00E949B285901F1
:1044F0006A01A6019501209530954095509594E06C
:10450000220F331F441F551F9A95D1F760E074E2C4
:1045100084EF90E00E949B28CA01B9012FEF30E0A0
:1045200040E050E00E944728A40193010E949B288C
:10453000C90181509F4F181619061CF4522E5A9427
:1045400003C055245394521A60E079E08DE390E063
:10455000A40193010E949B282150304040405040CC
:10456000CA01B90122E030E040E050E00E949B28FF
:10457000209530954095509583E0220F331F441FBE
:10458000551F8A95D1F760E074E284EF90E00E94B5
:104590009B28CA01B9012FEF30E040E050E00E94B3
:1045A0004728A40193010E949B28C90181509F4F75
:1045B000181619061CF4822F815002C081E0821B5C
:1045C000851500F5E885F98581E090E00A8802C04C
:1045D000880F991F0A94E2F7808360E079E08DE309
:1045E00090E0A40193010E949B282150304040405C
:1045F0005040CA01B90122E030E040E050E00E94A2
:104600009B2804C0E885F98510829501EC81FD8125
:104610003083EE81FF812083EA85FB85208141E0A4
:1046200050E0CA010E8402C0880F991F0A94E2F775
:10463000282B2083EA85FB852081CA010F8402C0D4
:10464000880F991F0A94E2F7282B2083EA85FB85BF
:104650008081088802C0440F551F0A94E2F7842B1A
:104660008083DF91CF911F910F91FF90EF90DF90AA
:10467000CF90BF90AF909F908F907F906F905F9002
:104680000895DC011296ED91FC911397E058FF4FCD
:104690008191919180589F4F20813181821B930B92
:1046A00060E870E00E9466280895CF93DF93DC01F4
:1046B0001296ED91FC911397EF01CE57DF4F488191
:1046C0005981E058FF4F80819181E058F040841774
:1046D000950719F42FEF3FEF0CC0E40FF51F208171
:1046E000CA01019660E870E00E9466289983888379
:1046F00030E0C901DF91CF910895DC011296ED9170
:10470000FC911397EE57FF4F808191819293829392
:104710000895FC01A085B18521898C9190E0022E3D
:1047200002C0959587950A94E2F780FFF6CF04843E
:10473000F585E02D6083089523E334E030932A0A61
:104740002093290A89E198E090932C0A80932B0A00
:1047500085EC90E090932E0A80932D0A84EC90E0F3
:104760009093300A80932F0A80EC90E09093320A65
:104770008093310A81EC90E09093340A8093330A5D
:1047800086EC90E09093360A8093350AE4E0E0935B
:10479000370A73E07093380A67E06093390A55E08E
:1047A00050933A0A41E040933B0A30933D0A2093EC
:1047B0003C0A8DE998E090933F0A80933E0A8DEC85
:1047C00090E09093410A8093400A8CEC90E09093A3
:1047D000430A8093420A88EC90E09093450A8093C4
:1047E000440A89EC90E09093470A8093460A8EEC45
:1047F00090E09093490A8093480AE0934A0A7093A4
:104800004B0A60934C0A50934D0A40934E0A3093E2
:10481000500A20934F0A81E299E09093520A8093C4
:10482000510A85ED90E09093540A8093530A84EDE9
:1048300090E09093560A8093550A80ED90E0909313
:10484000580A8093570A81ED90E090935A0A80931A
:10485000590A86ED90E090935C0A80935B0AE0939E
:104860005D0A70935E0A60935F0A5093600A4093FA
:10487000610A3093630A2093620A85EA99E0909373
:10488000650A8093640A85E391E09093670A8093B8
:10489000660A84E391E09093690A8093680A80E352
:1048A00091E090936B0A80936A0A81E391E0909380
:1048B0006D0A80936C0A86E391E090936F0A80936F
:1048C0006E0AE093700A7093710A6093720A5093B3
:1048D000730A4093740A08950F931F93CF93DF9345
:1048E0008C01EB0109C02196D801ED91FC9101905A
:1048F000F081E02DC801099568816623A1F7DF9159
:10490000CF911F910F910895EF92FF920F931F93F4
:10491000CF93DF938C017B01EA010CC0D7016D912D
:104920007D01D801ED91FC910190F081E02DC8014D
:1049300009952197209791F7DF91CF911F910F91C2
:10494000FF90EF900895DC01ED91FC910280F381DE
:10495000E02D099508950F931F938C01DC01ED91D3
:10496000FC910190F081E02D6DE00995D801ED9169
:10497000FC910190F081E02DC8016AE009951F913A
:104980000F9108950F931F938C010E94A324C801D7
:104990000E94AB241F910F9108952F923F924F9246
:1049A0005F926F927F928F929F92AF92BF92CF92BF
:1049B000DF92EF92FF920F931F93DF93CF93CDB7C8
:1049C000DEB7A0970FB6F894DEBF0FBECDBF1C01B7
:1049D0006A017B01411551056105710549F4DC014E
:1049E000ED91FC910190F081E02D60E3099554C0B8
:1049F000882499245401422E55246624772401E00A
:104A000010E00C0F1D1F080D191DC701B601A301F1
:104A100092010E947928F80160830894811C911CFE
:104A2000A11CB11CC701B601A30192010E94792803
:104A3000C901DA016C017D01C114D104E104F10462
:104A4000F1F681E0E82EF12CEC0EFD1EE80CF91CCD
:104A50003E010894611C711CD501C4010197A10994
:104A6000B1096C01C818D90814C0F601EE0DFF1D7C
:104A700060816A3010F4605D01C0695CD101ED9124
:104A8000FC910190F081E02DC10109950894E108A5
:104A9000F1086E147F0449F7A0960FB6F894DEBFB4
:104AA0000FBECDBFCF91DF911F910F91FF90EF907F
:104AB000DF90CF90BF90AF909F908F907F906F903E
:104AC0005F904F903F902F900895EF92FF920F9339
:104AD0001F93CF93DF93EC017A018B0177FF0FC017
:104AE000E881F9810190F081E02D6DE20995109542
:104AF0000095F094E094E11CF11C011D111DCE0104
:104B0000B801A7012AE00E94CD24DF91CF911F9127
:104B10000F91FF90EF9008950F931F938C010E94C7
:104B20006525C8010E94AB241F910F9108950F9332
:104B30001F938C01AB01662757FD6095762F0E946D
:104B40006525C8010E94AB241F910F910895DC01D7
:104B50002115310541F4ED91FC910190F081E02D9A
:104B6000642F099508952A30310519F40E946525AE
:104B700008950E94CD2408950F931F938C010E94E5
:104B8000A725C8010E94AB241F910F91089550588A
:104B9000BB27AA270ED075C166D130F06BD120F0AB
:104BA00031F49F3F11F41EF45BC10EF4E095E7FB76
:104BB00051C1E92F77D180F3BA17620773078407D1
:104BC000950718F071F49EF58FC10EF4E0950B2E49
:104BD000BA2FA02D0B01B90190010C01CA01A0014F
:104BE0001124FF27591B99F0593F50F4503E68F1AA
:104BF0001A16F040A22F232F342F4427585FF3CFEB
:104C0000469537952795A795F0405395C9F77EF4BB
:104C10001F16BA0B620B730B840BBAF09150A1F004
:104C2000FF0FBB1F661F771F881FC2F70EC0BA0F8A
:104C3000621F731F841F48F4879577956795B79512
:104C4000F7959E3F08F0B3CF9395880F08F099270A
:104C5000EE0F979587950895D9D008F481E00895CF
:104C60000CD00FC107D140F0FED030F021F45F3FEF
:104C700019F0F0C0511139C1F3C014D198F3992340
:104C8000C9F35523B1F3951B550BBB27AA27621710
:104C90007307840738F09F5F5F4F220F331F441F55
:104CA000AA1FA9F333D00E2E3AF0E0E830D091508D
:104CB0005040E695001CCAF729D0FE2F27D0660F7A
:104CC000771F881FBB1F261737074807AB07B0E8B9
:104CD00009F0BB0B802DBF01FF2793585F4F2AF0CF
:104CE0009E3F510568F0B6C000C15F3FECF3983EAF
:104CF000DCF3869577956795B795F7959F5FC9F72C
:104D0000880F911D9695879597F90895E1E0660FB4
:104D1000771F881FBB1F621773078407BA0720F02D
:104D2000621B730B840BBA0BEE1F88F7E095089596
:104D300004D06894B111D9C00895BCD088F09F57B1
:104D400090F0B92F9927B751A0F0D1F0660F771FD7
:104D5000881F991F1AF0BA95C9F712C0B13081F0B7
:104D6000C3D0B1E00895C0C0672F782F8827B85FFF
:104D700039F0B93FCCF3869577956795B395D9F718
:104D80003EF490958095709561957F4F8F4F9F4F22
:104D90000895E89409C097FB3EF49095809570952E
:104DA00061957F4F8F4F9F4F9923A9F0F92F96E977
:104DB000BB279395F695879577956795B795F111EC
:104DC000F8CFFAF4BB0F11F460FF1BC06F5F7F4F89
:104DD0008F4F9F4F16C0882311F096E911C077239B
:104DE00021F09EE8872F762F05C0662371F096E8A4
:104DF000862F70E060E02AF09A95660F771F881F73
:104E0000DAF7880F9695879597F90895990F000816
:104E1000550FAA0BE0E8FEEF16161706E807F9078C
:104E2000C0F012161306E407F50798F0621B730B27
:104E3000840B950B39F40A2661F0232B242B252BA8
:104E400021F408950A2609F4A140A6958FEF811D4B
:104E5000811D089597F99F6780E870E060E00895EC
:104E60009FEF80EC089500240A9416161706180682
:104E70000906089500240A9412161306140605065E
:104E80000895092E0394000C11F4882352F0BB0FEF
:104E900040F4BF2B11F460FF04C06F5F7F4F8F4F52
:104EA0009F4F089557FD9058440F551F59F05F3F8D
:104EB00071F04795880F97FB991F61F09F3F79F03C
:104EC00087950895121613061406551FF2CF4695BE
:104ED000F1DF08C0161617061806991FF1CF869540
:104EE0007105610508940895E894BB276627772724
:104EF000CB0197F908958ADF08F48FEF08950BD05E
:104F0000C0CFB1DF28F0B6DF18F0952309F0A2CFAB
:104F1000A7CF1124EACFC6DFA0F3959FD1F3950F59
:104F200050E0551F629FF001729FBB27F00DB11D2D
:104F3000639FAA27F00DB11DAA1F649F6627B00DBD
:104F4000A11D661F829F2227B00DA11D621F739FA6
:104F5000B00DA11D621F839FA00D611D221F749FB4
:104F60003327A00D611D231F849F600D211D822FFB
:104F7000762F6A2F11249F5750408AF0E1F0882342
:104F80004AF0EE0FFF1FBB1F661F771F881F91504F
:104F90005040A9F79E3F510570F05CCFA6CF5F3F10
:104FA000ECF3983EDCF3869577956795B795F79582
:104FB000E7959F5FC1F7FE2B880F911D969587950A
:104FC00097F9089511F40EF44BCF4AC073DFD0F374
:104FD0009923D9F3CEF39F57550B87FF51D05695A0
:104FE0009795B0E020F4660F771F881FBB1F1F93B3
:104FF0000F9300249001A0018001F001A0E80E0FA2
:105000001F1F0A1E511D601B710B8009B50B48F450
:10501000600F711F801DB51F0E1B1F0B0A0A51095F
:1050200007C02E0F3F1F4A1F0E0F1F1F0A1E511DC4
:10503000660F771F881FBB1FA695F795E795F8F6B3
:105040000617170708065B07211D311D411D0F912B
:105050001F91B901842F9158880F969587950895CF
:105060009F3F49F0915028F4869577956795B795BD
:105070009F5F80389F4F880F9695879597F9089581
:1050800091505040660F771F881FD2F70895629F96
:10509000D001739FF001829FE00DF11D649FE00D30
:1050A000F11D929FF00D839FF00D749FF00D659F91
:1050B000F00D9927729FB00DE11DF91F639FB00D90
:1050C000E11DF91FBD01CF011124089597FB092EA1
:1050D00007260AD077FD04D049D006D000201AF464
:1050E000709561957F4F0895F6F7909581959F4F44
:1050F0000895A1E21A2EAA1BBB1BFD010DC0AA1F19
:10510000BB1FEE1FFF1FA217B307E407F50720F030
:10511000A21BB30BE40BF50B661F771F881F991FAB
:105120001A9469F760957095809590959B01AC01F4
:10513000BD01CF01089597FB092E05260ED057FD1E
:1051400004D0D7DF0AD0001C38F450954095309534
:1051500021953F4F4F4F5F4F0895F6F790958095FB
:10516000709561957F4F8F4F9F4F0895AA1BBB1B72
:1051700051E107C0AA1FBB1FA617B70710F0A61B57
:10518000B70B881F991F5A95A9F780959095BC0178
:10519000CD010895EE0FFF1F0590F491E02D0994C5
:1051A000911106C0803219F089508550D0F70895CA
:1051B0009927882708952F923F924F925F926F927E
:1051C0007F928F929F92AF92BF92CF92DF92EF9297
:1051D000FF920F931F93CF93DF93CDB7DEB7CA1B18
:1051E000DB0B0FB6F894DEBF0FBECDBF09942A8843
:1051F000398848885F846E847D848C849B84AA84EB
:10520000B984C884DF80EE80FD800C811B81AA8177
:10521000B981CE0FD11D0FB6F894DEBF0FBECDBF42
:08522000ED010895F894FFCFA1
:10522800526573656E643A000000000000000000DB
:105238000000000000000000000000000000000066
:105248000000000000000000000000000000000056
:105258000000000000000000000000000000000046
:105268000000000000000000000000000000000036
:105278000000000000000000000000000000000026
:1052880000000000453A200053657269616C2045B2
:1052980072726F723A52656369657665642061203F
:1052A8004C696E654E7220636F6465207769746817
:1052B8006F7574206120436865636B73756D206337
:1052C8006F6465206F7220436865636B73756D202A
:1052D800776974686F7574204C696E654E720053F7
:1052E800657269616C204572726F723A20636865F5
:1052F800636B73756D206D69736D61746368007796
:10530800616E743A2000676F743A200053657269C1
:10531800616C204572726F723A204C696E654E72EC
:10532800206973206E6F7420746865206C617374D3
:10533800206C696E654E722B31006875683F204796
:1053480000543A004875683F204D006F6B00737435
:10535800617274000117002C01190027011B00223B
:10536800011C001D011F0018012100130123000E5C
:105378000126000901290004012C00FF003000FA71
:10538800003400F5003800F0003D00EB004200E674
:10539800004700E1004E00DC005400D7005C00D25A
:1053A800006400CD006D00C8007800C3008300BE13
:1053B800008F00B9009C00B400AB00AF00BB00AA8E
:1053C80000CD00A500E000A000F5009B000C0196B0
:1053D800002501910040018C005C0187007B01825F
:1053E800009B017D00BD017800E001730004026E9E
:1053F80000290269004F02640074025F0099025A92
:1054080000BE025500E102500002034B0021034692
:10541800003E03410059033C007103370087033203
:10542800009A032D00AB032800BA032300C6031E0D
:1054380000D1031900D9031400E1030F00E7030AA0
:1054480000EC030500F00300003F04FFFF0101002A
:0A54580000000089236C2484240066
:00000001FF
