:100000000C9422010C944C010C944C010C944C0166
:100010000C944C010C944C010C944C010C944C012C
:100020000C944C010C944C010C944C010C944C011C
:100030000C944C010C944C010C944C010C944C010C
:100040000C944C010C944A0F0C944C010C944C01F0
:100050000C944C010C944C010C944C010C945D1BC1
:100060000C944C010C94611E0C944C010C944C01AA
:100070000C944C010C944C010C944C010C944C01CC
:100080000C944C010C944C010C944C010C944C01BC
:100090000C94A21E0C944C010C944C010C944C0139
:1000A0000C944C010C944C010C944C010C944C019C
:1000B0000C944C010C944C010C944C010C944C018C
:1000C0000C944C010C944C010C944C010C94E31EC8
:1000D0000C944C010C944C010C94241F0C944C0176
:1000E0000C944C0100002100240027002A002D0060
:1000F0003000330001010000040107010A01000083
:100100002200250028002B002E00310034000201BF
:100110000000050108010B0100002000230026005B
:1001200029002C002F00320000010000030106010D
:10013000090105050505070508080808020202026D
:100140000A0A080804040404010101010101010173
:100150000303030303030303040707070C0C0C0C3E
:100160000C0C0C0C02020202060606060606060627
:100170000B0B0B0B0B0B0B0B0102102020080810B4
:100180002040102040800201020108040201010207
:1001900004081020408080402010080402018004E0
:1001A000020180402010080402010804020101023B
:1001B0000408102040800102040810204080000044
:1001C000090A02080B0C0D070603040100000000D9
:1001D000000000000000000000000000000000001F
:1001E00000000000000000000000100F0E000000E2
:1001F00000000000000000000000000000000000FF
:1002000000000000494E46494E4954594E414ECDDA
:10021000CCCC3D0AD7233C17B7D13877CC2B3295BD
:1002200095E6241FB14F0A000020410000C842009B
:10023000401C4620BCBE4CCA1B0E5AAEC59D740065
:10024000E80AAD2011241FBECFEFD1E2DEBFCDBF43
:1002500012E0A0E0B2E0E4E3FCE400E00BBF02C087
:1002600007900D92A238B107D9F718E0A2E8B2E0E2
:1002700001C01D92AF3AB107E1F712E0C4E4D2E049
:1002800004C02297FE010E94D225C034D107C9F7CD
:100290000E94561B0C9418260C940000A0E0B0E0BD
:1002A000E4E5F1E00C94E725EC015B0161157105D3
:1002B00019F0FB0191838083F9908F2D90E00E94CB
:1002C000D625892BC9F7FDE2FF1621F4F990EE241B
:1002D000E39405C02BE2F21609F4F990EE248E01A6
:1002E00001501040C80164E072E043E050E00E9419
:1002F000DD03892B01F58E010E5F1F4FC80167E0FA
:1003000072E045E050E00E94DD03892B19F48E0174
:10031000095F1F4FA114B10419F0F5011183008387
:10032000E0FC04C070E090E080E814C070E090E071
:1003300080E86FEF08C1C8016CE072E043E050E074
:100340000E94DD03892B69F4A114B10429F470E043
:1003500090E080EC6FE7F7C02296F501D183C0836F
:10036000F6CF8824992440E050E060E070E0EF2D63
:10037000E053EA30A0F5F2E0EF2A8E2D90E09C01E8
:1003800028703070E2FE06C0232B79F50894811C9A
:10039000911C2BC0232B19F0089481089108DB01D4
:1003A000CA0112E0880F991FAA1FBB1F1A95D1F727
:1003B000480F591F6A1F7B1F440F551F661F771F69
:1003C0004E0F511D611D711D483929E9520729E958
:1003D000620729E1720748F084E0E82A06C0EE3F90
:1003E00031F4E3FC39C098E0E92AF990C0CFE53355
:1003F00011F0E53189F529912D3219F4E0E1EE2A69
:1004000005C02B3219F081E090E003C0299182E011
:1004100090E0E22FE053EA3018F0C81BD90B1CC063
:1004200020E030E0FCE020383F075CF4C901880F91
:10043000991F880F991F280F391F220F331F2E0F66
:10044000311DE991E053EA3068F3E4FE03C03095D2
:1004500021953F4F820E931ECE2CDD24E1FE07C076
:10046000A114B10421F02197F501D183C083CB0100
:10047000BA010E94CF237B018C01F3E0CF22DD245F
:1004800023E0C216D10421F417FB109517F910953B
:1004900057016801C801B70120E030E040E050E0BA
:1004A0000E943223882309F44AC097FE0DC023E23C
:1004B000E22E22E0F22E9094819491089394C0E26F
:1004C000D0E000E010E012C09BE3E92E92E0F92EAC
:1004D000F6CFF7012591359145915491C601B501AB
:1004E0000E9485245B016C018C1A9D0A8C169D0666
:1004F00084F7D595C7950F5F1F4F0630110529F07A
:100500008CEF9FEFE80EF91EF1CFC501D6017C01FB
:100510008D018C2D880F8D2D881F8F3F51F0C601C6
:10052000B50120E030E040E050E00E943223882313
:1005300031F482E290E09093AE088093AD087E2D76
:100540009F2D802F612F272F392F482F562FB9012C
:10055000CA01CDB7DEB7ECE00C9403262F923F9290
:100560005F926F927F928F929F92AF92BF92CF9243
:10057000DF92EF92FF920F931F93CF93DF938C0143
:100580001B01EA016115710519F0FB01918380835C
:10059000209749F0CE010297839728F020E030E0C1
:1005A00040E050E0F6C0F801A1908F018A2D90E064
:1005B0000E94D625892BB9F7FDE2AF1631F4F80178
:1005C000A1908F015524539407C0FBE2AF1619F494
:1005D000F801A1908F015524209719F0C031D10561
:1005E000C1F4F0E3AF1679F4F8018081883711F097
:1005F000883549F4F801A1800E5F1F4FF2E05F2AB1
:10060000C0E1D0E006C0209721F480E3A816E9F409
:1006100027C0C830D10531F1C930D10524F4C2302A
:10062000D10531F50CC0CA30D10589F0C031D105F2
:10063000F9F4C12CD12CE12CB8E0FB2E28C0C12C40
:10064000D12CE12CA0E4FA2E22C0CAE0D0E0FCECD0
:10065000CF2EFCECDF2EFCECEF2EFCE0FF2E17C0C3
:10066000C8E0D0E0C12CD12CE12CE0E1FE2E0FC07F
:100670009E01442737FD4095542F60E070E080E0F4
:1006800090E80E947F25C901DA016C017D0120E01C
:1006900030E040E050E060E03E01882477FC809448
:1006A000982C70EDB72EBA0CE9E0EB1570F48A2D9A
:1006B00081548A3118F499ECB92E06C08A2D8156DE
:1006C0008A3150F589EAB82EBA0C8B2D90E08C1740
:1006D0009D0714F56F3FE1F0C216D306E406F50658
:1006E000B0F0CA01B901A40193010E944D259B01FC
:1006F000AC012B0D311D411D511D2130F0E03F0794
:10070000F0E04F07F0E85F0710F461E001C06FEF21
:10071000F801A1908F01C5CF2114310481F0662327
:1007200031F001501040F1011183008308C051FEE7
:100730001AC002501040F1011183008314C067FFFA
:1007400012C050FC05C02FEF3FEF4FEF5FE704C032
:1007500020E030E040E050E882E290E09093AE0884
:100760008093AD0816C050FE08C050954095309556
:1007700021953F4F4F4F5F4F0CC057FF0AC082E299
:1007800090E09093AE088093AD082FEF3FEF4FEFCE
:100790005FE7B901CA01DF91CF911F910F91FF90DF
:1007A000EF90DF90CF90BF90AF909F908F907F9011
:1007B0006F905F903F902F900895FB01DC014150B6
:1007C000504088F08D9181341CF08B350CF4805EA4
:1007D000659161341CF06B350CF4605E861B611111
:1007E00071F3990B0895881BFCCF2F923F924F9283
:1007F0005F926F927F928F929F92AF92BF92CF92B1
:10080000DF92EF92FF920F931F93DF93CF93CDB7B9
:10081000DEB72E970FB6F894DEBF0FBECDBF9E8712
:100820008D878B017A01FB016081718182819381C7
:10083000FA0120813181428153810E9485245B012C
:100840006C01F8016481758186819781F7012481AB
:100850003581468157810E9485243B014C01F80176
:100860006085718582859385F70120853185428574
:1008700053850E9485241B012C01F8016485758530
:1008800086859785F70124853585468557850E949D
:10089000852469877A878B879C87F80160897189AD
:1008A00082899389F70120893189428953890E947D
:1008B00085247B018C01C601B50120E030E040E0D9
:1008C00050E00E94812488234CF0C601B50120E04D
:1008D00030E040E05FE30E94CE2208C0C601B501CF
:1008E00020E030E040E05FE30E94CD220E949E23A2
:1008F00069837A838B839C83C401B30120E030E059
:1009000040E050E00E94812488234CF0C401B301F0
:1009100020E030E040E05FE30E94CE2208C0C40146
:10092000B30120E030E040E05FE30E94CD220E946E
:100930009E236D837E838F839887C201B10120E05F
:1009400030E040E050E00E94812488234CF0C20156
:10095000B10120E030E040E05FE30E94CE2208C019
:10096000C201B10120E030E040E05FE30E94CD220F
:100970000E949E233B014C0169857A858B859C856D
:1009800020E030E040E050E00E94812488235CF0C9
:1009900069857A858B859C8520E030E040E05FE3C7
:1009A0000E94CE220AC069857A858B859C8520E0CD
:1009B00030E040E05FE30E94CD220E949E235B0175
:1009C0006C01C801B70120E030E040E050E00E9437
:1009D000812488234CF0C801B70120E030E040E0DA
:1009E0005FE30E94CE2208C0C801B70120E030E0DA
:1009F00040E05FE30E94CD220E949E2329813A813C
:100A00004B815C81ED85FE85208331834283538356
:100A10002D813E814F8158852483358346835783BA
:100A20006086718682869386A486B586C686D786BA
:100A3000608B718B828B938BCF012E960FB6F894BF
:100A4000DEBF0FBECDBFCF91DF911F910F91FF9001
:100A5000EF90DF90CF90BF90AF909F908F907F905E
:100A60006F905F904F903F902F900895882321F4CE
:100A7000809181008B7F29C0813049F48091810071
:100A80008B7F8093810080918100826015C08230CD
:100A900049F4809181008B7F809381008091810057
:100AA000826018C0833071F48091810084608093EB
:100AB0008100809181008D7F8093810080918100F1
:100AC0008E7F0DC080918100846080938100809131
:100AD00081008D7F8093810080918100816080936F
:100AE00081000895E0E8F0E01082A1E8B0E01C92F7
:100AF0001092820010926F008C918F7E8C938C915B
:100B000088608C9380818D7F808380818E7F8083BD
:100B100080818F77808380818F7B808380818F7DB0
:100B2000808380818F7E808384E00E9436058FEFF2
:100B30009FEF90938900809388000895FC01808145
:100B40009181A281B381803020E0920721E0A20749
:100B500020E0B2070CF441C0893F2FEF920727E055
:100B6000A20720E0B20744F453E0B595A795979506
:100B700087955A95D1F731C0813C2FEF92072FE32B
:100B8000A20720E0B20744F446E0B595A7959795F3
:100B900087954A95D1F721C081302FEF92072FEF2B
:100BA000A20720E0B2073CF4892F9A2FAB2FBB2776
:100BB000A7FDBA9512C081302CEF92072FEFA20744
:100BC00023E0B2071CF0EFEFFFEF08C02AE0B59575
:100BD000A795979587952A95D1F7FC01CF010895A0
:100BE000EF92FF920F931F93DF93CF9300D000D02B
:100BF000CDB7DEB77B018C0164E0EE0CFF1C001F5B
:100C0000111F6A95D1F7E982FA820B831C83CE010A
:100C100001960E949E05909389008093880080E051
:100C2000E81680E0F80681E0080780E0180714F471
:100C300080E022C089EFE8168FEFF80687E008070A
:100C400080E0180714F481E017C081ECE8168FEFFC
:100C5000F8068FE3080780E0180714F482E00CC060
:100C600081E0E8168FEFF8068FEF080780E018079D
:100C700014F084E001C083E00E9436050F900F90CD
:100C80000F900F90CF91DF911F910F91FF90EF90F8
:100C90000895AF92BF92CF92DF92EF92FF920F939F
:100CA0001F93DF93CF9300D0CDB7DEB78C017B01CC
:100CB0006A015901BE016F5F7F4F4AE050E00E9418
:100CC000AE0229813A81201B310B121613065CF407
:100CD000F70171836083F601808191818A299B29C4
:100CE0009183808303C0F70111821082C9010F90A4
:100CF0000F90CF91DF911F910F91FF90EF90DF90B8
:100D0000CF90BF90AF900895AF92BF92CF92DF92F5
:100D1000EF92FF920F931F93DF93CF9300D0CDB745
:100D2000DEB78C017B016A015901BE016F5F7F4F05
:100D30000E944E0129813A81201B310B12161306A5
:100D40006CF4F7016083718382839383F601808161
:100D500091818A299B299183808309C080E090E05A
:100D6000A0E0B0E0F70180839183A283B383C9013F
:100D70000F900F90CF91DF911F910F91FF90EF9007
:100D8000DF90CF90BF90AF9008952F923F924F92F7
:100D90005F926F927F928F929F92AF92BF92CF920B
:100DA000DF92EF92FF920F931F93DF93CF93CDB714
:100DB000DEB764970FB6F894DEBF0FBECDBF8B01D0
:100DC0005A8B498BFC01119211926F017C019C019D
:100DD0002C5F3F4F388B2F87FC013696FE87ED87BF
:100DE0009C01285D3F4F3C872B87FC013896FA8792
:100DF000E9879C01245F3F4F38872F83FC01709661
:100E0000FE83ED839C012C5E3F4F3C832B83FC01D2
:100E10007C96FA83E983B0E22B2E312C280E391E02
:100E2000A4E24A2E512C480E591EFCE26F2E712C62
:100E3000680E791EE0E38E2E912C880E991E78E1C3
:100E4000A72EB12CA80EB91E1C8A1B8ACCC0EB8918
:100E5000FC89E00FF11FE081E03509F456C0E1356F
:100E600094F4E73441F1E83434F4E53409F4A9C0EA
:100E7000E634F1F48BC0EA3409F47EC0ED3429F194
:100E8000E934B1F46EC0E43569F1E5354CF4E2358E
:100E900009F486C08B899C890196E33574F58AC074
:100EA000E93509F448C0EA3509F450C0E835C1F124
:100EB00080E090E091C08B899C890196800F911F02
:100EC000B601A70121E030E00AC08B899C89019618
:100ED000800F911F6F857889A70122E030E00E9482
:100EE00049067AC08B899C890196800F911F6D8578
:100EF0007E85A70120E030E4F2CF800F911F6B8543
:100F00007C85A70120E034E065C08B899C8901962F
:100F1000800F911F69857A85A70124E030E05AC0CF
:100F20008B899C890196800F911F6F817885A7011D
:100F300028E030E04FC08B899C890196800F911F7B
:100F40006D817E81A70120E130E044C08B899C89BE
:100F50000196800F911F6B817C81A70120E230E018
:100F600039C08B899C890196800F911F69817A8194
:100F7000A70120E430E02EC08B899C890196800F68
:100F8000911FB101A70120E830E024C08B899C8922
:100F90000196800F911FB201A70120E032E01AC034
:100FA0008B899C890196800F911FB301A70120E0D6
:100FB00030E110C0800F911FB401A70120E038E09C
:100FC00009C08B899C890196800F911FB501A701EB
:100FD00020E030E20E94840601962B893C89280F8C
:100FE000391F3C8B2B8B8B899C89E989FA898E1759
:100FF0009F070CF42CCF64960FB6F894DEBF0FBE9B
:10100000CDBFCF91DF911F910F91FF90EF90DF90B7
:10101000CF90BF90AF909F908F907F906F905F9098
:101020004F903F902F900895EF92FF920F931F9350
:101030007C01FC0185890E943E1C8C01F701858999
:101040000E943E1C080F191FF70185890E943E1C53
:10105000800F911F63E070E00E946C25CB011F910F
:101060000F91FF90EF900895CF93DF930E941408A3
:10107000AC01E6E2F2E0C1E0D0E0608171814617A8
:1010800057075CF5FE013197EE0FFF1FEE0FFF1FB4
:10109000DF01AE5DBD4F2D913C91EC5DFD4F0190A8
:1010A000F081E02D421B530BCC0FDD1FCC0FDD1F59
:1010B000CC5DDD4F888199818E1B9F0B621B730B6A
:1010C0009C01429FC001439F900D529F900D11249F
:1010D0000E946C256E0F7F1F10C09E012F5F21960E
:1010E0003496C431D10549F6243119F060E070E03E
:1010F0000BC060917002709171026F3F710521F019
:101100001CF06FEF70E004C077FF02C060E070E099
:10111000CB01DF91CF910895CF93DF93EC010E9433
:1011200034089C0189819A812817390714F46E814B
:1011300008C08B819C812817390714F060E001C03A
:101140006D818F81861729F06F838B8970E00E94F3
:101150006E1CDF91CF91089580918202909183025D
:101160000E948C080895CF93DF93EC011A860E94A9
:1011700034089C878B871DC00E94AC088A858F5FCE
:101180008A87853180F0CE010E9434089C019E87B9
:101190008D878B859C858217930714F081E014C09E
:1011A0003C872B871A8668EE73E080E090E00E940F
:1011B000A51BCE010E94340829813A812550304078
:1011C00082179307CCF280E0DF91CF910895FF92D0
:1011D0000F931F93CF93DF93EC01F62E8A010E94A9
:1011E000B308882371F081E698E060E072E00E9425
:1011F000B421CE010E943408BC0181E698E00E942F
:101200009D22F88A8E896F2D0E944A1D8F8961E088
:101210000E944A1DB801882777FD8095982F0E946B
:10122000A51B8F8960E00E944A1DDF91CF911F911D
:101230000F91FF90089588E160E00E944A1D8BE1C4
:1012400060E00E944A1D8EE160E00E944A1D089500
:10125000CF93DF93EC01C859DF4F88819981AA8130
:10126000BB81C856D0400097A105B10521F088E1A7
:1012700061E00E944A1DC459DF4F88819981AA818B
:10128000BB81CC56D0400097A105B10521F08BE180
:1012900061E00E944A1DC059DF4F88819981AA816F
:1012A000BB81C057D0400097A105B10521F08EE168
:1012B00061E00E944A1DCC58DF4F88819981AA8144
:1012C000BB810097A105B10571F0E0918402F0E0C7
:1012D000EE0FFF1FEE57FD4F0190F081E02D808D46
:1012E00061E00E944A1DDF91CF910895CF93DF9373
:1012F000EC01CA55DF4F8881C65AD040882309F0D7
:1013000054C060E0CC56DF4F8881C459D040882358
:1013100009F461E087E10E944A1D60E0CB56DF4F8F
:101320008881C559D040882309F461E08AE10E9490
:101330004A1D60E0CA56DF4F8881C659D0408823D5
:1013400009F461E08DE10E944A1DC956DF4F888192
:10135000C759D040E0918402882369F0F0E0EE0F95
:10136000FF1FEE57FD4F0190F081E02D81E0878750
:10137000818960E00BC0F0E0EE0FFF1FEE57FD4FDC
:101380000190F081E02D1786818961E00E944A1D5D
:10139000CE010E94280968EE73E080E090E00E9490
:1013A000F005C855DF4F81E08883DF91CF91089524
:1013B0006F927F928F92AF92CF92EF920F93DF93C3
:1013C000CF93CDB7DEB73C01862FF301618B428B03
:1013D000238B048BE58AC68AA78A808E61E00E94EF
:1013E0002A1DF301828961E00E942A1DF30183898D
:1013F00061E00E942A1DF301858960E00E942A1D98
:10140000F301868961E00E942A1DF301878961E06A
:101410000E942A1DF301818961E00E944A1DF301A7
:10142000838960E070E00E946E1CF301828960E0B5
:1014300070E00E946E1CF301868960E00E944A1DE4
:10144000F301878960E00E944A1DF301808D61E00D
:101450000E942A1DF301808D60E00E944A1DF30165
:10146000108280E485838FEF86831782108A81E063
:1014700087871282118280E090E06AE070E00E942B
:101480006C2574836383CF91DF910F91EF90CF90A0
:10149000AF908F907F906F9008950F931F938C0162
:1014A00008551F4FF801108202501040F8011082B9
:1014B0000251104081E0F8018193819381938193DF
:1014C0008F0180830859104080E090E0A0E0B0E0F8
:1014D000F801848B958BA68BB78B808F918FA28F11
:1014E000B38F848F958FA68FB78F80A391A3A2A36C
:1014F000B3A380E090E0AAE7B4E484A395A3A6A3F5
:10150000B7A386E161E00E942A1D87E161E00E94A5
:101510002A1D89E161E00E942A1D8AE161E00E94A2
:101520002A1D8CE161E00E942A1D8DE161E00E948C
:101530002A1D88E161E00E942A1D8BE161E00E9482
:101540002A1D8EE161E00E942A1DC8010E941B092C
:1015500082E060E00E942A1D82E160E00E942A1D74
:1015600084E160E00E942A1D83E060E00E942A1D61
:1015700083E160E00E942A1D85E160E00E942A1D4F
:1015800080E090E0A0E8B0E4F80180839183A2833A
:10159000B38384839583A683B78380E090E0A0EA39
:1015A000B3E480879187A287B38780E090E0A0E0D2
:1015B000BFE384879587A687B78780E090E0A0E89F
:1015C000BFE3808B918BA28BB38B1F910F910895FA
:1015D0008F92AF92CF92EF920F938BE893E060E2FD
:1015E0004FE129E008E0E3E0EE2ECC24CA94AA24DF
:1015F000AA9471E2872E0E94D80984EA93E00E949F
:101600004D0A8DE494E00E944D0A86EF94E00E941A
:101610004D0A8FE995E00E944D0A0F91EF90CF900F
:10162000AF908F9008951F93162F862F0E94D51D7F
:10163000892B11F420E007C0812F0E94D51D20E0E6
:10164000892B09F021E0822F1F910895AF92CF924C
:10165000DF92EF92FF920F931F93C016D106E2061E
:10166000F30611F490E006C0A110642F0E94130B42
:1016700091E09827892F1F910F91FF90EF90DF90B5
:10168000CF90AF9008952F923F924F925F926F92BA
:101690007F928F929F92AF92BF92CF92DF92EF9202
:1016A000FF920F931F93DF93CF93CDB7DEB7AC9725
:1016B0000FB6F894DEBF0FBECDBF88559F4FDC013B
:1016C0008C91A85AB040BCA7ABA7882309F4C9C322
:1016D000A05CBF4FBA83A983EBA5FCA5EC5AFF4FD2
:1016E000FC83EB832BA53CA52C563F4F3E832D83DB
:1016F0008BA59CA587569F4F98878F83ABA5BCA5CC
:10170000AC5BBF4FBA87A987EBA5FCA5E85AFF4F92
:10171000FC87EB872BA53CA52B563F4F3E872D879B
:101720008BA59CA586569F4F988B8F87ABA5BCA594
:10173000A85BBF4FBA8BA98BEBA5FCA5E45AFF4F62
:10174000FC8BEB8B2BA53CA52A563F4F3E8B2D8B5C
:101750008BA59CA585569F4F988F8F8B9CE4292E37
:10176000312CABA5BCA52A0E3B1EA05ABF4FBA8F89
:10177000A98FEBA5FCA5E956FF4FFC8FEB8F2BA59E
:101780003CA524563F4F3E8F2D8F80E5682E712C4F
:101790008BA59CA5680E791E8C599F4F98A38F8F9F
:1017A000ABA5BCA5A856BF4FBAA3A9A3EBA5FCA5A2
:1017B000E356FF4FFCA3EBA307EA802E912C2BA549
:1017C0003CA5820E931E28593F4F3EA32DA38BA507
:1017D0009CA584589F4F98A78FA31EE9412E512C9A
:1017E000ABA5BCA54A0E5B1EA459BF4FBAA7A9A7BB
:1017F000E981FA810081118122813381AB81BC8131
:10180000CD90DD90ED90FC908BA59CA562E043E02F
:10181000ED81FE81A0800E94260BAF81B8858C935C
:10182000E985FA850081118122813381AB85BC85F0
:10183000CD90DD90ED90FC908BA59CA562E143E1FD
:10184000ED85FE85A0800E94260BAF85B8898C931C
:10185000E989FA890081118122813381AB89BC89B0
:10186000CD90DD90ED90FC908BA59CA564E145E1C9
:10187000ED89FE89A0800E94260BAF89B88D8C93DC
:10188000F1010081118122813381A98DBA8DCD9022
:10189000DD90ED90FC908BA59CA56FEF4FEFEB8D4D
:1018A000FC8DA0800E94260BAD8DBE8D8C93F30124
:1018B0000081118122813381AF8DB8A1CD90DD905F
:1018C000ED90FC908BA59CA56FEF4FEFE9A1FAA1DD
:1018D000A0800E94260BABA1BCA18C93F4011082C6
:1018E000AF81B8858C91882309F45CC0EDA1FEA17D
:1018F00080819181A281B381EFA1F8A520813181FE
:1019000042815381820F931FA41FB51F808391834F
:10191000A283B383181619061A061B060CF042C0E0
:1019200086E161E00E944A1D85E090E00E94CF1BA5
:1019300086E160E00E944A1D81E0D4018C93EFA112
:10194000F8A580819181A281B381F201208131814A
:1019500042815381821B930BA40BB50BEFA1F8A519
:1019600080839183A283B383AD81BE818C91E98111
:10197000FA812081318142815381882349F02F5F90
:101980003F4F4F4F5F4F20833183428353830AC0C1
:101990002150304040405040E981FA81208331831A
:1019A00042835383AF85B8898C91882309F45AC048
:1019B0000BA51CA500581F4FE9A5FAA580819181B0
:1019C000A281B381F8012081318142815381820F4C
:1019D000931FA41FB51F80839183A283B38318161E
:1019E00019061A061B06F4F589E161E00E944A1DFA
:1019F00085E090E00E94CF1B89E160E00E944A1DD3
:101A000081E0D4018C93F80180819181A281B3811E
:101A1000F2012081318142815381821B930BA40BFF
:101A2000B50BF80180839183A283B383AD85BE8516
:101A30008C91882351F0E985FA8580819181A2817A
:101A4000B3810196A11DB11D09C0E985FA85808188
:101A50009181A281B3810197A109B109808391830A
:101A6000A283B383AF89B88D8C91882309F460C0B9
:101A70000BA51CA50C571F4FEBA5FCA5E059FF4F6C
:101A800080819181A281B381E057F040FCA7EBA750
:101A9000F8012081318142815381820F931FA41F5D
:101AA000B51F80839183A283B383181619061A0683
:101AB0001B06F4F58CE161E00E944A1D85E090E090
:101AC0000E94CF1B8CE160E00E944A1D81E0D4019E
:101AD0008C93F80180819181A281B381F2012081F0
:101AE000318142815381821B930BA40BB50BF8010A
:101AF00080839183A283B383AD89BE898C9188232F
:101B000051F0E989FA8980819181A281B38101969E
:101B1000A11DB11D09C0E989FA8980819181A28145
:101B2000B3810197A109B10980839183A283B38313
:101B3000AD8DBE8D8C91882309F46CC0B8E8EB2E76
:101B4000F12CEBA5FCA5EE0EFF1EEC58FF4F80819B
:101B50009181A281B381E457F040FCA7EBA7F70184
:101B60002081318142815381820F931FA41FB51FB1
:101B700080839183A283B383181619061A061B0665
:101B80000CF048C0E0918402F0E0EE0FFF1FEE572A
:101B9000FD4F00811181D80152968C9161E00E9425
:101BA0004A1D85E090E00E94CF1BF801828960E029
:101BB0000E944A1D81E0D4018C93F70180819181BC
:101BC000A281B381F2012081318142815381821B44
:101BD000930BA40BB50BF70180839183A283B3838E
:101BE000AB8DBC8D8C91882349F0F101808191816E
:101BF000A281B3810196A11DB11D08C0F1018081B0
:101C00009181A281B3810197A109B1098083918358
:101C1000A283B383ABA1BCA18C91882309F44AC0F1
:101C2000EBA5FCA5E457FF4F2BA53CA528583F4F3B
:101C3000D9012D913D914D915C911397A857B040DA
:101C4000BCA7ABA780819181A281B381280F391FE6
:101C50004A1F5B1F2083318342835383121613066E
:101C6000140615063CF5D201ED90FD900D911C91E6
:101C70002E193F09400B510B20833183428353833C
:101C8000E9A1FAA18081882349F0F3018081918143
:101C9000A281B3810196A11DB11D08C0F30180810D
:101CA0009181A281B3810197A109B10980839183B8
:101CB000A283B383D4018C91882309F487C0EBA558
:101CC000FCA5E057FF4F2081318142815381E059CB
:101CD000F040FCA7EBA78F010E551F4F22303105B6
:101CE000410551056CF0D3016D917D918D919C91D1
:101CF0000E944D25F80160837183828393830AC01B
:101D0000F30180819181A281B381F8018083918365
:101D1000A283B383ABA5BCA5DC966D917D918D911B
:101D20009C91DF9720EC31EE44E65CE40E94852430
:101D30005B016C01EBA5FCA5EE55FF4F6081718145
:101D4000828193810E94D1237B018C01F201608109
:101D50007181828193810E94D1239B01AC01C801D2
:101D6000B7010E9485249B01AC01C601B5010E9408
:101D700036237B018C0120E030E040E050E00E94FF
:101D8000812488234CF0C801B70120E030E040E016
:101D90005FE30E94CE2208C0C801B70120E030E016
:101DA00040E05FE30E94CD220E949E232BA53CA52C
:101DB0002E553F4FD9016D937D938D939C9313972F
:101DC000A25AB040BCA7ABA70E94F005F4018081E5
:101DD000882331F4ABA1BCA18C91882309F008CDF4
:101DE000EBA5FCA5E756FF4F8081E959F040FCA721
:101DF000EBA7882319F5E656FF4F8081EA59F0409A
:101E0000FCA7EBA78823D1F4E556FF4F8081EB595F
:101E1000F040FCA7EBA7882389F4E456FF4F8081AC
:101E2000EC59F040FCA7EBA7882341F4E356FF4FA1
:101E30008081ED59F040FCA7EBA701C081E0EBA544
:101E4000FCA5E855FF4F80838081882351F48BA542
:101E50009CA50E941B0968EE73E080E090E00E9460
:101E6000F005AC960FB6F894DEBF0FBECDBFCF9194
:101E7000DF911F910F91FF90EF90DF90CF90BF9077
:101E8000AF909F908F907F906F905F904F903F901A
:101E90002F9008951F920F920FB60F920BB60F92CC
:101EA00011241F932F933F934F935F936F937F93CF
:101EB0008F939F93AF93BF93EF93FF9380916F00A6
:101EC0008D7F80936F00E0919802F0E0EE0FFF1F8E
:101ED000E157FD4F0190F081E02DE855FF4F8081E3
:101EE000882361F0E0919802F0E0EE0FFF1FE157C8
:101EF000FD4F808191810E94430B22C090919802F6
:101F0000809197029817A9F5E0919802F0E0EE0F02
:101F1000FF1FE157FD4F0190F081E02DE855FF4F85
:101F20008081882331F50CC0E12FF0E0EE0FFF1F18
:101F3000E157FD4F808191810E94760910939802AC
:101F400080916F00826080936F00FF91EF91BF914D
:101F5000AF919F918F917F916F915F914F913F9141
:101F60002F911F910F900BBE0F900FBE0F901F90DF
:101F70001895109198021F5F1430B0F210E0D4CF82
:101F80002F923F924F925F926F927F928F929F9289
:101F9000AF92BF92CF92DF92EF92FF920F931F9377
:101FA000DF93CF93CDB7DEB7A4970FB6F894DEBF1B
:101FB0000FBECDBF2C01362E272EDC015496862F66
:101FC000972F9C01F90184E101900D928150E1F776
:101FD00026EA30E0420E531ED2011C92EAE5FFEFE2
:101FE0004E0E5F1ED20154966D917D918D919C9104
:101FF00057972091990230919A0240919B025091FB
:102000009C020E94CD225B016C01E894D7F8F2019A
:10201000608D718D828D938D20919D0230919E02F5
:1020200040919F025091A0020E94CD227B018C0121
:10203000E89417F9D2015C966D917D918D919C91F8
:102040005F972091A1023091A2024091A30250918A
:10205000A4020E94CD223B014C01E89497F8F201C2
:1020600060A171A182A193A12091A5023091A60245
:102070004091A7025091A8020E94CD229B01AC0181
:102080005F772D8F3E8F4F8F58A3D20194966D911D
:102090007D918D919C9197972091A9023091AA02F0
:1020A0004091AB025091AC020E94CD229B01AC0149
:1020B0005F7729A33AA34BA35CA3D201D8962D93B3
:1020C0003D934D935C93DB972D8D3E8D4F8D58A1A5
:1020D000D4962D933D934D935C93D797F20160AACC
:1020E00071AA82AA93AA9C96ED92FD920D931C93DD
:1020F0009F97A0A6B1A6C2A6D3A6C601B501A60108
:1021000095010E9485245B016C01C801B701A801FB
:1021100097010E9485249B01AC01C601B5010E9474
:10212000CE227B018C01C401B301A40193010E9462
:1021300085249B01AC01C801B7010E94CE22D201C7
:10214000DC966D937D938D939C93DF9720E030E038
:1021500040E050E00E94322318166CF06D8D7E8DA9
:102160008F8D98A19B01AC010E948524F20164AF80
:1021700075AF86AF97AFD201DC966D917D918D9151
:102180009C91DF9720E030E040E050E00E94322355
:1021900018166CF069A17AA18BA19CA19B01AC01DE
:1021A0000E948524F20164AF75AF86AF97AFD2016C
:1021B000DC966D917D918D919C91DF970E94EC242E
:1021C000F20164AF75AF86AF97AFF42CE52C8E01AA
:1021D0000F5F1F4FC801B20149E952E00E94F503A9
:1021E000D201A05CBF4FF80184E101900D928150B3
:1021F000E1F724E130E0420E531E8E010F5F1F4FC6
:10220000C8016F2D7E2DA2010E94F50340E450E02D
:10221000440E551ED2016CEA7FEF460E571EF801A0
:1022200084E101900D928150E1F7F201EC5AFF4FE9
:1022300080E490E0480E591E208131814281538113
:102240002D8B3E8B4F8B588FF20180819181A28123
:10225000B38120EC3FEF420E531E4D895E896F899A
:10226000788D481B590B6A0B7B0B4D8B5E8B6F8BEC
:10227000788F77FF0BC070956095509541955F4FB3
:102280006F4F7F4F4D8B5E8B6F8B788FF201E85ACB
:10229000FF4F64E470E0460E571EE080F18002813B
:1022A0001381F20180819181A281B3812CEB3FEFF8
:1022B000420E531EE81AF90A0A0B1B0B17FF08C03F
:1022C00010950095F094E094E11CF11C011D111D86
:1022D000F201E45AFF4F48E450E0440E551E60817D
:1022E000718182819381698F7A8F8B8F9C8FF201AC
:1022F00080819181A281B38128EB3FEF420E531E72
:10230000498D5A8D6B8D7C8D481B590B6A0B7B0B4D
:10231000498F5A8F6B8F7C8F77FF0BC070956095BC
:10232000509541955F4F6F4F7F4F498F5A8F6B8FFD
:102330007C8FF201E05AFF4F6CE470E0460E571EAE
:1023400080809180A280B380F20180819181A281FE
:10235000B38124EB3FEF420E531E881A990AAA0A52
:10236000BB0AB7FE08C0B094A09490948094811CDE
:10237000911CA11CB11CB20168587F4FF201EC59AD
:10238000FF4F40E550E0440E551E208131814281CF
:102390005381F20180819181A281B381E0EBFFEF53
:1023A0004E0E5F1E281B390B4A0B5B0B57FF07C0F5
:1023B00050954095309521953F4F4F4F5F4FDB0132
:1023C0002D933D934D935C931397E4E7F0E04E0E0D
:1023D0005F1ED2018D929D92AD92BC921397298D72
:1023E0003A8D4B8D5C8D5E934E933E932E93FD0103
:1023F00012930293F292E292DF012D893E894F8976
:10240000588D5E934E933E932E932D01E8E9FFEF96
:102410004E0E5F1EDA01C9012E153F054007510718
:1024200014F4D801C7012EE930E0420E531EF20128
:1024300080839183A283B38322ED3FEF420E531E2C
:10244000F201208131814281538160E97FEF460EA4
:10245000571E82179307A407B50714F4DA01C901C0
:10246000EEE9F0E04E0E5F1EF20180839183A283BD
:10247000B38326ED3FEF420E531EF20120813181DE
:10248000428153816CE87FEF460E571E82179307F7
:10249000A407B50714F4DA01C901EEE9F0E04E0E25
:1024A0005F1EF20180839183A283B38322E63FEF14
:1024B000420E531E0097A105B10599F446EA50E07B
:1024C000440E551E81E0D2018C93A9E9B2E0232D80
:1024D000322DC901FC0184E101900D928150E1F798
:1024E000A1C1B20168587F4FF201EC59FF4F20E5BE
:1024F00030E0420E531E2081318142815381F2012E
:1025000080819181A281B381E0EBFFEF4E0E5F1ECF
:10251000281B390B4A0B5B0B57FF07C050954095A2
:10252000309521953F4F4F4F5F4FDB012D933D93EA
:102530004D935C93139770E9C72ED12CC40CD51C16
:1025400021E030E040E050E0D6012D933D934D93E3
:102550005C931397E8E7F0E04E0E5F1ED201ED901A
:10256000FD900D911C91E8E8FFEF4E0E5F1E6EE9A5
:10257000662E712C640C751CD3012D913D914D91EB
:102580005C912E153F05400751070CF075C0C8013E
:10259000B7010E94A12549015A01F601808291826A
:1025A000A282B382F3E08F169104A104B1040CF46B
:1025B00054C082010C591F4FD8016D917D918D91AE
:1025C0009C91A50194010E94A12569017A01F8015D
:1025D00020833183428353838201005B1F4FD801E4
:1025E0006D917D918D919C91A50194010E94A125F1
:1025F000C901DA01F80180839183A283B383A70123
:102600009601281B390B4A0B5B0B57FF07C05095EF
:102610004095309521953F4F4F4F5F4F68E770E0F1
:10262000460E571ED2012D933D934D935C93139705
:10263000E8E8FFEF4E0E5F1EF201E256FF4F808189
:102640009181A281B38182179307A407B507A4F4EF
:1026500020833183428353830FC021E030E040E088
:1026600050E0D6012D933D934D935C931397F30166
:10267000E082F1820283138382010C561F4FFF24F4
:10268000D20154966D917D918D919C915797209197
:10269000990230919A0240919B0250919C020E94B3
:1026A0008124882314F0FF24F394F801F08282013E
:1026B0000B561F4FFF24D20158966D917D918D913D
:1026C0009C915B9720919D0230919E0240919F02C8
:1026D0005091A0020E948124882314F0FF24F394D7
:1026E000F801F08282010A561F4FFF24D2015C9646
:1026F0006D917D918D919C915F972091A102309178
:10270000A2024091A3025091A4020E948124882336
:1027100014F0FF24F394F801F082820109561F4F50
:10272000FF24D20190966D917D918D919C9193970C
:102730002091A5023091A6024091A7025091A802D3
:102740000E948124882314F0FF24F394F801F0827E
:10275000820108561F4FFF24D20194966D917D91FE
:102760008D919C9197972091A9023091AA02409156
:10277000AB025091AC020E948124882314F0FF2404
:10278000F394F801F0822EE930E0420E531ED2019C
:102790006D917D918D919C91E2E6FFEF4E0E5F1E53
:1027A00022E030E040E050E00E94A12550954095A5
:1027B000309521953F4F4F4F5F4FD201A458BF4FE7
:1027C0002C9311963C93119712964C931297139653
:1027D0005C931397F201E058FF4F208331834283CB
:1027E000538324E830E0420E531E8D919D910D904D
:1027F000BC91A02DF20181939193A193B193819308
:102800009193A193B19380839183A283B383A9E928
:10281000B2E0232D322DC901FC0184E101900D921B
:102820008150E1F7A4960FB6F894DEBF0FBECDBF7E
:10283000CF91DF911F910F91FF90EF90DF90CF909C
:10284000BF90AF909F908F907F906F905F904F90D0
:102850003F902F9008951F93CF93DF93EC0106C014
:1028600061E070E080E090E00E94A51B80919802FA
:10287000882329F480919702833059F4F1CF209175
:1028800097028091980230E090E00197281739076D
:1028900039F3109197021F5F143008F010E0E12F18
:1028A000F0E0EE0FFF1FE157FD4F80819181BE01E7
:1028B0000E94C00F10939702DF91CF911F9108954E
:1028C000CF93DF93EC019B01A3E4B3E0E9E9F2E0ED
:1028D00084E101900D928150E1F788819981AA816C
:1028E000BB818093430390934403A0934503B0932B
:1028F0004603F90180819181A281B38180935303C2
:1029000090935403A0935503B093560383E493E04C
:102910000E942B14DF91CF910895CF93DF93EC01A8
:102920009B01A3E4B3E0E9E9F2E084E101900D92B8
:102930008150E1F788819981AA81BB818093470307
:1029400090934803A0934903B0934A03F90180810F
:102950009181A281B3818093530390935403A093F8
:102960005503B093560383E493E00E942B14DF9148
:10297000CF910895CF93DF93EC019B01A3E4B3E0E3
:10298000E9E9F2E084E101900D928150E1F788815C
:102990009981AA81BB8180934B0390934C03A093B0
:1029A0004D03B0934E03F90180819181A281B381DF
:1029B0008093530390935403A0935503B09356030D
:1029C00083E493E00E942B14DF91CF9108954F92FE
:1029D0005F926F927F928F929F92AF92BF92CF92AF
:1029E000DF92EF92FF920F931F93DF93CF93CDB7B8
:1029F000DEB7C056D0400FB6F894DEBF0FBECDBFD5
:102A0000FC01AB0180818F3209F450C580E090E079
:102A1000A0E0B0E080932F0390933003A0933103A4
:102A2000B09332038093330390933403A093350320
:102A3000B09336038093370390933803A093390300
:102A4000B0933A0380933B0390933C03A0933D03E0
:102A5000B0933E0380933F0390934003A0934103C0
:102A6000B093420387E593E0BF010E94C506209121
:102A7000570330915803C90183709074892B91F4E6
:102A80002115310579F0809173029091740297FDC0
:102A900009C090935A0380935903216030935803DF
:102AA00020935703009157031091580300FFF0C380
:102AB0008091590390915A0390937402809373020A
:102AC000AFE2B3E0E9E9F2E084E101900D928150D8
:102AD000E1F780917502980128703070882309F41D
:102AE00049C0232B81F08091630390916403A091EE
:102AF0006503B091660380932F0390933003A093F6
:102B00003103B093320304FF10C0809167039091AA
:102B10006803A0916903B0916A0380933303909393
:102B20003403A0933503B093360305FF10C08091A2
:102B30006B0390916C03A0916D03B0916E03809331
:102B4000370390933803A0933903B0933A0315FFEA
:102B500081C080916F0390917003A0917103B09137
:102B6000720380933B0390933C03A0933D03B09387
:102B70003E0370C0232BD1F060912F03709130037E
:102B8000809131039091320320916303309164036B
:102B900040916503509166030E94CE2260932F03FB
:102BA00070933003809331039093320304FF1AC073
:102BB0006091330370913403809135039091360313
:102BC00020916703309168034091690350916A0333
:102BD0000E94CE22609333037093340380933503B5
:102BE0009093360305FF1AC0609137037091380344
:102BF0008091390390913A0320916B0330916C03DB
:102C000040916D0350916E030E94CE226093370372
:102C1000709338038093390390933A0315FF1AC0D9
:102C200060913B0370913C0380913D0390913E0382
:102C300020916F03309170034091710350917203A2
:102C40000E94CE2260933B0370933C0380933D032C
:102C500090933E0311FF10C080917B0390917C0301
:102C6000A0917D03B0917E0380933F039093400336
:102C7000A0934103B09342038091590390915A036A
:102C80008130910539F18C31910549F1892B09F099
:102C90001BC2E0903F03F09040030091410310916C
:102CA000420380E090E8ABEBB4E480933F03909361
:102CB0004003A0934103B09342038FE293E00E944C
:102CC0002B14E0923F03F0924003009341031093D2
:102CD0004203ECC38FE293E00E942B14E7C30F2E54
:102CE000F0E06F2EF0E07F2EFAE78F2EF4E49F2EB7
:102CF000F02D6092A9027092AA028092AB0290928B
:102D0000AC026091990270919A0280919B0290911D
:102D10009C0220E030E040EA50E40E94CD2269832A
:102D20007A838B839C830F2EF0E0EF2EF0E8FF2E4A
:102D3000FBEB0F2FF4E41F2FF02DED82FE820F83AB
:102D40001887CE010196BE016B5F7F4F0E94601411
:102D50006091990270919A0280919B0290919C02DD
:102D600020E030E04AE753E40E94CD2269877A8769
:102D70008B879C87ED86FE860F87188BCE01099680
:102D8000BE01635F7F4F0E94601420E030E040E0AE
:102D900050E02093990230939A0240939B02509303
:102DA0009C026092A9027092AA028092AB02909259
:102DB000AC0280E090E0A0E8BFE3898B9A8BAB8BFC
:102DC000BC8B6D8A7E8A8F8A988ECE014196BE0119
:102DD0006B5E7F4F0E9460146091990270919A021D
:102DE00080919B0290919C0220E030E040E251E40F
:102DF0000E94CD22698F7A8F8B8F9C8F6D8E7E8EF5
:102E00008F8E98A2CE014996BE01635E7F4F0E94CD
:102E1000601420E030E040E050E0209399023093CD
:102E20009A0240939B0250939C0260919D02709184
:102E30009E0280919F029091A00220E030E040EA43
:102E400050E40E94CD2269A37AA38BA39CA3EDA298
:102E5000FEA20FA318A7CE018196BE016B5D7F4F26
:102E60000E948D1460919D0270919E0280919F023C
:102E70009091A00220E030E04AE753E40E94CD2286
:102E800069A77AA78BA79CA7EDA6FEA60FA718ABEC
:102E9000CE018996BE01635D7F4F0E948D1480E054
:102EA00090E0A0E0B0E080939D0290939E02A093FA
:102EB0009F02B093A0026092A9027092AA0280922F
:102EC000AB029092AC0220E030E040E85FE329AB37
:102ED0003AAB4BAB5CAB6DAA7EAA8FAA98AECE0183
:102EE000C196BE016B5C7F4F0E948D1460919D0264
:102EF00070919E0280919F029091A00220E030E0AC
:102F000040E251E40E94CD2269AF7AAF8BAF9CAF13
:102F1000FE01FD966082718282829382CE01C99603
:102F2000BF010E948D1480E090E0A0E0B0E08093AB
:102F30009D0290939E02A0939F02B093A0020F2E39
:102F4000F0E0AF2EF0E0BF2EF8ECCF2EF2E4DF2E53
:102F5000F02DA092A902B092AA02C092AB02D09228
:102F6000AC0251E4452E512C4C0E5D1E6091A10225
:102F70007091A2028091A3029091A40220E030E01F
:102F800040E05FE30E94CD22D2016D937D938D934B
:102F90009C931397FE01EB5BFF4F0F2EF0E0EF2E9B
:102FA000F0E0FF2EF6E10F2FF3E41F2FF02DE0826B
:102FB000F18202831383C201BF010E94BA1449E463
:102FC000442E512C4C0E5D1E6091A1027091A20204
:102FD0008091A3029091A40220E030E04AE753E4FC
:102FE0000E94CD22F2016083718382839383FE016C
:102FF000E35BFF4FE082F18202831383C201BF01D2
:103000000E94BA1420E030E040E050E02093A1029A
:103010003093A2024093A3025093A402A092A9026B
:10302000B092AA02C092AB02D092AC02DE01AF5ABB
:10303000BF4F20E030E040E85FE32D933D934D9398
:103040005C931397FE01EB5AFF4FA082B182C282BC
:10305000D382CD01BF010E94BA148E01075A1F4FBF
:103060006091A1027091A2028091A3029091A402AA
:1030700020E030E040E050E40E94CD22D8016D9382
:103080007D938D939C931397FE01E35AFF4FA0828B
:10309000B182C282D382C801BF010E94BA1420E06B
:1030A00030E040E050E02093A1023093A202409330
:1030B000A3025093A4026092A9027092AA02809285
:1030C000AB029092AC02F2C190919802809197026B
:1030D000981709F0D6C1E0919802F0E0EE0FFF1FBB
:1030E000E157FD4F0190F081E02DE855FF4F8081C1
:1030F000882309F0C6C18091590390915A03853104
:10310000910509F467C0863191053CF4843091053E
:1031100089F0449709F0A8C024C08B35910509F4C3
:1031200096C08C35910509F495C08A35910509F052
:103130009BC089C060915F037091600380916103BF
:103140009091620320E030E040E05FE30E94CE22F5
:103150000E949E23882777FD8095982F0E94A51BAB
:1031600097C0AFE8B2E023E333E34BEC52E40F2E19
:10317000F0E0AF2EF0E0BF2EFEEFCF2EF5E4DF2E15
:10318000F02D0F2EF3E3EF2EF3E3FF2EFBE40F2FD2
:10319000F1E41F2FF02D60E070E080E89FE3ED91F7
:1031A000FD91208331834283538324833583468377
:1031B0005783A086B186C286D386E486F5860687C5
:1031C0001787608B718B828B938BE2E0A739BE07E8
:1031D00031F75EC0AFE8B2E020E030E040E850E414
:1031E0000F2EF0E0AF2EF0E0BF2EF0EACF2EF3E48A
:1031F000DF2EF02D0F2EF0E0EF2EF0E0FF2EF0E0AE
:103200000F2FFFE31F2FF02D60E070E080E89FE3B9
:10321000ED91FD9120833183428353832483358351
:1032200046835783A086B186C286D386E486F58618
:1032300006871787608B718B828B938BF2E0A7399F
:10324000BF0731F725C081E08093750221C010923D
:1032500075021EC0A9E9B2E0EFE2F3E084E101905B
:103260000D928150E1F714C081E698E064E072E0CD
:103270000E94B4214091590350915A03662757FD8B
:103280006095762F81E698E02AE030E00E94C22225
:103290008091570381FFD3C090919802809197024B
:1032A000981709F0F5C0E0919802F0E0EE0FFF1FCB
:1032B000E157FD4F0190F081E02DE855FF4F8081EF
:1032C000882309F0E5C080915B0390915C038C3604
:1032D00091057CF48A3691050CF0B1C088369105D1
:1032E00089F0893691050CF040C0892B09F4A7C0FC
:1032F00092C08E37910509F44FC08F37910509F0C0
:103300008AC068C0809157039091580392FF97C07C
:10331000E0918402F0E0EE0FFF1FEE57FD4F0081B9
:10332000118160917F03709180038091810390915E
:1033300082030E949E239B01D80112967C936E9378
:1033400011978BE090E0FC012E9FC0012F9F900D04
:103350003E9F900D11246AE070E00E946C25D80118
:1033600014967C936E9313976AC081E698E06BE0A5
:1033700072E00E94B421E0918402F0E0EE0FFF1FA2
:10338000EE57FD4F808191810E943408BC0181E697
:1033900098E00E949D2253C0E0918402F0E0EE0F7D
:1033A000FF1FEE57FD4F0081118160915F03709107
:1033B0006003809161039091620320E030E040E07F
:1033C0005FE30E94CE220E949E239B01AC01C801B4
:1033D00061E01DC0E0918402F0E0EE0FFF1FEE57A8
:1033E000FD4F0081118160915F03709160038091B6
:1033F00061039091620320E030E040E05FE30E94CF
:10340000CE220E949E239B01AC01C80160E0A9016D
:103410000E94E70814C081E698E06EE072E00E9426
:10342000B42140915B0350915C03662757FD609582
:10343000762F81E698E02AE030E00E94C222809157
:1034400057039091580396FF31C090919802809154
:103450009702981721F5E0919802F0E0EE0FFF1F18
:10346000E157FD4F0190F081E02DE855FF4F80813D
:103470008823A9F4809184028823C1F010928402E9
:1034800015C061E070E080E090E00E94A51B1CCEBA
:1034900061E070E080E090E00E94A51BFDCE61E05D
:1034A00070E080E090E00E94A51BCFCFC05ADF4FB4
:1034B0000FB6F894DEBF0FBECDBFCF91DF911F9145
:1034C0000F91FF90EF90DF90CF90BF90AF909F90C3
:1034D0008F907F906F905F904F90089581E698E075
:1034E0000E945E20882311F181E698E00E947220FC
:1034F000809372028D3019F48AE080937202909169
:10350000720290329CF09B3319F481E080932E0379
:1035100080912E03882351F480912D03E82FF0E051
:10352000E355FD4F90838F5F80932D0380912D0392
:1035300087FF04C010922D0310922E0360912D037B
:10354000662351F1809172028A3031F570E0FB01FF
:10355000E355FD4F10828DEA92E00E94E71410922D
:103560002D0310922E0380918502882379F081E645
:1035700098E065E172E00E94B42181E698E065E898
:1035800072E00E94D32110928502089581E698E0AE
:1035900069E172E00E94D32108950E94AC080E9464
:1035A0006E1A0895EF92FF920F931F936FE6E62E27
:1035B000F12CF70180818D7F80830E94720510922B
:1035C00085028BE893E090938302809382021092AD
:1035D0008402109297021092980284EA93E09093EA
:1035E000900280938F028DE494E0909392028093F6
:1035F000910286EF94E090939402809393028FE976
:1036000095E0909396028093950210922D0310926C
:103610002E0380E090E0A0E0B0E0809399029093C8
:103620009A02A0939B02B0939C0280939D02909378
:103630009E02A0939F02B093A0028093A102909358
:10364000A202A093A302B093A4028093A502909338
:10365000A602A093A702B093A80280E090E0AAE798
:10366000B4E48093A9029093AA02A093AB02B09312
:10367000AC0201E618E0C80140E05BE460E070E005
:103680000E94651FC8016CE172E00E94D32168EEC0
:1036900073E080E090E00E94F005F7018081826095
:1036A00080831F910F91FF90EF9008950E94DD1B82
:1036B0000E94D21A0E94CD1AFDCF1F920F920FB610
:1036C0000F9211242F933F938F939F93AF93BF93A8
:1036D00080914C0690914D06A0914E06B0914F06F8
:1036E000309150060196A11DB11D232F2D5F2D375E
:1036F00020F02D570196A11DB11D209350068093F7
:103700004C0690934D06A0934E06B0934F068091C1
:10371000480690914906A0914A06B0914B06019641
:10372000A11DB11D8093480690934906A0934A06B7
:10373000B0934B06BF91AF919F918F913F912F9185
:103740000F900FBE0F901F901895EF92FF920F935E
:103750001F937B018C018FB7F89440914C065091D8
:103760004D0660914E0670914F068FBF2FB7F894AB
:1037700080914C0690914D06A0914E06B0914F0657
:103780002FBF841B950BA60BB70BE816F9060A078B
:103790001B0760F71F910F91FF90EF90089501971D
:1037A00059F0FC01EE0FFF1FEE0FFF1F32978FB78E
:1037B000F8943197F1F78FBF0895789484B58260BB
:1037C00084BD84B5816084BD85B5826085BD85B5C5
:1037D000816085BDEEE6F0E0808181608083E1E874
:1037E000F0E0808182608083808181608083E0E876
:1037F000F0E0808181608083E1EBF0E08081846093
:103800008083E0EBF0E0808181608083E1E9F0E09B
:10381000808182608083808181608083E1EAF0E042
:10382000808182608083808181608083E1E2F1E039
:10383000808182608083808181608083E0E9F0E024
:10384000808181608083E0EAF0E080818160808314
:10385000E0E2F1E0808181608083EAE7F0E080814E
:1038600084608083808182608083808181608083A6
:103870008081806880831092C1000895382F3F7046
:10388000209176022295220F220F207C232B209359
:103890007C0020917B0086958695869590E08170CE
:1038A000907033E0880F991F3A95E1F7277F282B16
:1038B00020937B0080917A00806480937A008091CD
:1038C0007A0086FDFCCF2091780040917900942FFA
:1038D00080E030E0282B392BC90108951F93CF9346
:1038E000DF93182FEB0161E00E942A1DE12FF0E029
:1038F000E254FE4F8491833051F4809180008068BF
:1039000080938000D0938900C09388009FC084304A
:1039100051F480918000806280938000D0938B006E
:10392000C0938A0093C0813041F4209709F487C086
:1039300084B5806884BDC7BD89C0823041F42097BA
:1039400009F47DC084B5806284BDC8BD7FC0863067
:1039500041F48091B00080688093B000C093B300C0
:1039600075C0873041F48091B00080628093B000D0
:10397000C093B4006BC0883051F48091900080688F
:1039800080939000D0939900C09398005FC08930D5
:1039900051F480919000806280939000D0939B00BE
:1039A000C0939A0053C08A3051F48091900088608F
:1039B00080939000D0939D00C0939C0047C08B30B3
:1039C00051F48091A00080688093A000D093A9005A
:1039D000C093A8003BC084918C3051F48091A0002A
:1039E00080628093A000D093AB00C093AA002EC049
:1039F0008D3051F48091A00088608093A000D09316
:103A0000AD00C093AC0022C08E3051F480912001F3
:103A1000806880932001D0932901C093280116C0AB
:103A20008F3051F480912001806280932001D093E7
:103A30002B01C0932A010AC0C038D1051CF4812F84
:103A400060E002C0812F61E00E944A1DDF91CF91AA
:103A50001F910895282F30E0C90188589E4FFC011E
:103A600094912E5C3E4FF9018491882391F0E82FC8
:103A7000F0E0EE0FFF1FEC51FF4FA591B4916623CC
:103A800029F48C91909589238C9308958C91892B9E
:103A90008C930895482F50E0CA0182549E4FFC0138
:103AA0002491CA0188589E4FFC0194914E5C5E4F50
:103AB000FA013491332309F477C0222309F462C058
:103AC000233021F4809180008F7705C0243031F4B9
:103AD000809180008F7D8093800054C0213019F444
:103AE00084B58F7704C0223021F484B58F7D84BDE6
:103AF00049C0263021F48091B0008F7705C027306F
:103B000031F48091B0008F7D8093B0003BC02830AD
:103B100021F4809190008F7705C0293031F4809195
:103B200090008F7D809390002DC02A3021F48091E9
:103B30009000877FF7CF2B3021F48091A0008F7702
:103B40000BC02C3021F48091A0008F7D05C02D305A
:103B500031F48091A000877F8093A00013C02E30A5
:103B600021F4809120018F770BC02F3021F48091B8
:103B700020018F7D05C0203129F480912001877FAD
:103B800080932001E32FF0E0EE0FFF1FE250FF4F84
:103B9000A591B491662329F48C91909589238C93F7
:103BA00008958C91892B8C930895682F70E0CB0138
:103BB00082549E4FFC012491CB0188589E4FFC01FA
:103BC00044916E5C7E4FFB019491992319F420E09F
:103BD00030E075C0222309F462C0233021F48091C3
:103BE00080008F7705C0243031F4809180008F7D74
:103BF0008093800054C0213019F484B58F7704C0BD
:103C0000223021F484B58F7D84BD49C0263021F453
:103C10008091B0008F7705C0273031F48091B000DB
:103C20008F7D8093B0003BC0283021F480919000BC
:103C30008F7705C0293031F4809190008F7D80937B
:103C400090002DC02A3021F480919000877FF7CF1B
:103C50002B3021F48091A0008F770BC02C3021F401
:103C60008091A0008F7D05C02D3031F48091A0009F
:103C7000877F8093A00013C02E3021F48091200113
:103C80008F770BC02F3021F4809120018F7D05C0EC
:103C9000203129F480912001877F80932001892F92
:103CA00090E0880F991F885E9E4FFC01A591B4910A
:103CB0008C9120E030E0842311F021E030E0C90154
:103CC00008951F920F920FB60F920BB60F92112408
:103CD0002F933F934F935F936F937F938F939F9314
:103CE000AF93BF93EF93FF934091C600E091D1064D
:103CF000F091D206CF01019660E870E00E946C2539
:103D00009C018091D3069091D4062817390739F089
:103D1000EF5AF94F40833093D2062093D106FF919A
:103D2000EF91BF91AF919F918F917F916F915F9133
:103D30004F913F912F910F900BBE0F900FBE0F90A0
:103D40001F9018951F920F920FB60F920BB60F92FD
:103D500011242F933F934F935F936F937F938F9390
:103D60009F93AF93BF93EF93FF934091CE00E09169
:103D70005507F0915607CF01019660E870E00E9468
:103D80006C259C0180915707909158072817390797
:103D900039F0EB52F94F4083309356072093550783
:103DA000FF91EF91BF91AF919F918F917F916F9113
:103DB0005F914F913F912F910F900BBE0F900FBECF
:103DC0000F901F9018951F920F920FB60F920BB67F
:103DD0000F9211242F933F934F935F936F937F9391
:103DE0008F939F93AF93BF93EF93FF934091D60030
:103DF000E091D907F091DA07CF01019660E870E011
:103E00000E946C259C018091DB079091DC072817AC
:103E1000390739F0E75AF84F40833093DA07209397
:103E2000D907FF91EF91BF91AF919F918F917F91B2
:103E30006F915F914F913F912F910F900BBE0F901B
:103E40000FBE0F901F9018951F920F920FB60F92F2
:103E50000BB60F9211242F933F934F935F936F9361
:103E60007F938F939F93AF93BF93EF93FF93409173
:103E70003601E0915D08F0915E08CF01019660E89F
:103E800070E00E946C259C0180915F089091600811
:103E90002817390739F0E352F84F408330935E0812
:103EA00020935D08FF91EF91BF91AF919F918F910A
:103EB0007F916F915F914F913F912F910F900BBE2A
:103EC0000F900FBE0F901F9018955F926F927F9288
:103ED0008F929F92AF92BF92CF92DF92EF92FF921A
:103EE0000F931F93CF93DF93EC013A014B014134C1
:103EF00082E458078FE0680780E078070CF07FC005
:103F000060E874E88EE190E0A40193010E94A1258D
:103F10002150304040405040CA01B90122E030E019
:103F200040E050E00E94A12559016A01A6019501D7
:103F3000209530954095509594E0220F331F441FF3
:103F4000551F9A95D1F760E074E284EF90E00E94EB
:103F5000A125CA01B9012FEF30E040E050E00E94F6
:103F60004D25A40193010E94A125C90181509F4FB5
:103F7000181619061CF4522E5A9403C05524539453
:103F8000521A60E079E08DE390E0A40193010E9471
:103F9000A1252150304040405040CA01B90122E0E3
:103FA00030E040E050E00E94A125209530954095FA
:103FB000509583E0220F331F441F551F8A95D1F778
:103FC00060E074E284EF90E00E94A125CA01B9018B
:103FD0002FEF30E040E050E00E944D25A401930116
:103FE0000E94A125C90181509F4F181619061CF483
:103FF000822F815002C081E0821B851500F5E88583
:10400000F98581E090E00A8802C0880F991F0A9420
:10401000E2F7808360E079E08DE390E0A401930112
:104020000E94A1252150304040405040CA01B901B2
:1040300022E030E040E050E00E94A12504C0E88585
:10404000F98510829501EC81FD813083EE81FF813D
:104050002083EA85FB85208141E050E0CA010E847F
:1040600002C0880F991F0A94E2F7282B2083EA8563
:10407000FB852081CA010F8402C0880F991F0A9412
:10408000E2F7282B2083EA85FB858081088802C01F
:10409000440F551F0A94E2F7842B8083DF91CF9160
:1040A0001F910F91FF90EF90DF90CF90BF90AF9056
:1040B0009F908F907F906F905F900895DC01129693
:1040C000ED91FC911397E058FF4F819191918058A9
:1040D0009F4F20813181821B930B60E870E00E942A
:1040E0006C250895CF93DF93DC011296ED91FC913E
:1040F0001397EF01CE57DF4F48815981E058FF4FAA
:1041000080819181E058F0408417950719F42FEFD2
:104110003FEF0CC0E40FF51F2081CA01019660E853
:1041200070E00E946C259983888330E0C901DF919B
:10413000CF910895FC01A085B18521898C9190E0F3
:10414000022E02C0959587950A94E2F780FFF6CF7C
:104150000484F585E02D608308952BE732E03093E9
:1041600062082093610881E596E09093640880934B
:10417000630885EC90E0909366088093650884EC72
:1041800090E0909368088093670880EC90E09093AB
:104190006A088093690881EC90E090936C088093A2
:1041A0006B0886EC90E090936E0880936D08E4E0D5
:1041B000E0936F0873E07093700867E06093710894
:1041C00055E05093720841E04093730830937508AE
:1041D0002093740885ED96E0909377088093760895
:1041E0008DEC90E090937908809378088CEC90E0C7
:1041F00090937B0880937A0888EC90E090937D08F8
:1042000080937C0889EC90E090937F0880937E08EF
:104210008EEC90E09093810880938008E093820870
:1042200070938308609384085093850840938608B0
:10423000309388082093870889E597E090938A084F
:104240008093890885ED90E090938C0880938B088B
:1042500084ED90E090938E0880938D0880ED90E03F
:104260009093900880938F0881ED90E0909392084E
:104270008093910886ED90E0909394088093930842
:10428000E093950870939608609397085093980868
:104290004093990830939B0820939A088DED97E0FE
:1042A00090939D0880939C0885E391E090939F08EC
:1042B00080939E0884E391E09093A1088093A008E6
:1042C00080E391E09093A3088093A20881E391E0BA
:1042D0009093A5088093A40886E391E09093A708A3
:1042E0008093A608E093A8087093A9086093AA0891
:1042F0005093AB084093AC0808950F931F93CF934E
:10430000DF938C01EB0109C02196D801ED91FC915E
:104310000190F081E02DC801099568816623A1F71D
:10432000DF91CF911F910F910895EF92FF920F931C
:104330001F93CF93DF938C017B01EA010CC0D7015F
:104340006D917D01D801ED91FC910190F081E02DFE
:10435000C80109952197209791F7DF91CF911F917F
:104360000F91FF90EF900895DC01ED91FC91028098
:10437000F381E02D099508950F931F938C01DC01C3
:10438000ED91FC910190F081E02D6DE00995D8014F
:10439000ED91FC910190F081E02DC8016AE0099552
:1043A0001F910F9108950F931F938C010E94B421C8
:1043B000C8010E94BC211F910F9108952F923F9236
:1043C0004F925F926F927F928F929F92AF92BF9225
:1043D000CF92DF92EF92FF920F931F93DF93CF93D1
:1043E000CDB7DEB7A0970FB6F894DEBF0FBECDBF36
:1043F0001C016A017B01411551056105710549F4F4
:10440000DC01ED91FC910190F081E02D60E30995D4
:1044100054C0882499245401422E552466247724BC
:1044200001E010E00C0F1D1F080D191DC701B6019A
:10443000A30192010E947F25F80160830894811CEA
:10444000911CA11CB11CC701B601A30192010E94DD
:104450007F25C901DA016C017D01C114D104E10499
:10446000F104F1F681E0E82EF12CEC0EFD1EE80CD3
:10447000F91C3E010894611C711CD501C40101970F
:10448000A109B1096C01C818D90814C0F601EE0DD4
:10449000FF1D60816A3010F4605D01C0695CD1016C
:1044A000ED91FC910190F081E02DC10109950894F6
:1044B000E108F1086E147F0449F7A0960FB6F8944E
:1044C000DEBF0FBECDBFCF91DF911F910F91FF9047
:1044D000EF90DF90CF90BF90AF909F908F907F90A4
:1044E0006F905F904F903F902F900895EF92FF92C2
:1044F0000F931F93CF93DF93EC017A018B0177FF2A
:104500000FC0E881F9810190F081E02D6DE20995FD
:1045100010950095F094E094E11CF11C011D111D13
:10452000CE01B801A7012AE00E94DE21DF91CF91E0
:104530001F910F91FF90EF9008950F931F938C019F
:10454000AB01662757FD6095762F0E947622C80141
:104550000E94BC211F910F910895DC0121153105A6
:1045600041F4ED91FC910190F081E02D642F0995CB
:1045700008952A30310519F40E94762208950E9488
:10458000DE2108950F931F938C010E94AD22C80174
:104590000E94BC211F910F9108955058BB27AA2754
:1045A0000ED075C166D130F06BD120F031F49F3F51
:1045B00011F41EF45BC10EF4E095E7FB51C1E92F45
:1045C00077D180F3BA17620773078407950718F04D
:1045D00071F49EF58FC10EF4E0950B2EBA2FA02D2D
:1045E0000B01B90190010C01CA01A0011124FF27A0
:1045F000591B99F0593F50F4503E68F11A16F0409B
:10460000A22F232F342F4427585FF3CF4695379599
:104610002795A795F0405395C9F77EF41F16BA0B5E
:10462000620B730B840BBAF09150A1F0FF0FBB1F0C
:10463000661F771F881FC2F70EC0BA0F621F731F55
:10464000841F48F4879577956795B795F7959E3FB2
:1046500008F0B3CF9395880F08F09927EE0F979540
:1046600087950895D9D008F481E008950CD00FC142
:1046700007D140F0FED030F021F45F3F19F0F0C0D8
:10468000511139C1F3C014D198F39923C9F35523BB
:10469000B1F3951B550BBB27AA2762177307840735
:1046A00038F09F5F5F4F220F331F441FAA1FA9F3EB
:1046B00033D00E2E3AF0E0E830D091505040E695DD
:1046C000001CCAF729D0FE2F27D0660F771F881F3E
:1046D000BB1F261737074807AB07B0E809F0BB0B2D
:1046E000802DBF01FF2793585F4F2AF09E3F510551
:1046F00068F0B6C000C15F3FECF3983EDCF38695EE
:1047000077956795B795F7959F5FC9F7880F911DC6
:104710009695879597F90895E1E0660F771F881FB2
:10472000BB1F621773078407BA0720F0621B730B65
:10473000840BBA0BEE1F88F7E095089504D06894B7
:10474000B111D9C00895BCD088F09F5790F0B92F0F
:104750009927B751A0F0D1F0660F771F881F991FD6
:104760001AF0BA95C9F712C0B13081F0C3D0B1E0E8
:104770000895C0C0672F782F8827B85F39F0B93FF8
:10478000CCF3869577956795B395D9F73EF49095D8
:104790008095709561957F4F8F4F9F4F0895E89456
:1047A00009C097FB3EF490958095709561957F4F79
:1047B0008F4F9F4F9923A9F0F92F96E9BB27939527
:1047C000F695879577956795B795F111F8CFFAF437
:1047D000BB0F11F460FF1BC06F5F7F4F8F4F9F4F68
:1047E00016C0882311F096E911C0772321F09EE8C6
:1047F000872F762F05C0662371F096E8862F70E02C
:1048000060E02AF09A95660F771F881FDAF7880F05
:104810009695879597F90895990F0008550FAA0B5B
:10482000E0E8FEEF16161706E807F907C0F01216C3
:104830001306E407F50798F0621B730B840B950BC6
:1048400039F40A2661F0232B242B252B21F408951B
:104850000A2609F4A140A6958FEF811D811D0895B8
:1048600097F99F6780E870E060E008959FEF80EC23
:10487000089500240A9416161706180609060895C6
:1048800000240A9412161306140605060895092E2C
:104890000394000C11F4882352F0BB0F40F4BF2B9B
:1048A00011F460FF04C06F5F7F4F8F4F9F4F0895DB
:1048B00057FD9058440F551F59F05F3F71F04795D1
:1048C000880F97FB991F61F09F3F79F087950895B6
:1048D000121613061406551FF2CF4695F1DF08C0D5
:1048E000161617061806991FF1CF869571056105F2
:1048F00008940895E894BB2766277727CB0197F99A
:1049000008958ADF08F48FEF08950BD0C0CFB1DF90
:1049100028F0B6DF18F0952309F0A2CFA7CF112415
:10492000EACFC6DFA0F3959FD1F3950F50E0551F56
:10493000629FF001729FBB27F00DB11D639FAA27F4
:10494000F00DB11DAA1F649F6627B00DA11D661F43
:10495000829F2227B00DA11D621F739FB00DA11D64
:10496000621F839FA00D611D221F749F3327A00D1E
:10497000611D231F849F600D211D822F762F6A2FBA
:1049800011249F5750408AF0E1F088234AF0EE0F3F
:10499000FF1FBB1F661F771F881F91505040A9F74C
:1049A0009E3F510570F05CCFA6CF5F3FECF3983E81
:1049B000DCF3869577956795B795F795E7959F5FB3
:1049C000C1F7FE2B880F911D9695879597F908954D
:1049D00011F40EF44BCF4AC073DFD0F39923D9F30F
:1049E000CEF39F57550B87FF51D056959795B0E062
:1049F00020F4660F771F881FBB1F1F930F9300249F
:104A00009001A0018001F001A0E80E0F1F1F0A1EF7
:104A1000511D601B710B8009B50B48F4600F711FAD
:104A2000801DB51F0E1B1F0B0A0A510907C02E0F50
:104A30003F1F4A1F0E0F1F1F0A1E511D660F771FB3
:104A4000881FBB1FA695F795E795F8F60617170779
:104A500008065B07211D311D411D0F911F91B901F2
:104A6000842F9158880F9695879508959F3F49F018
:104A7000915028F4869577956795B7959F5F803814
:104A80009F4F880F9695879597F9089591505040BC
:104A9000660F771F881FD2F70895629FD001739F1A
:104AA000F001829FE00DF11D649FE00DF11D929FCA
:104AB000F00D839FF00D749FF00D659FF00D992709
:104AC000729FB00DE11DF91F639FB00DE11DF91F2D
:104AD000BD01CF011124089597FB092E07260AD0A6
:104AE00077FD04D049D006D000201AF47095619566
:104AF0007F4F0895F6F7909581959F4F0895A1E215
:104B00001A2EAA1BBB1BFD010DC0AA1FBB1FEE1F47
:104B1000FF1FA217B307E407F50720F0A21BB30B92
:104B2000E40BF50B661F771F881F991F1A9469F70E
:104B300060957095809590959B01AC01BD01CF016A
:104B4000089597FB092E05260ED057FD04D0D7DF18
:104B50000AD0001C38F450954095309521953F4F70
:104B60004F4F5F4F0895F6F790958095709561953A
:104B70007F4F8F4F9F4F0895AA1BBB1B51E107C06A
:104B8000AA1FBB1FA617B70710F0A61BB70B881FDD
:104B9000991F5A95A9F780959095BC01CD0108956C
:104BA000EE0FFF1F0590F491E02D0994911106C0BE
:104BB000803219F089508550D0F7089599278827B9
:104BC00008952F923F924F925F926F927F928F92B1
:104BD0009F92AF92BF92CF92DF92EF92FF920F938C
:104BE0001F93CF93DF93CDB7DEB7CA1BDB0B0FB696
:104BF000F894DEBF0FBECDBF09942A883988488853
:104C00005F846E847D848C849B84AA84B984C884E8
:104C1000DF80EE80FD800C811B81AA81B981CE0FDF
:104C2000D11D0FB6F894DEBF0FBECDBFED010895C4
:044C3000F894FFCF26
:104C3400453A20006875683F204700543A0048759B
:104C4400683F204D006F6B20006F6B0073746172BE
:104C540074000A00F0003600D2006B00D100A000FE
:104C6400B800D500A6000A0199003F018E00740126
:104C74008400A9017C00DE01740013026C00480268
:104C840065007D025D00B2025600E7024E001C037F
:104C9400460051033D0086033200BB032200F003AB
:104CA40003003FFFFF0101000000009A207D2195D1
:024CB4002100DD
:00000001FF
