:100000000C9422010C944C010C944C010C944C0166
:100010000C944C010C944C010C944C010C944C012C
:100020000C944C010C944C010C944C010C944C011C
:100030000C944C010C944C010C944C010C944C010C
:100040000C944C010C94EA0F0C944C010C944C0150
:100050000C944C010C944C010C944C010C94621DBA
:100060000C944C010C9474200C944C010C944C0195
:100070000C944C010C944C010C944C010C944C01CC
:100080000C944C010C944C010C944C010C944C01BC
:100090000C94B5200C944C010C944C010C944C0124
:1000A0000C944C010C944C010C944C010C944C019C
:1000B0000C944C010C944C010C944C010C944C018C
:1000C0000C944C010C944C010C944C010C94F620B3
:1000D0000C944C010C944C010C9437210C944C0161
:1000E0000C944C0100002100240027002A002D0060
:1000F0003000330001010000040107010A01000083
:100100002200250028002B002E00310034000201BF
:100110000000050108010B0100002000230026005B
:1001200029002C002F00320000010000030106010D
:10013000090105050505070508080808020202026D
:100140000A0A080804040404010101010101010173
:100150000303030303030303040707070C0C0C0C3E
:100160000C0C0C0C02020202060606060606060627
:100170000B0B0B0B0B0B0B0B0102102020080810B4
:100180002040102040800201020108040201010207
:1001900004081020408080402010080402018004E0
:1001A000020180402010080402010804020101023B
:1001B0000408102040800102040810204080000044
:1001C000090A02080B0C0D070603040100000000D9
:1001D000000000000000000000000000000000001F
:1001E00000000000000000000000100F0E000000E2
:1001F00000000000000000000000000000000000FF
:1002000000000000494E46494E4954594E414ECDDA
:10021000CCCC3D0AD7233C17B7D13877CC2B3295BD
:1002200095E6241FB14F0A000020410000C842009B
:10023000401C4620BCBE4CCA1B0E5AAEC59D740065
:100240007C0BC02211241FBECFEFD1E2DEBFCDBF99
:1002500013E0A0E0B2E0EAE5F0E500E00BBF02C089
:1002600007900D92AE34B107D9F719E0AEE4B3E0D0
:1002700001C01D92A538B107E1F712E0C4E4D2E055
:1002800004C02297FE010E94E527C034D107C9F7B8
:100290000E945B1D0C942B280C940000A0E0B0E0A1
:1002A000E4E5F1E00C94FA27EC015B0161157105BE
:1002B00019F0FB0191838083F9908F2D90E00E94CB
:1002C000E927892BC9F7FDE2FF1621F4F990EE2406
:1002D000E39405C02BE2F21609F4F990EE248E01A6
:1002E00001501040C80164E072E043E050E00E9419
:1002F000DD03892B01F58E010E5F1F4FC80167E0FA
:1003000072E045E050E00E94DD03892B19F48E0174
:10031000095F1F4FA114B10419F0F5011183008387
:10032000E0FC04C070E090E080E814C070E090E071
:1003300080E86FEF08C1C8016CE072E043E050E074
:100340000E94DD03892B69F4A114B10429F470E043
:1003500090E080EC6FE7F7C02296F501D183C0836F
:10036000F6CF8824992440E050E060E070E0EF2D63
:10037000E053EA30A0F5F2E0EF2A8E2D90E09C01E8
:1003800028703070E2FE06C0232B79F50894811C9A
:10039000911C2BC0232B19F0089481089108DB01D4
:1003A000CA0112E0880F991FAA1FBB1F1A95D1F727
:1003B000480F591F6A1F7B1F440F551F661F771F69
:1003C0004E0F511D611D711D483929E9520729E958
:1003D000620729E1720748F084E0E82A06C0EE3F90
:1003E00031F4E3FC39C098E0E92AF990C0CFE53355
:1003F00011F0E53189F529912D3219F4E0E1EE2A69
:1004000005C02B3219F081E090E003C0299182E011
:1004100090E0E22FE053EA3018F0C81BD90B1CC063
:1004200020E030E0FCE020383F075CF4C901880F91
:10043000991F880F991F280F391F220F331F2E0F66
:10044000311DE991E053EA3068F3E4FE03C03095D2
:1004500021953F4F820E931ECE2CDD24E1FE07C076
:10046000A114B10421F02197F501D183C083CB0100
:10047000BA010E94E2257B018C01F3E0CF22DD244A
:1004800023E0C216D10421F417FB109517F910953B
:1004900057016801C801B70120E030E040E050E0BA
:1004A0000E944525882309F44AC097FE0DC023E227
:1004B000E22E22E0F22E9094819491089394C0E26F
:1004C000D0E000E010E012C09BE3E92E92E0F92EAC
:1004D000F6CFF7012591359145915491C601B501AB
:1004E0000E9498265B016C018C1A9D0A8C169D0651
:1004F00084F7D595C7950F5F1F4F0630110529F07A
:100500008CEF9FEFE80EF91EF1CFC501D6017C01FB
:100510008D018C2D880F8D2D881F8F3F51F0C601C6
:10052000B50120E030E040E050E00E9445258823FE
:1005300031F482E290E090938409809383097E2DC8
:100540009F2D802F612F272F392F482F562FB9012C
:10055000CA01CDB7DEB7ECE00C9416282F923F927B
:100560005F926F927F928F929F92AF92BF92CF9243
:10057000DF92EF92FF920F931F93CF93DF938C0143
:100580001B01EA016115710519F0FB01918380835C
:10059000209749F0CE010297839728F020E030E0C1
:1005A00040E050E0F6C0F801A1908F018A2D90E064
:1005B0000E94E927892BB9F7FDE2AF1631F4F80163
:1005C000A1908F015524539407C0FBE2AF1619F494
:1005D000F801A1908F015524209719F0C031D10561
:1005E000C1F4F0E3AF1679F4F8018081883711F097
:1005F000883549F4F801A1800E5F1F4FF2E05F2AB1
:10060000C0E1D0E006C0209721F480E3A816E9F409
:1006100027C0C830D10531F1C930D10524F4C2302A
:10062000D10531F50CC0CA30D10589F0C031D105F2
:10063000F9F4C12CD12CE12CB8E0FB2E28C0C12C40
:10064000D12CE12CA0E4FA2E22C0CAE0D0E0FCECD0
:10065000CF2EFCECDF2EFCECEF2EFCE0FF2E17C0C3
:10066000C8E0D0E0C12CD12CE12CE0E1FE2E0FC07F
:100670009E01442737FD4095542F60E070E080E0F4
:1006800090E80E949227C901DA016C017D0120E007
:1006900030E040E050E060E03E01882477FC809448
:1006A000982C70EDB72EBA0CE9E0EB1570F48A2D9A
:1006B00081548A3118F499ECB92E06C08A2D8156DE
:1006C0008A3150F589EAB82EBA0C8B2D90E08C1740
:1006D0009D0714F56F3FE1F0C216D306E406F50658
:1006E000B0F0CA01B901A40193010E9460279B01E7
:1006F000AC012B0D311D411D511D2130F0E03F0794
:10070000F0E04F07F0E85F0710F461E001C06FEF21
:10071000F801A1908F01C5CF2114310481F0662327
:1007200031F001501040F1011183008308C051FEE7
:100730001AC002501040F1011183008314C067FFFA
:1007400012C050FC05C02FEF3FEF4FEF5FE704C032
:1007500020E030E040E050E882E290E090938409AD
:100760008093830916C050FE08C05095409530957F
:1007700021953F4F4F4F5F4F0CC057FF0AC082E299
:1007800090E090938409809383092FEF3FEF4FEF20
:100790005FE7B901CA01DF91CF911F910F91FF90DF
:1007A000EF90DF90CF90BF90AF909F908F907F9011
:1007B0006F905F903F902F900895FB01DC014150B6
:1007C000504088F08D9181341CF08B350CF4805EA4
:1007D000659161341CF06B350CF4605E861B611111
:1007E00071F3990B0895881BFCCF2F923F924F9283
:1007F0005F926F927F928F929F92AF92BF92CF92B1
:10080000DF92EF92FF920F931F93DF93CF93CDB7B9
:10081000DEB72E970FB6F894DEBF0FBECDBF9E8712
:100820008D878B017A01FB016081718182819381C7
:10083000FA0120813181428153810E9498265B0117
:100840006C01F8016481758186819781F7012481AB
:100850003581468157810E9498263B014C01F80161
:100860006085718582859385F70120853185428574
:1008700053850E9498261B012C01F801648575851B
:1008800086859785F70124853585468557850E949D
:10089000982669877A878B879C87F8016089718998
:1008A00082899389F70120893189428953890E947D
:1008B00098267B018C01C601B50120E030E040E0C4
:1008C00050E00E94942688234CF0C601B50120E038
:1008D00030E040E05FE30E94E12408C0C601B501BA
:1008E00020E030E040E05FE30E94E0240E94B12578
:1008F00069837A838B839C83C401B30120E030E059
:1009000040E050E00E94942688234CF0C401B301DB
:1009100020E030E040E05FE30E94E12408C0C40131
:10092000B30120E030E040E05FE30E94E0240E9459
:10093000B1256D837E838F839887C201B10120E04A
:1009400030E040E050E00E94942688234CF0C20141
:10095000B10120E030E040E05FE30E94E12408C004
:10096000C201B10120E030E040E05FE30E94E024FA
:100970000E94B1253B014C0169857A858B859C8558
:1009800020E030E040E050E00E94942688235CF0B4
:1009900069857A858B859C8520E030E040E05FE3C7
:1009A0000E94E1240AC069857A858B859C8520E0B8
:1009B00030E040E05FE30E94E0240E94B1255B014B
:1009C0006C01C801B70120E030E040E050E00E9437
:1009D000942688234CF0C801B70120E030E040E0C5
:1009E0005FE30E94E12408C0C801B70120E030E0C5
:1009F00040E05FE30E94E0240E94B12529813A8112
:100A00004B815C81ED85FE85208331834283538356
:100A10002D813E814F8158852483358346835783BA
:100A20006086718682869386A486B586C686D786BA
:100A3000608B718B828B938BCF012E960FB6F894BF
:100A4000DEBF0FBECDBFCF91DF911F910F91FF9001
:100A5000EF90DF90CF90BF90AF909F908F907F905E
:100A60006F905F904F903F902F900895882321F4CE
:100A7000809181008B7F29C0813049F48091810071
:100A80008B7F8093810080918100826015C08230CD
:100A900049F4809181008B7F809381008091810057
:100AA000826018C0833071F48091810084608093EB
:100AB0008100809181008D7F8093810080918100F1
:100AC0008E7F0DC080918100846080938100809131
:100AD00081008D7F8093810080918100816080936F
:100AE00081000895E0E8F0E01082A1E8B0E01C92F7
:100AF0001092820010926F008C918F7E8C938C915B
:100B000088608C9380818D7F808380818E7F8083BD
:100B100080818F77808380818F7B808380818F7DB0
:100B2000808380818F7E808384E00E9436058FEFF2
:100B30009FEF90938900809388000895FC01808145
:100B40009181A281B381803020E0920721E0A20749
:100B500020E0B2070CF441C0893F2FEF920727E055
:100B6000A20720E0B20744F453E0B595A795979506
:100B700087955A95D1F731C0813C2FEF92072FE32B
:100B8000A20720E0B20744F446E0B595A7959795F3
:100B900087954A95D1F721C081302FEF92072FEF2B
:100BA000A20720E0B2073CF4892F9A2FAB2FBB2776
:100BB000A7FDBA9512C081302CEF92072FEFA20744
:100BC00023E0B2071CF0EFEFFFEF08C02AE0B59575
:100BD000A795979587952A95D1F7FC01CF010895A0
:100BE000EF92FF920F931F93DF93CF9300D000D02B
:100BF000CDB7DEB77B018C0164E0EE0CFF1C001F5B
:100C0000111F6A95D1F7E982FA820B831C83CE010A
:100C100001960E949E05909389008093880080E051
:100C2000E81680E0F80681E0080780E0180714F471
:100C300080E022C089EFE8168FEFF80687E008070A
:100C400080E0180714F481E017C081ECE8168FEFFC
:100C5000F8068FE3080780E0180714F482E00CC060
:100C600081E0E8168FEFF8068FEF080780E018079D
:100C700014F084E001C083E00E9436050F900F90CD
:100C80000F900F90CF91DF911F910F91FF90EF90F8
:100C90000895AF92BF92CF92DF92EF92FF920F939F
:100CA0001F93DF93CF9300D0CDB7DEB78C017B01CC
:100CB0006A015901BE016F5F7F4F4AE050E00E9418
:100CC000AE0229813A81201B310B121613065CF407
:100CD000F70171836083F601808191818A299B29C4
:100CE0009183808303C0F70111821082C9010F90A4
:100CF0000F90CF91DF911F910F91FF90EF90DF90B8
:100D0000CF90BF90AF900895AF92BF92CF92DF92F5
:100D1000EF92FF920F931F93DF93CF9300D0CDB745
:100D2000DEB78C017B016A015901BE016F5F7F4F05
:100D30000E944E0129813A81201B310B12161306A5
:100D40006CF4F7016083718382839383F601808161
:100D500091818A299B299183808309C080E090E05A
:100D6000A0E0B0E0F70180839183A283B383C9013F
:100D70000F900F90CF91DF911F910F91FF90EF9007
:100D8000DF90CF90BF90AF9008952F923F924F92F7
:100D90005F926F927F928F929F92AF92BF92CF920B
:100DA000DF92EF92FF920F931F93DF93CF93CDB714
:100DB000DEB764970FB6F894DEBF0FBECDBF8B01D0
:100DC0005A8B498BFC01119211926F017C019C019D
:100DD0002C5F3F4F388B2F87FC013696FE87ED87BF
:100DE0009C01285D3F4F3C872B87FC013896FA8792
:100DF000E9879C01245F3F4F38872F83FC01709661
:100E0000FE83ED839C012C5E3F4F3C832B83FC01D2
:100E10007C96FA83E983B0E22B2E312C280E391E02
:100E2000A4E24A2E512C480E591EFCE26F2E712C62
:100E3000680E791EE0E38E2E912C880E991E78E1C3
:100E4000A72EB12CA80EB91E1C8A1B8ACCC0EB8918
:100E5000FC89E00FF11FE081E03509F456C0E1356F
:100E600094F4E73441F1E83434F4E53409F4A9C0EA
:100E7000E634F1F48BC0EA3409F47EC0ED3429F194
:100E8000E934B1F46EC0E43569F1E5354CF4E2358E
:100E900009F486C08B899C890196E33574F58AC074
:100EA000E93509F448C0EA3509F450C0E835C1F124
:100EB00080E090E091C08B899C890196800F911F02
:100EC000B601A70121E030E00AC08B899C89019618
:100ED000800F911F6F857889A70122E030E00E9482
:100EE00049067AC08B899C890196800F911F6D8578
:100EF0007E85A70120E030E4F2CF800F911F6B8543
:100F00007C85A70120E034E065C08B899C8901962F
:100F1000800F911F69857A85A70124E030E05AC0CF
:100F20008B899C890196800F911F6F817885A7011D
:100F300028E030E04FC08B899C890196800F911F7B
:100F40006D817E81A70120E130E044C08B899C89BE
:100F50000196800F911F6B817C81A70120E230E018
:100F600039C08B899C890196800F911F69817A8194
:100F7000A70120E430E02EC08B899C890196800F68
:100F8000911FB101A70120E830E024C08B899C8922
:100F90000196800F911FB201A70120E032E01AC034
:100FA0008B899C890196800F911FB301A70120E0D6
:100FB00030E110C0800F911FB401A70120E038E09C
:100FC00009C08B899C890196800F911FB501A701EB
:100FD00020E030E20E94840601962B893C89280F8C
:100FE000391F3C8B2B8B8B899C89E989FA898E1759
:100FF0009F070CF42CCF64960FB6F894DEBF0FBE9B
:10100000CDBFCF91DF911F910F91FF90EF90DF90B7
:10101000CF90BF90AF909F908F907F906F905F9098
:101020004F903F902F90089588E160E00E945D1FEF
:101030008BE160E00E945D1F8EE160E00E945D1F19
:101040000895CF93DF93EC01C859DF4F88819981D0
:10105000AA81BB81C856D0400097A105B10521F0F7
:1010600088E161E00E945D1FC459DF4F888199814A
:10107000AA81BB81CC56D0400097A105B10521F0D3
:101080008BE161E00E945D1FC059DF4F888199812B
:10109000AA81BB81C057D0400097A105B10521F0BE
:1010A0008EE161E00E945D1FCC58DF4F88819981FD
:1010B000AA81BB810097A105B10589F0E091500399
:1010C000F0E0EE0FFF1FE25BFC4F0190F081E02D9E
:1010D000808D918D97FD03C061E00E945D1FDF91BF
:1010E000CF910895CF93DF93EC01CA55DF4F8881EC
:1010F000C65AD040882309F054C060E0CC56DF4F78
:101100008881C459D040882309F461E087E10E94B6
:101110005D1F60E0CB56DF4F8881C559D0408823E2
:1011200009F461E08AE10E945D1F60E0CA56DF4F6A
:101130008881C659D040882309F461E08DE10E947E
:101140005D1FC956DF4F8881C759D040E0915003D9
:10115000882361F0F0E0EE0FFF1FE25BFC4F01908F
:10116000F081E02D1586878560E00CC0F0E0EE0F81
:10117000FF1FE25BFC4F0190F081E02D81E085874D
:10118000878561E00E945D1FCE010E94210868EE04
:1011900073E080E090E00E94F005C855DF4F81E0E9
:1011A0008883DF91CF910895EF92FF920F931F9361
:1011B0007C01FC0183890E94511E8C01F701838907
:1011C0000E94511E080F191FF70183890E94511EAA
:1011D000800F911F63E070E00E947F27CB011F9179
:1011E0000F91FF90EF900895CF93DF930E94D40862
:1011F000AC01EEE4F2E0C1E0D0E06081718146171D
:1012000057075CF5FE013197EE0FFF1FEE0FFF1F32
:10121000DF01A65BBD4F2D913C91E45BFD4F01903A
:10122000F081E02D421B530BCC0FDD1FCC0FDD1FD7
:10123000C45BDD4F888199818E1B9F0B621B730BF2
:101240009C01429FC001439F900D529F900D11241D
:101250000E947F276E0F7F1F10C09E012F5F219677
:101260003496CD33D10549F62D3319F060E070E0A6
:101270000BC060913C0370913D0332E06030730716
:101280001CF06FEF71E004C077FF02C060E070E017
:10129000CB01DF91CF910895CF93DF93EC010E94B2
:1012A000F4089C0189819A812817390714F46F8901
:1012B00008C08B819C812817390714F060E001C0B9
:1012C0006E898D81861729F06D83898970E00E946F
:1012D000811EDF91CF91089580914E0390914F032D
:1012E0000E944C090895CF93DF93EC0118860E9469
:1012F000F4089A8789871DC00E946C0988858F5FD2
:101300008887853180F0CE010E94F4089C019C877B
:101310008B8789859A858217930714F081E014C022
:101320003A872987188668EE73E080E090E00E9493
:10133000B81DCE010E94F40829813A812550304021
:1013400082179307CCF280E0DF91CF910895CF937D
:10135000DF93EC010E947309882371F087E399E021
:1013600060E072E00E94C723CE010E94F408BC0135
:1013700087E399E00E94B024DF91CF910895CF9246
:10138000DF92EF92FF920F931F93CF93DF93EC01C5
:101390007A018B01C88CD98CD7FE10C0CB01BA0161
:1013A0000E94B6256883662319F0CE010E94A70922
:1013B0006881888970E00E94811E45C080916F001D
:1013C0008D7F80936F00CB01BA0127E137EB41EDB0
:1013D00058E30E944525181634F08C2D60E00E94D9
:1013E0005D1F188230C0CE010E94A709888D998D9B
:1013F00097FD03C061E00E945D1F81E088831F822A
:101400001E820E947205C801B70125E334EA40E458
:101410005FE30E9498269B01AC0160E070E68AE6DB
:1014200097E40E9449250E94B12522E0660F771FAC
:10143000881F991F2A95D1F70E94F00580916F00AF
:10144000826080936F00DF91CF911F910F91FF9089
:10145000EF90DF90CF900895BF92CF92DF92EF92FE
:10146000FF920F931F938C01B62E6A010E94A70969
:10147000F801B68684896B2D0E945D1FF80185896D
:1014800061E00E945D1FEE24D7FCE094FE2CC701B2
:10149000B6010E94B81DF801858960E00E945D1FB9
:1014A0001F910F91FF90EF90DF90CF90BF90089524
:1014B0006F927F928F929F92AF92CF92EF920F9303
:1014C000DF93CF93CDB7DEB73C01862FF30167875B
:1014D000408B218B028BE38AC48AA58A918E808EF1
:1014E0009D85968B9E85978B61E00E943D1FF30141
:1014F000808961E00E943D1FF301818961E00E94C3
:101500003D1FF301838960E00E943D1FF301848940
:1015100061E00E943D1FF301858961E00E943D1F4B
:10152000F301878560E00E945D1FF301818960E01F
:1015300070E00E94811EF301808960E070E00E94EB
:10154000811EF301848960E00E945D1FF30185899B
:1015500060E00E945D1FF301808D918D97FD0CC0AE
:1015600061E00E943D1FF301808D918D97FD0FC0BA
:1015700060E00E945D1F0BC0F301828961E00E9460
:101580003D1FF301828960E070E00E94811EF3013B
:1015900010821582168615861282118280E090E0F4
:1015A0006AE070E00E947F2774836383CF91DF91AC
:1015B0000F91EF90CF90AF909F908F907F906F9012
:1015C00008950F931F938C0108551F4FF801108247
:1015D00002501040F80110820251104081E0F801E1
:1015E00081938193819381938F0180830859104067
:1015F00080E090E0A0E0B0E0F801848B958BA68BB2
:10160000B78B808F918FA28FB38F848F958FA68F8A
:10161000B78F80A391A3A2A3B3A380E090E0AAE731
:10162000B4E484A395A3A6A3B7A386E161E00E94D6
:101630003D1F87E161E00E943D1F89E161E00E945A
:101640003D1F8AE161E00E943D1F8CE161E00E9444
:101650003D1F8DE161E00E943D1F88E161E00E9435
:101660003D1F8BE161E00E943D1F8EE161E00E9421
:101670003D1FC8010E94140882E060E00E943D1FE7
:1016800082E160E00E943D1F84E160E00E943D1F16
:1016900083E060E00E943D1F83E160E00E943D1F07
:1016A00085E160E00E943D1F80E090E0A0E2B1E4AF
:1016B000F80180839183A283B38384839583A68377
:1016C000B78380E090E0A0EAB3E480879187A287A7
:1016D000B38785E394EAA0E4BFE384879587A68770
:1016E000B78780E090E0A0E8BFE3808B918BA28B6E
:1016F000B38B1F910F9108958F929F92AF92CF92CB
:10170000EF920F9300D08AEAEDB7FEB781838FEF97
:10171000828380E694E060E249E028E00FEF33E066
:10172000E32ECC24CA94AA24AA9488248A94982CC0
:101730000E94580A0F900F908AE794E00E94E10AF5
:1017400083E295E00E94E10A8CEC95E00E94E10AB8
:1017500085E796E00E94E10A0F91EF90CF90AF905D
:101760009F908F9008951F93162F862F0E94E81F39
:10177000892B11F420E007C0812F0E94E81F20E090
:10178000892B09F021E0822F1F910895AF92CF920B
:10179000DF92EF92FF920F931F93C016D106E206DD
:1017A000F30611F490E006C0A110642F0E94B30B61
:1017B00091E09827892F1F910F91FF90EF90DF9074
:1017C000CF90AF9008952F923F924F925F926F9279
:1017D0007F928F929F92AF92BF92CF92DF92EF92C1
:1017E000FF920F931F93DF93CF93CDB7DEB7AC97E4
:1017F0000FB6F894DEBF0FBECDBF88559F4FDC01FA
:101800008C91A85AB040BCA7ABA7882309F4C9C3E0
:10181000A05CBF4FBA83A983EBA5FCA5EC5AFF4F90
:10182000FC83EB832BA53CA52C563F4F3E832D8399
:101830008BA59CA587569F4F98878F83ABA5BCA58A
:10184000AC5BBF4FBA87A987EBA5FCA5E85AFF4F51
:10185000FC87EB872BA53CA52B563F4F3E872D875A
:101860008BA59CA586569F4F988B8F87ABA5BCA553
:10187000A85BBF4FBA8BA98BEBA5FCA5E45AFF4F21
:10188000FC8BEB8B2BA53CA52A563F4F3E8B2D8B1B
:101890008BA59CA585569F4F988F8F8BFCE42F2E90
:1018A000312CABA5BCA52A0E3B1EA05ABF4FBA8F48
:1018B000A98FEBA5FCA5E956FF4FFC8FEB8F2BA55D
:1018C0003CA524563F4F3E8F2D8FE0E56E2E712CA8
:1018D0008BA59CA5680E791E8C599F4F98A38F8F5E
:1018E000ABA5BCA5A856BF4FBAA3A9A3EBA5FCA561
:1018F000E356FF4FFCA3EBA377EA872E912C2BA591
:101900003CA5820E931E28593F4F3EA32DA38BA5C5
:101910009CA584589F4F98A78FA36EE9462E512C03
:10192000ABA5BCA54A0E5B1EA459BF4FBAA7A9A779
:10193000E981FA810081118122813381AB81BC81EF
:10194000CD90DD90ED90FC908BA59CA562E043E0EE
:10195000ED81FE81A0800E94C60BAF81B8858C937B
:10196000E985FA850081118122813381AB85BC85AF
:10197000CD90DD90ED90FC908BA59CA562E143E1BC
:10198000ED85FE85A0800E94C60BAF85B8898C933B
:10199000E989FA890081118122813381AB89BC896F
:1019A000CD90DD90ED90FC908BA59CA564E145E188
:1019B000ED89FE89A0800E94C60BAF89B88D8C93FB
:1019C000F1010081118122813381A98DBA8DCD90E1
:1019D000DD90ED90FC908BA59CA56FEF4FEFEB8D0C
:1019E000FC8DA0800E94C60BAD8DBE8D8C93F30143
:1019F0000081118122813381AF8DB8A1CD90DD901E
:101A0000ED90FC908BA59CA56FEF4FEFE9A1FAA19B
:101A1000A0800E94C60BABA1BCA18C93F4011082E4
:101A2000AF81B8858C91882309F45CC0EDA1FEA13B
:101A300080819181A281B381EFA1F8A520813181BC
:101A400042815381820F931FA41FB51F808391830E
:101A5000A283B383181619061A061B060CF042C09F
:101A600086E161E00E945D1F85E090E00E94E21D3A
:101A700086E160E00E945D1F81E0D4018C93EFA1BC
:101A8000F8A580819181A281B381F2012081318109
:101A900042815381821B930BA40BB50BEFA1F8A5D8
:101AA00080839183A283B383AD81BE818C91E981D0
:101AB000FA812081318142815381882349F02F5F4F
:101AC0003F4F4F4F5F4F20833183428353830AC080
:101AD0002150304040405040E981FA8120833183D9
:101AE00042835383AF85B8898C91882309F45AC007
:101AF0000BA51CA500581F4FE9A5FAA5808191816F
:101B0000A281B381F8012081318142815381820F0A
:101B1000931FA41FB51F80839183A283B3831816DC
:101B200019061A061B06F4F589E161E00E945D1FA3
:101B300085E090E00E94E21D89E160E00E945D1F67
:101B400081E0D4018C93F80180819181A281B381DD
:101B5000F2012081318142815381821B930BA40BBE
:101B6000B50BF80180839183A283B383AD85BE85D5
:101B70008C91882351F0E985FA8580819181A28139
:101B8000B3810196A11DB11D09C0E985FA85808147
:101B90009181A281B3810197A109B10980839183C9
:101BA000A283B383AF89B88D8C91882309F460C078
:101BB0000BA51CA50C571F4FEBA5FCA5E059FF4F2B
:101BC00080819181A281B381E057F040FCA7EBA70F
:101BD000F8012081318142815381820F931FA41F1C
:101BE000B51F80839183A283B383181619061A0642
:101BF0001B06F4F58CE161E00E945D1F85E090E03A
:101C00000E94E21D8CE160E00E945D1F81E0D40132
:101C10008C93F80180819181A281B381F2012081AE
:101C2000318142815381821B930BA40BB50BF801C8
:101C300080839183A283B383AD89BE898C918823ED
:101C400051F0E989FA8980819181A281B38101965D
:101C5000A11DB11D09C0E989FA8980819181A28104
:101C6000B3810197A109B10980839183A283B383D2
:101C7000AD8DBE8D8C91882309F46CC058E8E52E9B
:101C8000F12CEBA5FCA5EE0EFF1EEC58FF4F80815A
:101C90009181A281B381E457F040FCA7EBA7F70143
:101CA0002081318142815381820F931FA41FB51F70
:101CB00080839183A283B383181619061A061B0624
:101CC0000CF048C0E0915003F0E0EE0FFF1FE25B24
:101CD000FC4F00811181D80150968C9161E00E94E7
:101CE0005D1F85E090E00E94E21DF801808960E0C0
:101CF0000E945D1F81E0D4018C93F7018081918166
:101D0000A281B381F2012081318142815381821B02
:101D1000930BA40BB50BF70180839183A283B3834C
:101D2000AB8DBC8D8C91882349F0F101808191812C
:101D3000A281B3810196A11DB11D08C0F10180816E
:101D40009181A281B3810197A109B1098083918317
:101D5000A283B383ABA1BCA18C91882309F44AC0B0
:101D6000EBA5FCA5E457FF4F2BA53CA528583F4FFA
:101D7000D9012D913D914D915C911397A857B04099
:101D8000BCA7ABA780819181A281B381280F391FA5
:101D90004A1F5B1F2083318342835383121613062D
:101DA000140615063CF5D201ED90FD900D911C91A5
:101DB0002E193F09400B510B2083318342835383FB
:101DC000E9A1FAA18081882349F0F3018081918102
:101DD000A281B3810196A11DB11D08C0F3018081CC
:101DE0009181A281B3810197A109B1098083918377
:101DF000A283B383D4018C91882309F487C0EBA517
:101E0000FCA5E057FF4F2081318142815381E05989
:101E1000F040FCA7EBA78F010E551F4F2230310574
:101E2000410551056CF0D3016D917D918D919C918F
:101E30000E946027F80160837183828393830AC0C4
:101E4000F30180819181A281B381F8018083918324
:101E5000A283B383ABA5BCA5DC966D917D918D91DA
:101E60009C91DF9720EC31EE44E65CE40E949826DA
:101E70005B016C01EBA5FCA5EE55FF4F6081718104
:101E8000828193810E94E4257B018C01F2016081B3
:101E90007181828193810E94E4259B01AC01C8017C
:101EA000B7010E9498269B01AC01C601B5010E94B2
:101EB00049257B018C0120E030E040E050E00E94A9
:101EC000942688234CF0C801B70120E030E040E0C0
:101ED0005FE30E94E12408C0C801B70120E030E0C0
:101EE00040E05FE30E94E0240E94B1252BA53CA5C1
:101EF0002E553F4FD9016D937D938D939C931397EE
:101F0000A25AB040BCA7ABA70E94F005F4018081A3
:101F1000882331F4ABA1BCA18C91882309F008CDB2
:101F2000EBA5FCA5E756FF4F8081E959F040FCA7DF
:101F3000EBA7882319F5E656FF4F8081EA59F04058
:101F4000FCA7EBA78823D1F4E556FF4F8081EB591E
:101F5000F040FCA7EBA7882389F4E456FF4F80816B
:101F6000EC59F040FCA7EBA7882341F4E356FF4F60
:101F70008081ED59F040FCA7EBA701C081E0EBA503
:101F8000FCA5E855FF4F80838081882351F48BA501
:101F90009CA50E94140868EE73E080E090E00E9427
:101FA000F005AC960FB6F894DEBF0FBECDBFCF9153
:101FB000DF911F910F91FF90EF90DF90CF90BF9036
:101FC000AF909F908F907F906F905F904F903F90D9
:101FD0002F9008951F920F920FB60F920BB60F928B
:101FE00011241F932F933F934F935F936F937F938E
:101FF0008F939F93AF93BF93EF93FF9380916F0065
:102000008D7F80936F00E0916403F0E0EE0FFF1F7F
:10201000E55AFC4F0190F081E02DE855FF4F80819B
:10202000882361F0E0916403F0E0EE0FFF1FE55AB2
:10203000FC4F808191810E94E30B22C09091640348
:10204000809163039817A9F5E0916403F0E0EE0F27
:10205000FF1FE55AFC4F0190F081E02DE855FF4F3E
:102060008081882331F50CC0E12FF0E0EE0FFF1FD7
:10207000E55AFC4F808191810E947208109364039D
:1020800080916F00826080936F00FF91EF91BF910C
:10209000AF919F918F917F916F915F914F913F9100
:1020A0002F911F910F900BBE0F900FBE0F901F909E
:1020B0001895109164031F5F1430B0F210E0D4CF74
:1020C0002F923F924F925F926F927F928F929F9248
:1020D000AF92BF92CF92DF92EF92FF920F931F9336
:1020E000DF93CF93CDB7DEB7A4970FB6F894DEBFDA
:1020F0000FBECDBF2C01362E272EDC015496862F25
:10210000972F9C01F90184E101900D928150E1F734
:1021100026EA30E0420E531ED2011C92EAE5FFEFA0
:102120004E0E5F1ED20154966D917D918D919C91C2
:102130005797209165033091660340916703509152
:1021400068030E94E0245B016C01E894D7F8F20177
:10215000608D718D828D938D2091690330916A031A
:1021600040916B0350916C030E94E0247B018C0131
:10217000E89417F9D2015C966D917D918D919C91B7
:102180005F9720916D0330916E0340916F035091E2
:1021900070030E94E0243B014C01E89497F8F2019F
:1021A00060A171A182A193A120917103309172036A
:1021B00040917303509174030E94E0249B01AC0191
:1021C0005F772D8F3E8F4F8F58A3D20194966D91DC
:1021D0007D918D919C919797209175033091760315
:1021E00040917703509178030E94E0249B01AC0159
:1021F0005F7729A33AA34BA35CA3D201D8962D9372
:102200003D934D935C93DB972D8D3E8D4F8D58A163
:10221000D4962D933D934D935C93D797F20160AA8A
:1022200071AA82AA93AA9C96ED92FD920D931C939B
:102230009F97A0A6B1A6C2A6D3A6C601B501A601C6
:1022400095010E9498265B016C01C801B701A801A5
:1022500097010E9498269B01AC01C601B5010E941E
:10226000E1247B018C01C401B301A40193010E940C
:1022700098269B01AC01C801B7010E94E124D2015C
:10228000DC966D937D938D939C93DF9720E030E0F7
:1022900040E050E00E94452518166CF06D8D7E8D53
:1022A0008F8D98A19B01AC010E949826F20164AF2A
:1022B00075AF86AF97AFD201DC966D917D918D9110
:1022C0009C91DF9720E030E040E050E00E944525FF
:1022D00018166CF069A17AA18BA19CA19B01AC019D
:1022E0000E949826F20164AF75AF86AF97AFD20116
:1022F000DC966D917D918D919C91DF970E94FF26D8
:10230000F20164AF75AF86AF97AFF42CE52C8E0168
:102310000F5F1F4FC801B20145E653E00E94F5036D
:10232000D201A05CBF4FF80184E101900D92815071
:10233000E1F724E130E0420E531E8E010F5F1F4F84
:10234000C8016F2D7E2DA2010E94F50340E450E0EC
:10235000440E551ED2016CEA7FEF460E571EF8015F
:1023600084E101900D928150E1F7F201EC5AFF4FA8
:1023700080E490E0480E591E2081318142815381D2
:102380002D8B3E8B4F8B588FF20180819181A281E2
:10239000B38120EC3FEF420E531E4D895E896F8959
:1023A000788D481B590B6A0B7B0B4D8B5E8B6F8BAB
:1023B000788F77FF0BC070956095509541955F4F72
:1023C0006F4F7F4F4D8B5E8B6F8B788FF201E85A8A
:1023D000FF4F64E470E0460E571EE080F1800281FA
:1023E0001381F20180819181A281B3812CEB3FEFB7
:1023F000420E531EE81AF90A0A0B1B0B17FF08C0FE
:1024000010950095F094E094E11CF11C011D111D44
:10241000F201E45AFF4F48E450E0440E551E60813B
:10242000718182819381698F7A8F8B8F9C8FF2016A
:1024300080819181A281B38128EB3FEF420E531E30
:10244000498D5A8D6B8D7C8D481B590B6A0B7B0B0C
:10245000498F5A8F6B8F7C8F77FF0BC0709560957B
:10246000509541955F4F6F4F7F4F498F5A8F6B8FBC
:102470007C8FF201E05AFF4F6CE470E0460E571E6D
:1024800080809180A280B380F20180819181A281BD
:10249000B38124EB3FEF420E531E881A990AAA0A11
:1024A000BB0AB7FE08C0B094A09490948094811C9D
:1024B000911CA11CB11CB20168587F4FF201EC596C
:1024C000FF4F40E550E0440E551E2081318142818E
:1024D0005381F20180819181A281B381E0EBFFEF12
:1024E0004E0E5F1E281B390B4A0B5B0B57FF07C0B4
:1024F00050954095309521953F4F4F4F5F4FDB01F1
:102500002D933D934D935C931397E4E7F0E04E0ECB
:102510005F1ED2018D929D92AD92BC921397298D30
:102520003A8D4B8D5C8D5E934E933E932E93FD01C1
:1025300012930293F292E292DF012D893E894F8934
:10254000588D5E934E933E932E932D01E8E9FFEF55
:102550004E0E5F1EDA01C9012E153F0540075107D7
:1025600014F4D801C7012EE930E0420E531EF201E7
:1025700080839183A283B38322ED3FEF420E531EEB
:10258000F201208131814281538160E97FEF460E63
:10259000571E82179307A407B50714F4DA01C9017F
:1025A000EEE9F0E04E0E5F1EF20180839183A2837C
:1025B000B38326ED3FEF420E531EF201208131819D
:1025C000428153816CE87FEF460E571E82179307B6
:1025D000A407B50714F4DA01C901EEE9F0E04E0EE4
:1025E0005F1EF20180839183A283B38322E63FEFD3
:1025F000420E531E0097A105B10599F446EA50E03A
:10260000440E551E81E0D2018C93A5E6B3E0232D44
:10261000322DC901FC0184E101900D928150E1F756
:10262000C8C1F20184A095A0A6A0B7A0C501B401BD
:1026300020E030E040E050E00E94942688234CF0F7
:10264000C501B40120E030E040E05FE30E94E124F6
:1026500008C0C501B40120E030E040E05FE30E9423
:10266000E0240E94B12520E530E0420E531ED20145
:102670006D937D938D939C931397E0EBFFEF4E0E3C
:102680005F1EF201E858FF4F24E630E0420E531E71
:10269000D2012D913D914D915C91ACE9BFEF4A0E75
:1026A0005B1E261B370B480B590B57FF07C0509575
:1026B0004095309521953F4F4F4F5F4F2083318399
:1026C0004283538320E9C22ED12CC40CD51C21E0B7
:1026D00030E040E050E0D6012D933D934D935C9364
:1026E0001397E8E7F0E04E0E5F1ED201ED90FD90EB
:1026F0000D911C91E8E8FFEF4E0E5F1E9EE9692EDA
:10270000712C640C751CD3012D913D914D915C9100
:102710002E153F05400751070CF075C0C801B701E1
:102720000E94B42749015A01F60180829182A28257
:10273000B382F3E08F169104A104B1040CF454C0E9
:1027400082010C591F4FD8016D917D918D919C9103
:10275000A50194010E94B42769017A01F801208340
:102760003183428353838201005B1F4FD8016D91F7
:102770007D918D919C91A50194010E94B427C9017E
:10278000DA01F80180839183A283B383A7019601C4
:10279000281B390B4A0B5B0B57FF07C05095409520
:1027A000309521953F4F4F4F5F4F68E770E0460EE1
:1027B000571ED2012D933D934D935C931397E8E8F8
:1027C000FFEF4E0E5F1EF201E256FF4F80819181B6
:1027D000A281B38182179307A407B507A4F42083CD
:1027E0003183428353830FC021E030E040E050E06A
:1027F000D6012D933D934D935C931397F301E082A3
:10280000F1820283138382010C561F4FFF24D201F1
:1028100054966D917D918D919C9157972091650370
:102820003091660340916703509168030E9494269B
:10283000882314F0FF24F394F801F08282010B56F0
:102840001F4FFF24D20158966D917D918D919C91DF
:102850005B972091690330916A0340916B0350911B
:102860006C030E949426882314F0FF24F394F8014B
:10287000F08282010A561F4FFF24D2015C966D91AF
:102880007D918D919C915F9720916D0330916E03A6
:1028900040916F03509170030E949426882314F096
:1028A000FF24F394F801F082820109561F4FFF24A0
:1028B000D20190966D917D918D919C9193972091ED
:1028C00071033091720340917303509174030E941D
:1028D0009426882314F0FF24F394F801F0828201F7
:1028E00008561F4FFF24D20194966D917D918D91D2
:1028F0009C919797209175033091760340917703CF
:10290000509178030E949426882314F0FF24F394B6
:10291000F801F0822EE930E0420E531ED2016D9193
:102920007D918D919C91E2E6FFEF4E0E5F1E22E0BD
:1029300030E040E050E00E94B4275095409530953B
:1029400021953F4F4F4F5F4FD201A458BF4F2C935B
:1029500011963C93119712964C93129713965C9391
:102960001397F201E058FF4F208331834283538352
:1029700024E830E0420E531E8D919D910D90BC9144
:10298000A02DF20181939193A193B193819391939F
:10299000A193B19380839183A283B383A5E6B3E02F
:1029A000232D322DC901FC0184E101900D9281504B
:1029B000E1F7A4960FB6F894DEBF0FBECDBFCF915E
:1029C000DF911F910F91FF90EF90DF90CF90BF901C
:1029D000AF909F908F907F906F905F904F903F90BF
:1029E0002F9008951F93CF93DF93EC0106C061E011
:1029F00070E080E090E00E94B81D8091640388231D
:102A000029F480916303833059F4F1CF209163035B
:102A10008091640330E090E001972817390739F37B
:102A2000109163031F5F143008F010E0E12FF0E015
:102A3000EE0FFF1FE55AFC4F80819181BE010E947D
:102A4000601010936303DF91CF911F910895CF938E
:102A5000DF93EC019B01A4E1B4E0E5E6F3E084E15F
:102A600001900D928150E1F788819981AA81BB8103
:102A70008093140490931504A0931604B093170444
:102A8000F90180819181A281B38180932404909384
:102A90002504A0932604B093270484E194E00E94C7
:102AA000F214DF91CF910895CF93DF93EC019B0156
:102AB000A4E1B4E0E5E6F3E084E101900D928150F9
:102AC000E1F788819981AA81BB8180931804909352
:102AD0001904A0931A04B0931B04F9018081918119
:102AE000A281B3818093240490932504A0932604AB
:102AF000B093270484E194E00E94F214DF91CF9117
:102B00000895CF93DF93EC019B01A4E1B4E0E5E6E7
:102B1000F3E084E101900D928150E1F78881998181
:102B2000AA81BB8180931C0490931D04A0931E0472
:102B3000B0931F04F90180819181A281B3818093B8
:102B4000240490932504A0932604B093270484E1E1
:102B500094E00E94F214DF91CF9108954F925F921A
:102B60006F927F928F929F92AF92BF92CF92DF929D
:102B7000EF92FF920F931F93DF93CF93CDB7DEB702
:102B8000C056D0400FB6F894DEBF0FBECDBFFC01DB
:102B9000AB0180818F3209F401C680E090E0A0E0B3
:102BA000B0E08093000490930104A0930204B093DA
:102BB00003048093040490930504A0930604B09347
:102BC00007048093080490930904A0930A04B09327
:102BD0000B0480930C0490930D04A0930E04B09307
:102BE0000F048093100490931104A0931204B093E7
:102BF00013048CE294E0BF010E94C50620912C04CE
:102C000030912D04C90183709074892B91F42115A2
:102C1000310579F080913F039091400397FD09C001
:102C200090932F0480932E04216030932D042093E1
:102C30002C0400912C0410912D0400FFFBC3809103
:102C40002E0490912F049093400380933F03A0E0C3
:102C5000B4E0E5E6F3E084E101900D928150E1F704
:102C600080914103980128703070882309F449C08D
:102C7000232B81F08091380490913904A0913A047B
:102C8000B0913B048093000490930104A09302044C
:102C9000B093030404FF10C080913C0490913D0464
:102CA000A0913E04B0913F048093040490930504E6
:102CB000A0930604B093070405FF10C08091400460
:102CC00090914104A0914204B09143048093080480
:102CD00090930904A0930A04B0930B0415FF81C0DC
:102CE0008091440490914504A0914604B09147041A
:102CF00080930C0490930D04A0930E04B0930F04E2
:102D000070C0232BD1F06091000470910104809178
:102D100002049091030420913804309139044091C9
:102D20003A0450913B040E94E124609300047093A4
:102D30000104809302049093030404FF1AC060917D
:102D40000404709105048091060490910704209179
:102D50003C0430913D0440913E0450913F040E9458
:102D6000E124609304047093050480930604909317
:102D7000070405FF1AC0609108047091090480914E
:102D80000A0490910B042091400430914104409139
:102D90004204509143040E94E1246093080470931C
:102DA000090480930A0490930B0415FF1AC06091E4
:102DB0000C0470910D0480910E0490910F042091E9
:102DC00044043091450440914604509147040E94C8
:102DD000E12460930C0470930D0480930E0490938F
:102DE0000F0411FF10C08091500490915104A091E4
:102DF0005204B09153048093100490931104A09353
:102E00001204B093130480912E0490912F0481300A
:102E1000910539F18C319105A1F1892B09F026C278
:102E2000E0901004F090110400911204109113042A
:102E300080E090E0AAE7B5E4809310049093110439
:102E4000A0931204B093130480E094E00E94F21463
:102E5000E0921004F09211040093120410931304F2
:102E600080C4E0915003F0E0EE0FFF1FE25BFC4FE7
:102E7000808191810E944C0980E094E00E94F214CC
:102E800070C40F2EF0E06F2EF0E07F2EFAE78F2E49
:102E9000F4E49F2EF02D6092750370927603809279
:102EA0007703909278036091650370916603809137
:102EB00067039091680320E030E040EA50E40E940C
:102EC000E02469837A838B839C830F2EF0E0EF2EBE
:102ED000F0E0FF2EFAE70F2FF5E41F2FF02DED8223
:102EE000FE820F831887CE010196BE016B5F7F4F74
:102EF0000E942715609165037091660380916703B6
:102F00009091680320E030E04AE753E40E94E02417
:102F100069877A878B879C87ED86FE860F87188B5B
:102F2000CE010996BE01635F7F4F0E94271520E006
:102F300030E040E050E02093650330936603409317
:102F400067035093680360927503709276038092D2
:102F500077039092780380E090E0A0E8BFE3898B4C
:102F60009A8BAB8BBC8B6D8A7E8A8F8A988ECE01B2
:102F70004196BE016B5E7F4F0E94271560916503ED
:102F800070916603809167039091680320E030E0C0
:102F900040E251E40E94E024698F7A8F8B8F9C8FEE
:102FA0006D8E7E8E8F8E98A2CE014996BE01635E95
:102FB0007F4F0E94271520E030E040E050E0209352
:102FC00065033093660340936703509368036091F1
:102FD000690370916A0380916B0390916C0320E008
:102FE00030E040EA50E40E94E02469A37AA38BA376
:102FF0009CA3EDA2FEA20FA318A7CE018196BE014D
:103000006B5D7F4F0E9454156091690370916A0354
:1030100080916B0390916C0320E030E04AE753E429
:103020000E94E02469A77AA78BA79CA7EDA6FEA61D
:103030000FA718ABCE018996BE01635D7F4F0E943A
:10304000541580E090E0A0E0B0E080936903909395
:103050006A03A0936B03B0936C0360927503709244
:103060007603809277039092780320E030E040E886
:103070005FE329AB3AAB4BAB5CAB6DAA7EAA8FAAE0
:1030800098AECE01C196BE016B5C7F4F0E94541575
:103090006091690370916A0380916B0390916C0356
:1030A00020E030E040E251E40E94E02469AF7AAFD2
:1030B0008BAF9CAFFE01FD9660827182828293820B
:1030C000CE01C996BF010E94541580E090E0A0E0B7
:1030D000B0E08093690390936A03A0936B03B0936D
:1030E0006C030F2EF0E0AF2EF0E0BF2EF8E4CF2EF1
:1030F000F2E4DF2EF02DA0927503B0927603C09219
:103100007703D092780361E4462E512C4C0E5D1E5D
:1031100060916D0370916E0380916F0390917003C5
:1031200020E030E040E05FE30E94E024D2016D93B4
:103130007D938D939C931397FE01EB5BFF4F0F2EB6
:10314000F0E0EF2EF0E0FF2EF6E10F2FF3E41F2F5B
:10315000F02DE082F18202831383C201BF010E943D
:10316000811559E4452E512C4C0E5D1E60916D0366
:1031700070916E0380916F039091700320E030E0B6
:103180004AE753E40E94E024F20160837183828362
:103190009383FE01E35BFF4FE082F182028313839E
:1031A000C201BF010E94811520E030E040E050E004
:1031B00020936D0330936E0340936F03509370031D
:1031C000A0927503B0927603C0927703D0927803F1
:1031D000DE01AF5ABF4F20E030E040E85FE32D93BF
:1031E0003D934D935C931397FE01EB5AFF4FA082E2
:1031F000B182C282D382CD01BF010E9481158E01AE
:10320000075A1F4F60916D0370916E0380916F0399
:103210009091700320E030E040E050E40E94E02410
:10322000D8016D937D938D939C931397FE01E35A80
:10323000FF4FA082B182C282D382C801BF010E9427
:10324000811520E030E040E050E020936D033093A2
:103250006E0340936F0350937003609275037092F6
:10326000760380927703909278037BC290916403F7
:1032700080916303981709F0AAC2E0916403F0E01B
:10328000EE0FFF1FE55AFC4F0190F081E02DE8554D
:10329000FF4F8081882309F09AC280912E0490917B
:1032A0002F048531910509F467C0863191053CF4FE
:1032B0008430910589F0449709F0A8C024C08B356B
:1032C000910509F496C08C35910509F495C08A35AD
:1032D000910509F09BC089C0609134047091350458
:1032E000809136049091370420E030E040E05FE3C5
:1032F0000E94E1240E94B125882777FD8095982FB0
:103300000E94B81D97C0ABE5B3E020E030E04EE787
:1033100053E40F2EF0E0AF2EF0E0BF2EFEEFCF2EE5
:10332000F5E4DF2EF02D0F2EFDEBEF2EF8EEFF2E45
:10333000F8E90F2FF1E41F2FF02D60E070E080E836
:103340009FE3ED91FD912083318342835383248356
:10335000358346835783A086B186C286D386E486AA
:10336000F58606871787608B718B828B938BE3E0E2
:10337000A336BE0731F75EC0ABE5B3E020E030E036
:1033800040E251E40F2EF0E0AF2EF0E0BF2EF0EA65
:10339000CF2EF3E4DF2EF02D0F2EF5E3EF2EF4EA1F
:1033A000FF2EF0E40F2FFFE31F2FF02D60E070E001
:1033B00080E89FE3ED91FD91208331834283538325
:1033C0002483358346835783A086B186C286D386FD
:1033D000E486F58606871787608B718B828B938BCB
:1033E000F3E0A336BF0731F725C081E080934103A6
:1033F00021C0109241031EC0A5E6B3E0E0E0F4E076
:1034000084E101900D928150E1F714C087E399E0C7
:1034100064E072E00E94C72340912E0450912F0473
:10342000662757FD6095762F87E399E02AE030E024
:103430000E94D52480912C0481FF8DC1909164035A
:1034400080916303981709F0C9C1E0916403F0E02B
:10345000EE0FFF1FE55AFC4F0190F081E02DE8557B
:10346000FF4F8081882309F0B9C180913004909189
:1034700031048936910509F4ABC08A369105C4F44C
:103480008636910509F440C08736910544F40097CB
:1034900009F461C18536910509F049C126C0873616
:1034A000910509F454C08836910509F040C15DC00A
:1034B0008C36910509F4C9C08D3691054CF48A36D5
:1034C000910509F49CC08B36910509F030C1A9C063
:1034D0008E37910509F4ECC08F37910509F406C1C8
:1034E0008D36910509F023C1C7C0E0915003F0E08B
:1034F000EE0FFF1FE25BFC4F0190F081E02D81E0B9
:103500008587878561E00DC0E0915003F0E0EE0F04
:10351000FF1FE25BFC4F0190F081E02D158687854F
:1035200060E00E945D1FE0915003F0E0EE0FFF1F8E
:10353000E25BFC4F409128045091290460912A04D9
:1035400070912B04808191810E94BF0904C1E09198
:103550005003F0E0EE0FFF1FE25BFC4F8081918192
:1035600040E050E060E070E0EFCF80912C0490915B
:103570002D0492FFF0C0E0915003F0E0EE0FFF1F2A
:10358000E25BFC4F008111816091540470915504FD
:1035900080915604909157040E94B1259B01D80157
:1035A00012967C936E9311978BE090E0FC012E9F16
:1035B000C0012F9F900D3E9F900D11246AE070E096
:1035C0000E947F27D80114967C936E931397C3C0F3
:1035D00087E399E06BE072E00E94C723E09150031B
:1035E000F0E0EE0FFF1FE25BFC4F808191810E94B3
:1035F000F408BC0187E399E00E94B024CFC0E091B9
:103600005003F0E0EE0FFF1FE25BFC4F0190F081F2
:10361000E02D808D918D97FF9EC082896FEF70E0C5
:1036200011C0E0915003F0E0EE0FFF1FE25BFC4F92
:103630000190F081E02D808D918D97FF8CC0828963
:1036400060E070E00E94811E86C080912C04909101
:103650002D0492FF80C08091540490915504A09154
:103660005604B09157048093280490932904A093A2
:103670002A04B0932B046FC080912C0490912D04E8
:1036800092FF69C010E060915404709155048091DC
:1036900056049091570420E030E040E050E00E9452
:1036A0004525811111E08FEF612F0E945D1F53C0EE
:1036B000E0915003F0E0EE0FFF1FE25BFC4F008152
:1036C0001181609134047091350480913604909199
:1036D000370420E030E040E05FE30E94E1240E94F4
:1036E000B1259B01AC01C80161E01DC0E091500310
:1036F000F0E0EE0FFF1FE25BFC4F00811181609153
:10370000340470913504809136049091370420E0A0
:1037100030E040E05FE30E94E1240E94B1259B017C
:10372000AC01C80160E0A9010E942C0A14C087E323
:1037300099E06EE072E00E94C723409130045091FE
:103740003104662757FD6095762F87E399E02AE0DC
:1037500030E00E94D52480912C0490912D0496FD98
:1037600002C081E01CC090916403809163039817AC
:10377000E1F5E0916403F0E0EE0FFF1FE55AFC4F26
:103780000190F081E02DE855FF4F8081882369F595
:1037900080915003882311F01092500380E0C05AAA
:1037A000DF4F0FB6F894DEBF0FBECDBFCF91DF91D4
:1037B0001F910F91FF90EF90DF90CF90BF90AF904F
:1037C0009F908F907F906F905F904F90089561E0F1
:1037D00070E080E090E00E94B81D48CD61E070E0AC
:1037E00080E090E00E94B81D29CE61E070E080E0AA
:1037F00090E00E94B81DB7CF1F9387E399E00E9425
:103800007122882311F187E399E00E948522809339
:103810003E038D3019F48AE080933E0390913E037D
:1038200090329CF09B3319F481E08093FF038091E8
:10383000FF03882351F48091FE03E82FF0E0E25863
:10384000FC4F90838F5F8093FE038091FE0387FF80
:1038500004C01092FE031092FF036091FE036623E2
:1038600061F180913E038A3041F570E0FB01E2583E
:10387000FC4F10828EE793E00E94AE15182F109235
:10388000FE031092FF0380915103882379F087E3B0
:1038900099E06CE372E00E94C72387E399E061E559
:1038A00073E00E94E6231092510308C087E399E079
:1038B00060E472E00E94E62301C010E0812F1F91B6
:1038C0000895EF92FF920F931F930E946C090E943C
:1038D000FC1B90914902882389F0992309F462C066
:1038E0008FEF61E00E943D1F8FEF60E00E945D1F3F
:1038F0001092490281E08093790354C0992309F022
:1039000051C09091640380916303981709F04AC0F5
:10391000E0916403F0E0EE0FFF1FE55AFC4F0190C9
:10392000F081E02DE855FF4F80818823D9F5E091A3
:103930005003F0E0EE0FFF1FE25BFC4F0190F081BF
:10394000E02D818192811816190664F18091790326
:10395000882389F00E94AA1D605F784D8F4F9F4F8A
:1039600060937A0370937B0380937C0390937D0331
:103970001092790317C0E0907A03F0907B030091D6
:103980007C0310917D030E94AA1DE61AF70A080B1A
:10399000190B17FF07C08FEF60E00E943D1F81E009
:1039A000809349021F910F91FF90EF900895EF923D
:1039B000FF920F931F931FE6E12EF12CF7018081F8
:1039C0008D7F80830E9472051092510380E694E0FF
:1039D00090934F0380934E03109250031092630311
:1039E000109264038AE794E090935C0380935B03F6
:1039F00083E295E090935E0380935D038CEC95E009
:103A00009093600380935F0385E796E09093620351
:103A1000809361031092FE031092FF0380E090E018
:103A2000A0E0B0E08093650390936603A0936703E2
:103A3000B09368038093690390936A03A0936B0328
:103A4000B0936C0380936D0390936E03A0936F0308
:103A5000B09370038093710390937203A0937303E8
:103A6000B093740380E090E0AAE7B4E48093750318
:103A700090937603A0937703B093780307E319E05C
:103A8000C80140E05BE460E070E00E947821C8017A
:103A900063E472E00E94E62368EE73E080E090E069
:103AA0000E94F005F7018081826080831F910F9151
:103AB000FF90EF9008950E94F01D0E94D71C0E9475
:103AC000611CFDCF1F920F920FB60F9211242F93FE
:103AD0003F938F939F93AF93BF93809122079091D1
:103AE0002307A0912407B09125073091260701965E
:103AF000A11DB11D232F2D5F2D3720F02D570196CD
:103B0000A11DB11D209326078093220790932307C0
:103B1000A0932407B093250780911E0790911F075B
:103B2000A0912007B09121070196A11DB11D80939E
:103B30001E0790931F07A0932007B0932107BF9102
:103B4000AF919F918F913F912F910F900FBE0F904A
:103B50001F9018958FB7F894209122073091230772
:103B600040912407509125078FBFB901CA010895DC
:103B7000EF92FF920F931F937B018C018FB7F89404
:103B800040912207509123076091240770912507E7
:103B90008FBF2FB7F8948091220790912307A091AF
:103BA0002407B09125072FBF841B950BA60BB70BDD
:103BB000E816F9060A071B0760F71F910F91FF909F
:103BC000EF900895019759F0FC01EE0FFF1FEE0FE3
:103BD000FF1F32978FB7F8943197F1F78FBF089591
:103BE000789484B5826084BD84B5816084BD85B5D8
:103BF000826085BD85B5816085BDEEE6F0E080819F
:103C000081608083E1E8F0E0808182608083808150
:103C100081608083E0E8F0E0808181608083E1EB77
:103C2000F0E0808184608083E0EBF0E0808181605F
:103C30008083E1E9F0E0808182608083808181601F
:103C40008083E1EAF0E0808182608083808181600E
:103C50008083E1E2F1E08081826080838081816005
:103C60008083E0E9F0E0808181608083E0EAF0E039
:103C7000808181608083E0E2F1E0808181608083E7
:103C8000EAE7F0E0808184608083808182608083C5
:103C90008081816080838081806880831092C100F0
:103CA0000895382F3F70209142032295220F220F52
:103CB000207C232B20937C0020917B008695869589
:103CC000869590E08170907033E0880F991F3A9547
:103CD000E1F7277F282B20937B0080917A00806476
:103CE00080937A0080917A0086FDFCCF2091780045
:103CF00040917900942F80E030E0282B392BC901C6
:103D000008951F93CF93DF93182FEB0161E00E947A
:103D10003D1FE12FF0E0E254FE4F8491833051F4D7
:103D200080918000806880938000D0938900C09348
:103D300088009FC0843051F480918000806280931D
:103D40008000D0938B00C0938A0093C0813041F4EF
:103D5000209709F487C084B5806884BDC7BD89C039
:103D6000823041F4209709F47DC084B5806284BD1F
:103D7000C8BD7FC0863041F48091B00080688093D8
:103D8000B000C093B30075C0873041F48091B0009B
:103D900080628093B000C093B4006BC0883051F44F
:103DA00080919000806880939000D0939900C09398
:103DB00098005FC0893051F48091900080628093B8
:103DC0009000D0939B00C0939A0053C08A3051F466
:103DD00080919000886080939000D0939D00C09364
:103DE0009C0047C08B3051F48091A0008068809384
:103DF000A000D093A900C093A8003BC084918C3050
:103E000051F48091A00080628093A000D093AB0019
:103E1000C093AA002EC08D3051F48091A00088601C
:103E20008093A000D093AD00C093AC0022C08E3030
:103E300051F480912001806880932001D093290162
:103E4000C093280116C08F3051F480912001806208
:103E500080932001D0932B01C0932A010AC0C0385F
:103E6000D1051CF4812F60E002C0812F61E00E9427
:103E70005D1FDF91CF911F910895282F30E0C90178
:103E800088589E4FFC0194912E5C3E4FF90184911D
:103E9000882391F0E82FF0E0EE0FFF1FEC51FF4F69
:103EA000A591B491662329F48C91909589238C93E4
:103EB00008958C91892B8C930895482F50E0CA0166
:103EC00082549E4FFC012491CA0188589E4FFC01E8
:103ED00094914E5C5E4FFA013491332309F477C01C
:103EE000222309F462C0233021F4809180008F776F
:103EF00005C0243031F4809180008F7D8093800054
:103F000054C0213019F484B58F7704C0223021F4D5
:103F100084B58F7D84BD49C0263021F48091B000E6
:103F20008F7705C0273031F48091B0008F7D80936A
:103F3000B0003BC0283021F4809190008F7705C0FD
:103F4000293031F4809190008F7D809390002DC0B6
:103F50002A3021F480919000877FF7CF2B3021F415
:103F60008091A0008F770BC02C3021F48091A000AD
:103F70008F7D05C02D3031F48091A000877F809324
:103F8000A00013C02E3021F4809120018F770BC048
:103F90002F3021F4809120018F7D05C0203129F43C
:103FA00080912001877F80932001E32FF0E0EE0FC6
:103FB000FF1FE250FF4FA591B491662329F48C9125
:103FC000909589238C9308958C91892B8C930895D7
:103FD000682F70E0CB0182549E4FFC012491CB01ED
:103FE00088589E4FFC0144916E5C7E4FFB0194917A
:103FF000992319F420E030E075C0222309F462C04F
:10400000233021F4809180008F7705C0243031F473
:10401000809180008F7D8093800054C0213019F4FE
:1040200084B58F7704C0223021F484B58F7D84BDA0
:1040300049C0263021F48091B0008F7705C0273029
:1040400031F48091B0008F7D8093B0003BC0283068
:1040500021F4809190008F7705C0293031F4809150
:1040600090008F7D809390002DC02A3021F48091A4
:104070009000877FF7CF2B3021F48091A0008F77BD
:104080000BC02C3021F48091A0008F7D05C02D3015
:1040900031F48091A000877F8093A00013C02E3060
:1040A00021F4809120018F770BC02F3021F4809173
:1040B00020018F7D05C0203129F480912001877F68
:1040C00080932001892F90E0880F991F885E9E4F72
:1040D000FC01A591B4918C9120E030E0842311F093
:1040E00021E030E0C90108951F920F920FB60F92A0
:1040F0000BB60F9211242F933F934F935F936F93BF
:104100007F938F939F93AF93BF93EF93FF934091D0
:10411000C600E091A707F091A807CF01019660E8DB
:1041200070E00E947F279C018091A9079091AA07C7
:104130002817390739F0E95DF84F40833093A80715
:104140002093A707FF91EF91BF91AF919F918F911E
:104150007F916F915F914F913F912F910F900BBE87
:104160000F900FBE0F901F9018951F920F920FB6D1
:104170000F920BB60F9211242F933F934F935F939F
:104180006F937F938F939F93AF93BF93EF93FF931F
:104190004091CE00E0912B08F0912C08CF010196C0
:1041A00060E870E00E947F279C0180912D0890912B
:1041B0002E082817390739F0E555F84F408330931A
:1041C0002C0820932B08FF91EF91BF91AF919F9105
:1041D0008F917F916F915F914F913F912F910F90B0
:1041E0000BBE0F900FBE0F901F9018951F920F924D
:1041F0000FB60F920BB60F9211242F933F934F934C
:104200005F936F937F938F939F93AF93BF93EF933E
:10421000FF934091D600E091AF08F091B008CF0134
:10422000019660E870E00E947F279C018091B108B0
:104230009091B2082817390739F0E15DF74F4083B4
:104240003093B0082093AF08FF91EF91BF91AF91E9
:104250009F918F917F916F915F914F913F912F919E
:104260000F900BBE0F900FBE0F901F9018951F92CE
:104270000F920FB60F920BB60F9211242F933F930C
:104280004F935F936F937F938F939F93AF93BF935E
:10429000EF93FF9340913601E0913309F091340997
:1042A000CF01019660E870E00E947F279C01809119
:1042B0003509909136092817390739F0ED54F74F31
:1042C00040833093340920933309FF91EF91BF91DC
:1042D000AF919F918F917F916F915F914F913F919E
:1042E0002F910F900BBE0F900FBE0F901F9018953F
:1042F0005F926F927F928F929F92AF92BF92CF9276
:10430000DF92EF92FF920F931F93CF93DF93EC0115
:104310003A014B01413482E458078FE0680780E09E
:1043200078070CF07FC060E874E88EE190E0A401AB
:1043300093010E94B4272150304040405040CA01B0
:10434000B90122E030E040E050E00E94B42759017A
:104350006A01A6019501209530954095509594E00D
:10436000220F331F441F551F9A95D1F760E074E266
:1043700084EF90E00E94B427CA01B9012FEF30E02A
:1043800040E050E00E946027A40193010E94B427FE
:10439000C90181509F4F181619061CF4522E5A94C9
:1043A00003C055245394521A60E079E08DE390E005
:1043B000A40193010E94B427215030404040504056
:1043C000CA01B90122E030E040E050E00E94B42789
:1043D000209530954095509583E0220F331F441F60
:1043E000551F8A95D1F760E074E284EF90E00E9457
:1043F000B427CA01B9012FEF30E040E050E00E943D
:104400006027A40193010E94B427C90181509F4FE6
:10441000181619061CF4822F815002C081E0821BFD
:10442000851500F5E885F98581E090E00A8802C0ED
:10443000880F991F0A94E2F7808360E079E08DE3AA
:1044400090E0A40193010E94B427215030404040E5
:104450005040CA01B90122E030E040E050E00E9443
:10446000B42704C0E885F98510829501EC81FD81AF
:104470003083EE81FF812083EA85FB85208141E046
:1044800050E0CA010E8402C0880F991F0A94E2F717
:10449000282B2083EA85FB852081CA010F8402C076
:1044A000880F991F0A94E2F7282B2083EA85FB8561
:1044B0008081088802C0440F551F0A94E2F7842BBC
:1044C0008083DF91CF911F910F91FF90EF90DF904C
:1044D000CF90BF90AF909F908F907F906F905F90A4
:1044E0000895DC011296ED91FC911397E058FF4F6F
:1044F0008191919180589F4F20813181821B930B34
:1045000060E870E00E947F270895CF93DF93DC017D
:104510001296ED91FC911397EF01CE57DF4F488132
:104520005981E058FF4F80819181E058F040841715
:10453000950719F42FEF3FEF0CC0E40FF51F208112
:10454000CA01019660E870E00E947F279983888302
:1045500030E0C901DF91CF910895FC01A085B185BC
:1045600021898C9190E0022E02C0959587950A943E
:10457000E2F780FFF6CF0484F585E02D608308958F
:1045800027E433E0309338092093370987E297E036
:1045900090933A098093390985EC90E090933C0917
:1045A00080933B0984EC90E090933E0980933D0911
:1045B00080EC90E09093400980933F0981EC90E07B
:1045C000909342098093410986EC90E090934409CE
:1045D00080934309E4E0E093450973E07093460952
:1045E00067E06093470955E05093480941E04093E4
:1045F000490930934B0920934A098BEA97E090933D
:104600004D0980934C098DEC90E090934F09809375
:104610004E098CEC90E0909351098093500988ECFE
:1046200090E0909353098093520989EC90E0909325
:104630005509809354098EEC90E09093570980932C
:104640005609E09358097093590960935A09509399
:104650005B0940935C0930935E0920935D098FE20A
:1046600098E09093600980935F0985ED90E09093C6
:1046700062098093610984ED90E0909364098093CE
:10468000630980ED90E0909366098093650981ED60
:1046900090E0909368098093670986ED90E090938D
:1046A0006A0980936909E0936B0970936C096093C0
:1046B0006D0950936E0940936F09309371092093EF
:1046C000700983EB98E0909373098093720985E3F6
:1046D00091E0909375098093740984E391E090933D
:1046E00077098093760980E391E09093790980932C
:1046F000780981E391E090937B0980937A0986E3BE
:1047000091E090937D0980937C09E0937E097093FA
:104710007F0960938009509381094093820908952D
:104720000F931F93CF93DF938C01EB0109C0219668
:10473000D801ED91FC910190F081E02DC80109951F
:1047400068816623A1F7DF91CF911F910F910895A2
:10475000EF92FF920F931F93CF93DF938C017B0116
:10476000EA010CC0D7016D917D01D801ED91FC915A
:104770000190F081E02DC80109952197209791F7CC
:10478000DF91CF911F910F91FF90EF900895DC0181
:10479000ED91FC910280F381E02D099508950F932E
:1047A0001F938C01DC01ED91FC910190F081E02DD3
:1047B0006DE00995D801ED91FC910190F081E02D1B
:1047C000C8016AE009951F910F9108950F931F93F7
:1047D0008C010E94C723C8010E94CF231F910F9113
:1047E00008952F923F924F925F926F927F928F9295
:1047F0009F92AF92BF92CF92DF92EF92FF920F9370
:104800001F93DF93CF93CDB7DEB7A0970FB6F89481
:10481000DEBF0FBECDBF1C016A017B0141155105F2
:104820006105710549F4DC01ED91FC910190F08185
:10483000E02D60E3099554C0882499245401422E48
:1048400055246624772401E010E00C0F1D1F080D8D
:10485000191DC701B601A30192010E949227F80118
:1048600060830894811C911CA11CB11CC701B60176
:10487000A30192010E949227C901DA016C017D0116
:10488000C114D104E104F104F1F681E0E82EF12C29
:10489000EC0EFD1EE80CF91C3E010894611C711C15
:1048A000D501C4010197A109B1096C01C818D90843
:1048B00014C0F601EE0DFF1D60816A3010F4605DDA
:1048C00001C0695CD101ED91FC910190F081E02D76
:1048D000C10109950894E108F1086E147F0449F7B5
:1048E000A0960FB6F894DEBF0FBECDBFCF91DF917B
:1048F0001F910F91FF90EF90DF90CF90BF90AF90FE
:104900009F908F907F906F905F904F903F902F90EF
:104910000895EF92FF920F931F93CF93DF93EC01D3
:104920007A018B0177FF0FC0E881F9810190F08156
:10493000E02D6DE2099510950095F094E094E11C4E
:10494000F11C011D111DCE01B801A7012AE00E9432
:10495000F123DF91CF911F910F91FF90EF90089578
:104960000F931F938C01AB01662757FD6095762F3F
:104970000E948924C8010E94CF231F910F9108959E
:10498000DC012115310541F4ED91FC910190F0819C
:10499000E02D642F099508952A30310519F40E94FD
:1049A000892408950E94F12308950F931F938C0189
:1049B0000E94C024C8010E94CF231F910F91089527
:1049C0005058BB27AA270ED075C166D130F06BD1E5
:1049D00020F031F49F3F11F41EF45BC10EF4E0951A
:1049E000E7FB51C1E92F77D180F3BA17620773074C
:1049F0008407950718F071F49EF58FC10EF4E095C9
:104A00000B2EBA2FA02D0B01B90190010C01CA0188
:104A1000A0011124FF27591B99F0593F50F4503E33
:104A200068F11A16F040A22F232F342F4427585F25
:104A3000F3CF469537952795A795F0405395C9F73D
:104A40007EF41F16BA0B620B730B840BBAF09150F5
:104A5000A1F0FF0FBB1F661F771F881FC2F70EC094
:104A6000BA0F621F731F841F48F487957795679567
:104A7000B795F7959E3F08F0B3CF9395880F08F050
:104A80009927EE0F979587950895D9D008F481E07E
:104A900008950CD00FC107D140F0FED030F021F4C2
:104AA0005F3F19F0F0C0511139C1F3C014D198F330
:104AB0009923C9F35523B1F3951B550BBB27AA279F
:104AC00062177307840738F09F5F5F4F220F331F11
:104AD000441FAA1FA9F333D00E2E3AF0E0E830D0DD
:104AE00091505040E695001CCAF729D0FE2F27D0E0
:104AF000660F771F881FBB1F261737074807AB07AE
:104B0000B0E809F0BB0B802DBF01FF2793585F4F22
:104B10002AF09E3F510568F0B6C000C15F3FECF33C
:104B2000983EDCF3869577956795B795F7959F5FE7
:104B3000C9F7880F911D9695879597F90895E1E03B
:104B4000660F771F881FBB1F621773078407BA079A
:104B500020F0621B730B840BBA0BEE1F88F7E095F5
:104B6000089504D06894B111D9C00895BCD088F0DC
:104B70009F5790F0B92F9927B751A0F0D1F0660F49
:104B8000771F881F991F1AF0BA95C9F712C0B13064
:104B900081F0C3D0B1E00895C0C0672F782F882777
:104BA000B85F39F0B93FCCF3869577956795B395A3
:104BB000D9F73EF490958095709561957F4F8F4F12
:104BC0009F4F0895E89409C097FB3EF49095809517
:104BD000709561957F4F8F4F9F4F9923A9F0F92FC3
:104BE00096E9BB279395F695879577956795B79541
:104BF000F111F8CFFAF4BB0F11F460FF1BC06F5F27
:104C00007F4F8F4F9F4F16C0882311F096E911C038
:104C1000772321F09EE8872F762F05C0662371F059
:104C200096E8862F70E060E02AF09A95660F771F6D
:104C3000881FDAF7880F9695879597F90895990F49
:104C40000008550FAA0BE0E8FEEF16161706E80756
:104C5000F907C0F012161306E407F50798F0621B77
:104C6000730B840B950B39F40A2661F0232B242B4C
:104C7000252B21F408950A2609F4A140A6958FEF6B
:104C8000811D811D089597F99F6780E870E060E0BD
:104C900008959FEF80EC089500240A9416161706D5
:104CA00018060906089500240A941216130614061D
:104CB00005060895092E0394000C11F4882352F080
:104CC000BB0F40F4BF2B11F460FF04C06F5F7F4F38
:104CD0008F4F9F4F089557FD9058440F551F59F01F
:104CE0005F3F71F04795880F97FB991F61F09F3FD9
:104CF00079F087950895121613061406551FF2CF02
:104D00004695F1DF08C0161617061806991FF1CF51
:104D100086957105610508940895E894BB27662778
:104D20007727CB0197F908958ADF08F48FEF08956C
:104D30000BD0C0CFB1DF28F0B6DF18F0952309F013
:104D4000A2CFA7CF1124EACFC6DFA0F3959FD1F35E
:104D5000950F50E0551F629FF001729FBB27F00D29
:104D6000B11D639FAA27F00DB11DAA1F649F66277E
:104D7000B00DA11D661F829F2227B00DA11D621FCD
:104D8000739FB00DA11D621F839FA00D611D221F87
:104D9000749F3327A00D611D231F849F600D211D6B
:104DA000822F762F6A2F11249F5750408AF0E1F00E
:104DB00088234AF0EE0FFF1FBB1F661F771F881F57
:104DC00091505040A9F79E3F510570F05CCFA6CF9F
:104DD0005F3FECF3983EDCF3869577956795B79542
:104DE000F795E7959F5FC1F7FE2B880F911D96956C
:104DF000879597F9089511F40EF44BCF4AC073DFED
:104E0000D0F39923D9F3CEF39F57550B87FF51D099
:104E100056959795B0E020F4660F771F881FBB1F4B
:104E20001F930F9300249001A0018001F001A0E8DE
:104E30000E0F1F1F0A1E511D601B710B8009B50B41
:104E400048F4600F711F801DB51F0E1B1F0B0A0A4F
:104E5000510907C02E0F3F1F4A1F0E0F1F1F0A1EAA
:104E6000511D660F771F881FBB1FA695F795E79505
:104E7000F8F60617170708065B07211D311D411DAF
:104E80000F911F91B901842F9158880F969587959E
:104E900008959F3F49F0915028F48695779567953E
:104EA000B7959F5F80389F4F880F9695879597F9A4
:104EB000089591505040660F771F881FD2F70895CC
:104EC000629FD001739FF001829FE00DF11D649FEE
:104ED000E00DF11D929FF00D839FF00D749FF00D7A
:104EE000659FF00D9927729FB00DE11DF91F639F1B
:104EF000B00DE11DF91FBD01CF011124089597FBED
:104F0000092E07260AD077FD04D049D006D000200C
:104F10001AF4709561957F4F0895F6F790958195F5
:104F20009F4F0895A1E21A2EAA1BBB1BFD010DC0C5
:104F3000AA1FBB1FEE1FFF1FA217B307E407F50749
:104F400020F0A21BB30BE40BF50B661F771F881F25
:104F5000991F1A9469F760957095809590959B01BB
:104F6000AC01BD01CF01089597FB092E05260ED097
:104F700057FD04D0D7DF0AD0001C38F45095409577
:104F8000309521953F4F4F4F5F4F0895F6F790951D
:104F90008095709561957F4F8F4F9F4F0895AA1B05
:104FA000BB1B51E107C0AA1FBB1FA617B70710F014
:104FB000A61BB70B881F991F5A95A9F78095909546
:104FC000BC01CD010895EE0FFF1F0590F491E02D77
:104FD0000994911106C0803219F089508550D0F79C
:104FE00008959927882708952F923F924F925F92B4
:104FF0006F927F928F929F92AF92BF92CF92DF92E9
:10500000EF92FF920F931F93CF93DF93CDB7DEB74D
:10501000CA1BDB0B0FB6F894DEBF0FBECDBF0994E1
:105020002A88398848885F846E847D848C849B8438
:10503000AA84B984C884DF80EE80FD800C811B8146
:10504000AA81B981CE0FD11D0FB6F894DEBF0FBE75
:0A505000CDBFED010895F894FFCFE5
:10505A00453A20006875683F204700543A005B468D
:10506A0049524D57415245205741524E494E475D8C
:10507A0020696E76616C6964204D2D436F646520EA
:10508A0072656365697665643A204D006F6B20002E
:10509A006F6B007374617274000117002C011900A0
:1050AA0027011B0022011C001D011F0018012100FD
:1050BA00130123000E0126000901290004012C0016
:1050CA00FF003000FA003400F5003800F0003D001F
:1050DA00EB004200E6004700E1004E00DC0054000D
:1050EA00D7005C00D2006400CD006D00C8007800D3
:1050FA00C3008300BE008F00B9009C00B400AB005F
:10510A00AF00BB00AA00CD00A500E000A000F5009A
:10511A009B000C0196002501910040018C005C0166
:10512A0087007B0182009B017D00BD017800E001C0
:10513A00730004026E00290269004F0264007402BF
:10514A005F0099025A00BE025500E10250000203B4
:10515A004B00210346003E03410059033C00710302
:10516A003700870332009A032D00AB032800BA03E5
:10517A002300C6031E00D1031900D9031400E1035A
:10518A000F00E7030A00EC030500F00300003FFFED
:0E519A00FF010100000000AD229023A82300B9
:00000001FF
